:020000040800F2
:1000000048BE002049C8000851C7000853C700086F
:1000100055C7000857C7000859C70008000000006E
:1000200000000000000000000000000069AD0008B2
:100030005BC700080000000011AD00088BA000089D
:100040008DC8000891C8000895C8000899C8000824
:100050009DC80008A1C80008A5C80008A9C80008D4
:10006000ADC80008B1C80008B5C80008B9C8000884
:10007000BDC80008C1C80008C5C80008C9C8000834
:10008000CDC80008D1C80008D5C80008D9C80008E4
:10009000DDC80008E1C80008E5C80008E9C8000894
:1000A000EDC80008F1C80008F5C80008F9C8000844
:1000B000FDC8000801C9000805C9000809C90008F1
:1000C0000DC9000811C9000815C9000819C90008A0
:1000D0001DC900085DC7000821C9000825C900081E
:1000E00029C900082DC9000831C9000835C9000810
:1000F00063C7000839C900083DC9000841C90008A4
:1001000045C9000849C900084DC9000851C900087F
:1001100055C9000859C900085DC9000861C900082F
:1001200065C9000869C900086DC9000871C90008DF
:1001300075C9000869C7000879C900087DC90008A9
:1001400081C9000885C9000889C900088DC900084F
:1001500091C9000895C9000899C900089DC90008FF
:10016000A1C90008A5C90008A9C90008ADC90008AF
:10017000B1C90008B5C90008B9C9000800000000ED
:10018000BDC90008C1C90008C5C90008C9C900081F
:10019000CDC90008D1C90008D5C90008D9C90008CF
:1001A0000000000000000000DDC900082DE9F04F4C
:1001B0000546DFF8D44A6868206283B0688914284D
:1001C00041DBDFF8C86A3168706901F0C3FA0028C2
:1001D00040F0F781307D00F0F000E02800F0F18180
:1001E000206A00F063FD000B800014282BDB2989B6
:1001F0008142C0F0E6810022A0F114016262A18276
:100200006A89DFF88C9ADFF88C8A824203D3E18214
:1002100000F08CFA36E0286828B94346B2220FF283
:10022000B03100F0FAFC6FF01301284601F0C3FC76
:100230006889A18AE0820F1A00B200F077FA286874
:100240004189BFB2B942C0F2BC814168616239B232
:10025000494209B201F0AFFC2889C01B2881688996
:1002600028B14346CF220FF2783100F0D6FC29683E
:1002700028890989884205D04346D0220FF26C3183
:1002800000F0CBFC206ADFF810BA008802F026F8F4
:10029000216A08804FF0000A488802F01FF8216A9E
:1002A0004880486802F01FF8216A4860A0628868A8
:1002B00002F019F8216A8860E062C88902F00EF83D
:1002C000216AC881888902F009F800F03F00207097
:1002D00010F00300298918BF01204018A083DBF823
:1002E000007001E0BA46FF68002F70D0387D28B951
:1002F0004346E2220FF2143100F08FFC387D0A28C9
:1003000005D14346E3220FF22C3100F086FC387D04
:10031000012805D14346E4220FF2443100F07DFC70
:10032000206A398B0288914202BFF98A4088814253
:10033000D8D178683169884202BF386871698842CB
:10034000D0D1F868B84205D14346EC220FF23831DB
:1003500000F063FCBAF1000F07D0F868CAF80C008F
:10036000DBF80000F860CBF80070F868B84205D1FF
:100370004346F4220FF23C3100F04FFC0020606055
:100380002889A081A560206A206100202063607018
:1003900060832078000703D5687B40F00100687314
:1003A0006FF00C05786F002809D0384602F082FB08
:1003B000A84205D0786F00281CBFA08B002875D0FC
:1003C000788D002802D1384602F0FBFFE6E0DFF826
:1003D000CC080FF20C3A076800E0FF68002F43D00A
:1003E000387D0A2804D04346FE22514600F015FC11
:1003F000216A3A8B0888824202BF4988FA8A8A4277
:10040000EBD17A6833699A4202BF3A6873699A42BB
:10041000E3D12278530726D4930714D5D4F8289033
:100420007A6AB9EB020214D43B8DD21A012A10DA8F
:100430000190009106F11003A08B19FA80F1E06A97
:1004400006F11402BBE0D00703D5DFF854080068BA
:100450003862A08B002806D0B87E40F00200B87643
:10046000384602F0DAFFACE0DFF8381808684FF0E1
:10047000000A01E08246C068002800F09980236AE3
:10048000C28A5B889A42F5D1026873699A4218BFA2
:10049000002AEFD1BAF1000F05D0C268CAF80C20CB
:1004A0000A68C260086000F066F98AE0676338464F
:1004B00000F0DEF9A84271D06078000710D5D7F8B7
:1004C0008C20100003D038696FF00D019047394639
:1004D000584602F030FC3946012003F09FFB5DE0F6
:1004E000628B4AB1FB6F180004D0386939469847CF
:1004F000A84253D000206083384600F01CF9002841
:100500004CD1206B30B3786F30B143464FF4D27288
:100510000FF2FC1100F081FBB87E226BC00606D5FD
:10052000104601F04AFB384602F08CF836E0D7F866
:100530008060300004D0386900233946B04704E0B9
:1005400000233946002002F015FBA84226D008B14E
:10055000206B78676078800617D5786F20B1417B73
:1005600041F02001417310E0388DB0F5066F1CBFDB
:10057000401C3885D7F88060300006D038690023E9
:1005800000223946B047A84208D0002060633846B0
:1005900000F0D1F810B9384602F03FFF0020606348
:1005A0002063A06890B101F008FB0020A0600DE07E
:1005B000206A00F07BFB400703D400F04AF903F007
:1005C0008DF82846BDE8FE4F01F0F7BABDE8F78F79
:1005D000702D3E6E65787420213D204E554C4C00A8
:1005E000702D3E6C656E203D3D203000702D3E74B8
:1005F0006F745F6C656E203D3D20702D3E6E65789A
:10060000742D3E746F745F6C656E00007463705F70
:10061000696E7075743A20616374697665207063E1
:10062000622D3E737461746520213D20434C4F530D
:10063000454400007463705F696E7075743A2061A0
:100640006374697665207063622D3E7374617465AE
:1006500020213D2054494D452D574149540000006B
:100660007463705F696E7075743A20616374697643
:1006700065207063622D3E737461746520213D2096
:100680004C495354454E00007463705F696E707539
:10069000743A207063622D3E6E65787420213D208F
:1006A00070636220286265666F72652063616368AB
:1006B000652900007463705F696E7075743A20700C
:1006C00063622D3E6E65787420213D207063622048
:1006D00028616674657220636163686529000000A3
:1006E0007463705F696E7075743A2054494D452D7E
:1006F00057414954207063622D3E737461746520C4
:100700003D3D2054494D452D5741495400000000BE
:100710007063622D3E726566757365645F646174B3
:1007200061203D3D204E554C4C000000414209B235
:10073000284601F040BA10B50446DFF84C05407871
:10074000C00616D504F11000817AC90606D4C26F1E
:10075000110003D000686FF00E0190472146DFF8CA
:10076000380502F0E8FA2146012003F057FA01208B
:1007700010BD002010BDF0B5DFF80C45054620780F
:10078000410783B064D4C106DFF8006504D500F0EA
:1007900060F802F0A3FFF7BD800759D5687D02F02D
:1007A00024FA07000AD1AB69180051D0286903B0B8
:1007B000BDE8F0404FF0FF32002118477069386003
:1007C0003069786007F15C06E88AF882206A008860
:1007D000388303203875A06A401C7862F862384676
:1007E00002F0F4FA7865F8647864B865A06A401E8F
:1007F000386528693861F561287A00F00C00387294
:10080000DFF894040168F960076003F0C0FADFF8CC
:10081000F41C01200870384600F03AFE206AC089B6
:1008200030807080391D788E02F0D6FA78861221D9
:10083000384602F039FD30B1384603B0BDE8F0402B
:10084000002101F076BE3846BDE8FE4002F0E5BD6D
:10085000F7BD206A0188019106F110034088A18B41
:10086000009006F11402A06A10FA81F1E06A704764
:100870002DE9F04FDFF810640FF694490FF6B848F1
:1008800004463078410783B004F1440528D5207D23
:10089000022805D1F06AA968884240F0A4810BE0E3
:1008A000616AB26A8A4212D130B9434640F2E72205
:1008B0000FF6D04100F0B1F9707840F00800707088
:1008C000A07E00F0FE00A0766FF00D008CE1501AC3
:1008D00000F18981218D401A012880F284818BE00A
:1008E000800704D5207D022818BF0328F7D1A07EF9
:1008F000C00603D4DFF8A80300682062002084F853
:10090000960041F21C17204600F0C2FD94F814B086
:1009100096F800E0B16AF06ADFF87023ABF1020BE1
:10092000BBF1070F0EF0100341F21D1A66D8DFE885
:100930001BF008007C00D600DF000B01D6001C0174
:100940004A010EF0120CBCF1120F02BFD5F800C024
:100950000CF1010C604552D14A1C6262E2622860CF
:10096000336AD88928836883481EE860211D0420E3
:100970002075608E02F030FA420052452CBF1346BB
:100980003B4681009942608638BF870002D35245BA
:1009900028BF4700AF80E88B30B9434640F21A3297
:1009A0000FF6004100F039F9E88BAE6A401EE8838B
:1009B0005EB96E6A36B9434640F222320FF6FC3118
:1009C00000F02BF93068686201E03068A86200F03E
:1009D00026FDA86A00280EBF4FF0FF30002084F8E3
:1009E000420020862B6C180006D020690022214688
:1009F000984710F10D0F40D000F0F8F8F3E0002B0D
:100A0000FCD0336A1D8801955B88B58B009311FA81
:100A100085F100F0F2F894F84200062804DA00208C
:100A20002086204602F0A9FEDDE0002B4CD02B688A
:100A3000C31A5B1E3DD4AB68C31A012B39DA0420FC
:100A40002075686BB0B1806940B9434640F25132BD
:100A50000FF67C3100F0E1F8686B58B1686B836980
:100A6000180007D0206900222146984740B110F1B4
:100A70000D0F02D0204601F0E5FD6FF00C00B3E051
:100A800000F0B9F8708B08B1401E7083608E420090
:100A900052452CBF13463B468100994238BF870020
:100AA00002D3524528BF4700AF80707880061BD420
:100AB00099E0336A1C8801945B88B48B009311FA27
:100AC00084F100F09AF88EE05FEA8E70FBD5606AE0
:100AD000401E814202D1204602F066FE83E000F013
:100AE0008AF870788006F9D500F080F8072029E0B0
:100AF00000F081F872783178F06A920601F0100106
:100B000017D591B1A968884204BF686A00280CD142
:100B100000F07CF800F076F839D000E008460028B4
:100B200042D0C168A142F9D13CE000F05FF8082052
:100B300008E0002957D0A968884204BF686A0028E5
:100B400051D1062020754EE000F055F870788006EF
:100B500049D500F05BF800F055F818D000E00846E1
:100B600010B3C168A142FAD11CE000F044F830781B
:100B7000C00638D5F06AA968884204BF686A0028B0
:100B800031D1204602F0B3F800F03CF806D14248DB
:100B900041490068C068086006E0084620B1C168A5
:100BA000A142FAD1E168C1600020E0600120DFF8D5
:100BB000541908700A20207538480168E160046003
:100BC00003F0E5F80FE000F016F83078C0060AD51B
:100BD000F06AA968884204BF686A002803D1707867
:100BE00040F0100070700020BDE8FE8FA07E40F045
:100BF0000200A076704720465BE002F11003143239
:100C000002F06CBD24480068A0427047A07E40F00E
:100C10000200A076204602F06AB8484603F0EEB91A
:100C200070B504460D46E06800F040F8C00713D5E3
:100C3000284601F076FF002524E000F037F8C007D1
:100C400006D5012001F04AFBE1688A8910438881BA
:100C500028462D6801F06EFFA5B10B48816A2089F6
:100C60002E8911FA80F2E8684368D31A9B1BE4D5F9
:100C70004068121A012A05DB411A218189B2606895
:100C800000F0E4FE256070BD18AD0020A8AD002086
:100C90001015000838150008EC010020F0010020B4
:100CA000E0010020E8010020A8812869808901F086
:100CB00015BB2DE9F14F00F114040FF6540820780C
:100CC0000FF6740B042806DA5B464FF481620FF6C8
:100CD000201100F0C7FB0098DFF82C5800F1440702
:100CE0002878C00640F13C81D7F80CC0A96A3B695E
:100CF0003A8BBCEB010E13FA82F00DD404D1D5F877
:100D00002CC0B3EB0C0C07D4D5F82CC0634519D11B
:100D10002B6ADB899A4215D22A6A7B8BD289F960C9
:100D2000934238BF13463A837B83E96A396100995D
:100D300094314B781AB92BB90A70012201E00BB13A
:100D400000224A703B68EA6A0099A2EB030C423128
:100D5000BCF1010F0FF6DC090FF6B00A2CDAB5F87A
:100D60001CC0BCF1000F01BFD7F810C0B7F818E0E5
:100D70001CFA8EFC84451CD1B4F91C00002818D440
:100D8000934216D14878421CD2B2904238BF4A7082
:100D90004878042807DBB888E18B091889B28842B3
:100DA00000D2B9809CE00328FCD1009802F020FD1D
:100DB00096E00020487093E06DD4B868101A0128BE
:100DC00069DAA079430704D500F0FB00A071F88828
:100DD000B88000200870B4F92A30B4F9280003EB79
:100DE000E000A085002048703A602078042831DBBC
:100DF000B888F9888842E18B05D2091889B28842FF
:100E000028D2B98026E0494391FBF0F1091889B254
:100E1000884238BF0846B8801CE006460068B862C1
:100E200000F0ECFAF98B814205D25B4640F29E421B
:100E3000514600F017FB00F0E1FA00F0E9FAF88BF8
:100E400040B1B86A30B9786AE8B95B4640F2A74267
:100E500000F007FBB86AB0B1C068406801F043FA1F
:100E60000646B86AC068FFF721FF10F00301B86AB0
:100E7000028918BF012116FA82F28918EA6A891AD2
:100E80000129CADB10B94FF0FF3000E00020A08339
:100E90000020E07124E0009802F093FA20E006467A
:100EA0000068786200B9388400F0A8FAF98B8142B2
:100EB00005D25B4640F2D542514600F0D3FA00F02D
:100EC0009DFA00F0A5FAF88B50B1B86A002804BF6B
:100ED000786A002804D15B4640F2DD4200F0C1FA96
:100EE000786AB8B1C068406801F0FDF90646786AD2
:100EF000C068FFF7DBFE10F00301786AEA6A18BFEA
:100F00000121931B06899B1B591A03D4B968511AF6
:100F10000129C4DBB88B698B0818B883206AF8B143
:100F2000616AEA6A891A1BD5DFF8E0251268B4F90C
:100F30002810101A00B2A0EBE10002B24118002AFA
:100F4000B4F92A20218548BF40428018A0EBA200B6
:100F500060850904C91401FA80F0A0850020206290
:100F6000A88B002800F038822178072980F234828B
:100F70002169AA6AA1EB020ABAF1010356D4AAEBCD
:100F80000000401C012851DAAE6836B95B4640F2D9
:100F90003C520FF2C06100F065FA47F6FF708245DF
:100FA00006DB5B4640F23D520FF2B86100F05AFAA0
:100FB000A8680FF2D0694189514522DA008950456D
:100FC00006DA5B4640F23F520FF2A86100F04AFA9F
:100FD000A8680089A0EB0A0005E0AAEB010A3081AD
:100FE00000217181366871895145F6DBCAF1000133
:100FF00009B2304600F0DFFD70B15B4640F24C5262
:1010000008E0CAF1000109B200F0D5FD20B15B464D
:1010100040F2515200F025FA2069A989AA6A091AFA
:101020005118A981A8622969486005E0501A03D5C2
:10103000A07940F00200A0712069A96A0A1A00F1A3
:10104000C681A38AD21A521C012A80F2C08188422A
:101050000FF2446940F00D81FFF727FE00F0F2F92E
:1010600018BF01204018A88380B2A18A81421FD2F4
:10107000FFF71BFEC00708D5FFF717FE00F03E0084
:1010800001F02CF9296900F0CDF9A08AFFF70CFED8
:1010900000F0CFF9FFF709FE00F0D4F918BF0120E6
:1010A00000F0D4F904D05B4640F27F5200F0D9F949
:1010B000F86A002856D0FFF7F8FDC00707D5F86A90
:1010C00000284FD00168F96201F034FDF7E7FE6AAD
:1010D0001BE0908901F002F9C00712D5FFF7E5FD8A
:1010E00080070ED4012001F0F9F829698A8910439C
:1010F000888101F0F3F800F0A5F918BF012040182D
:10110000A8833046366801F015FD56B3F268A86A28
:10111000A98B5368B6F808C010FA81F1CB1AB3EB6B
:101120000C03D6D55268891A01291ADB101AFFF769
:10113000BBFD00F07EF9FFF7B8FD00F083F918BFA2
:1011400001204018A883A96A11FA80F0F168496863
:10115000884206D05B4640F2AF520FF2745100F065
:1011600081F9FE62A88BA96A11FA80F12161A18A36
:10117000814206D25B4640F2B9520FF2905100F024
:1011800071F9A08AA98B401AA082009801F060FA38
:10119000A868018911B128630020A860FFF785FDC8
:1011A000C00719D5687840F02000687014E0296302
:1011B00000207060F068FFF779FDC00708D56878F7
:1011C00040F0200068702078042804BF07202070B9
:1011D0003068F86200F023F9FE6A002E3FD0F06814
:1011E0002169406888423AD1A862F068FFF75EFD45
:1011F00010F003003289216918BF012010FA82F033
:1012000040182061F068FFF751FD10F003003289AB
:10121000A18A18BF012010FA82F0814206D25B46F3
:1012200040F2DE520FF2045100F01CF9F068FFF7B3
:101230003DFD10F00300A18A328918BF0120891AF0
:10124000081AA082009801F003FA71680889002842
:10125000B0D0286B0028AAD000F034FDA8E7A07910
:10126000C10748BF00F0FE0000F1C08040F001005F
:10127000BEE0009802F0A5F8FE6A1EB900F0BBF8C7
:10128000F862B6E04FF0000AF068A96A426891423D
:101290000ED13089A9898842F3D200F0ACF8002839
:1012A000EFD0BAF1000F14BFCAF80000F86209E0ED
:1012B000BAF1000F08D18A1A2AD500F09CF800284C
:1012C000DFD0F862314620E0DAF80C305B68CB1AE8
:1012D0005B1E1DD48A1A521C012A19DA00F08BF801
:1012E000040025D0DAF80C00BAF8082000F089F8DC
:1012F00007DB091AAAF8081089B2DAF8040000F02E
:10130000A5FBCAF8004031462046BDE8F44F87E40B
:101310003268002A56D14068081A012852DBF0686A
:10132000FFF7C4FCC00764D400F065F80028306003
:101330005FD0F068328900F064F805DB091A31816A
:1013400089B2706800F082FBA88BA96A11FA80F05C
:101350002169401AA18A401A01284ADB3068C06816
:10136000FFF7A4FCC0070BD53068C068FFF79EFCF0
:1013700000F03E0000F0B2FF3168C96800F052F89A
:101380002069A18A0818A96A411A3068018189B2C6
:10139000406800F05BFB3068C068FFF787FC31688D
:1013A000098910F0030018BF012000F04FF820D089
:1013B0005B464946404601B0BDE8F04F40F27B62D3
:1013C00002F01CBEB24616007FF45EAF11E000983A
:1013D000BDE8F24F01F0F5BF2169AA6A501A04D4A2
:1013E000A18A401A401C012803DBA07940F00200CA
:1013F000A071BDE8F18F281D01F0AABB706800F054
:1014000040BC4068A96A10FA82F2521A012A704759
:10141000F98B081AF8833189688B0818688330467D
:1014200001F088BB8A894CF2FF031A40104388817F
:101430007047800702D5A889401EA881A989A8689D
:1014400000F004BB10F00300A98970474018A8837E
:10145000A96AA28A11FA80F0216911FA82F1884200
:1014600070474946404602F0C9BD10B52648018B79
:10147000436A4A1C13B1C48AA14204D20283006A9F
:101480000818007D10BD091BC9B20283C85C10BDDD
:10149000F8B51D4DAE8A044666B30020288300E0EF
:1014A0006086288BB04225D2FFF7DFFF10B30228F9
:1014B00001D0F6D316E0FFF7D8FF04281AD1288B05
:1014C000801C864216DBFFF7D0FF0746FFF7CDFFF3
:1014D00040EA0720B0F5067F01DC0028E0D14FF498
:1014E0000670DDE7FFF7C1FF022803DB298B801EB2
:1014F0004018D3E7F1BD0448417841F01001417034
:1015000070470000DC01002018AD0020E001002041
:10151000417373657274696F6E2022257322206691
:1015200061696C6564206174206C696E6520256456
:1015300020696E2025730A00443A5C50726F6A6518
:101540006374735C50726F6D65742D535C45746881
:101550003432375C4D6964646C6577617265735CC5
:1015600054686972645F50617274795C4C77495059
:101570005C7372635C636F72655C7463705F696EE9
:101580002E6300007463705F696E7075743A20702A
:1015900063622D3E737461746520213D20434C4F7E
:1015A000534544007063622D3E736E645F717565D0
:1015B00075656C656E203E20300000006E6F2073F4
:1015C00065676D656E7420746F20667265650000D6
:1015D0007063622D3E6C697374656E65722D3E6139
:1015E000636365707420213D204E554C4C00000013
:1015F0007463705F726563656976653A2077726FB0
:101600006E67207374617465000000007063622D62
:101610003E736E645F71756575656C656E203E3DE9
:1016200020706275665F636C656E286E6578742DD8
:101630003E7029007463705F726563656976653A10
:101640002076616C6964207175657565206C656EC6
:1016500067746800696E7365672E7020213D204EA7
:10166000554C4C00696E73616E65206F66667365DC
:10167000742100007062756620746F6F2073686F4C
:1016800072742100706275665F68656164657220BE
:101690006661696C656400007463705F72656365A0
:1016A0006976653A207365676D656E74206E6F7438
:1016B000207472696D6D656420636F727265637406
:1016C0006C7920746F207263765F776E640A000015
:1016D0007463705F726563656976653A20736567E8
:1016E0006D656E74206E6F74207472696D6D6564C3
:1016F00020636F72726563746C7920746F206F6FF2
:101700007365712071756575650A00007463705F9B
:10171000726563656976653A207463706C656E20E6
:101720003E207263765F776E640A00007463705FB8
:10173000726563656976653A206F6F7365712074B1
:1017400063706C656E203E207263765F776E640A0C
:1017500000000000C24318BF002811D091F82B20D0
:1017600092070FD551F8042F90420BD0496801EA37
:1017700000030A40934202BFC9430840884201D196
:10178000012070470020704710B502F0CAFC154ACE
:101790000021117002F0D2FC1348046800E0E468F4
:1017A00034B1206F0028FAD001F0BBF90020206787
:1017B00010BD38B502F0B5FC0A4C25780121217026
:1017C00002F0BCFC6DB900220021084802F03BFD8C
:1017D00038B102F0A6FC00212170BDE8324002F0D1
:1017E000ADBC31BD3FAE0020EC01002089170008E0
:1017F0002DE9F84F0E4615460FF2BC680FF2FC6B50
:1018000030B102281AD017D3042819D018D319E000
:101810003624002D00F09180022D00F0BB80C0F036
:10182000B980032D40F0C4800C2002F0CAF90700F3
:101830000ED1FFF7BEFFB2E02224EAE70E24E8E76C
:101840000024E6E75B464FF48B720FF29461B4E03C
:1018500003203873002038603E8100F0B8F8E01CA7
:1018600080088000C0F5147A564538BF304605D34D
:10187000E01C4FF6FC710840C0F51470788100F050
:101880009FF80FF2C46404D25B464FF4987200F0E4
:10189000A5F8BAF1000F06D15B464FF499720FF22A
:1018A000DC6100F09CF80120F881B94678890FF2DC
:1018B000007A1AE0688105F110006860287910F05C
:1018C000030006D05B464FF4A9720FF2F86100F0F6
:1018D00086F800F075F804D25B4640F2551200F02D
:1018E0007DF80120E881A9466889361A012E4ADB75
:1018F0000C2002F066F9050005D1FFF75AFF3846C3
:1019000000F05BF94BE00320287300206873286027
:10191000C9F800504FF6FF70864205DB5B464FF476
:10192000A672514600F05BF8B0B2B0F5147F2E817C
:1019300034BF30464FF41470BCE704F113004FF687
:10194000FC710840F11C4FF6FC7211400818F11CA4
:1019500080B28908B0EB810F21D302F0B4FE0700FA
:101960001DD000F034F83E817E810020386038734D
:10197000387910F0030006D05B4640F277120FF280
:10198000746100F02CF80120F8810020787338464B
:10199000BDE8F28F0B2002F014F9070001D10020FE
:1019A000F6E7002078603E817E8138603D73EAE78B
:1019B0005B464FF4C6720FF2686100F010F8EEE774
:1019C00079687A8907F51870511888427047E019CC
:1019D0001030C01C80088000786070472146404667
:1019E00002F00CBB38B530B1022810D00DD304285A
:1019F0000FD00ED30FE03620C01C8408A400059839
:101A000014FA81F5A84212D20FE02220F4E70E204A
:101A1000F2E70020F0E70FF2E4430FF220610FF24B
:101A2000984040F2C51202F0E9FA002032BD0020D1
:101A30001860049800B1201858601981022058736A
:101A400059810120D8811A73184632BD2DE9F0471B
:101A500004000D460FF260460FF2A04806D143463F
:101A600040F2F3120FF2F85100F065F9207B0328E1
:101A700018BF01280AD0002818BF022806D0434604
:101A800040F2F7120FF2F05100F055F9208985422B
:101A900040D22F1A0FF210690FF2F85A16E02D1AE1
:101AA0004FF6FF708742ADB205DB434640F20B2292
:101AB000514600F040F920893818208124682CB95B
:101AC000434640F20F22494600F035F96089A842AA
:101AD000E5DB207BA8B96089854212D0607B800756
:101AE0000FD46068001B291889B2204602F06BFDF4
:101AF000040006D1434640F21D220FF2C45100F00B
:101B00001AF9658160892081206808B100F055F8D4
:101B100000202060BDE8F087F8B504000FF298308F
:101B20000FF2D83306D140F23F220FF2B05102F04B
:101B300065FA36E0002934D04E42002908D565897F
:101B4000B7B2BD4205D240F247220FF29C512EE0BF
:101B50000F46257BD4F804E0002D18BF032D09D1D2
:101B600004F1100206EB0E009042606013D2C4F83C
:101B700004E01EE0022D18BF012D14D1002904D568
:101B80006089BFB2B84203D213E0012911DB82B1F0
:101B900006EB0E00606060890818608120890818D3
:101BA00020810020F2BD40F277220FF25C5102F05A
:101BB00025FA0120F2BD0022AEE72DE9F84F04001E
:101BC0000FF2F42A0FF2343B08D15B4640F2D222E6
:101BD0000FF2085100F052F800204DE0207B002861
:101BE00018BF01280AD0022818BF032806D05B4678
:101BF00040F2DE220FF2205100F040F800270FF2F1
:101C000048580FF22C5902F08CFA0546E08928B9A1
:101C10005B4640F2EB22494600F030F8E089461E70
:101C2000E681284602F08AFAB6B226BB617B2568B7
:101C3000207B89070BD5206928B95B4640F2F92241
:101C4000414600F01BF821692046884710E0032830
:101C500002D121460C2005E0012818BF022804D13A
:101C600021460B2001F0DAFF02E0204602F05DFC85
:101C70007F1C2C00C7D1F8B2BDE8F28F504602F0AD
:101C8000BDB9002101E00068491C0028FBD188B2E1
:101C9000704710B5040014D002F043FAE189491CE2
:101CA000E18102F04BFAE08958B9BDE810400FF22B
:101CB0004C230FF2B8410FF2002040F2393202F00B
:101CC0009DB910BDF8B507000C4618BF002C0FF2E7
:101CD000E8150FF228260FD13346284601B0BDE89B
:101CE000F04040F24D320FF2984102F087B9398945
:101CF000228951183981074638680028F7D1388978
:101D00007989884207D0334640F255320FF2A84114
:101D1000284602F073F9386838B1334640F256323B
:101D20000FF2C441284602F069F938892189081860
:101D300038813C60F1BD304602F060B92DE9F84FC2
:101D40000446002600270D46002C18BF002D6FF01A
:101D50000F080FF264190FF2A41A03D02089298901
:101D6000884205D2534640F2BD320FF28C413AE030
:101D7000688961898A1BC31B9A42ACBFC01B881B40
:101D80001FFA80FB6868391860685A46301802F0FC
:101D90004DFE5E446089B6B25F44B042BFB206DA1F
:101DA000534640F2CD320FF2804100F082F868894C
:101DB000B84206DA534640F2CE320FF2844100F0C8
:101DC00078F8688987426089A4BF00272D68864219
:101DD00002BF00262468002C09D135B353464FF4C6
:101DE00076720FF2784100F064F840461EE04DB183
:101DF00068892989884205D1286818B1534640F27C
:101E0000DE3209E07CB16089218988420BD12068EB
:101E100048B1534640F2E3320FF2504100F049F826
:101E20006FF0050002E0002DA2D10020BDE8F28F86
:101E30002DE9F84307468946154600260FF278003B
:101E40000FF2B8012FB90B4640F2FE320FF24841B3
:101E500009E0B9F1000F18BFB04620D10B4640F29F
:101E6000FF320FF2544102F0C9F81FE078899BB2AB
:101E70000BB1834216D2C41AA4B27868A542B8BF87
:101E80002C461918224608EB090002F0CFFDA619CE
:101E9000A0443F68B6B21FFA88F82D1B0023ADB2EC
:101EA00025B101E03F681B1A002FDFD13046BDE8A5
:101EB000F283484602F0A2B8417373657274696F89
:101EC0006E2022257322206661696C65642061742E
:101ED000206C696E6520256420696E2025730A00D8
:101EE000706275665F616C6C6F633A20626164203A
:101EF00070627566206C617965720000443A5C50CE
:101F0000726F6A656374735C50726F6D65742D5384
:101F10005C4574683432375C4D6964646C65776124
:101F20007265735C54686972645F50617274795C45
:101F30004C7749505C7372635C636F72655C70626E
:101F400075662E6300000000636865636B20702D6A
:101F50003E7061796C6F6164202B20702D3E6C6542
:101F60006E20646F6573206E6F74206F7665726685
:101F70006C6F772070627566000000005042554615
:101F80005F504F4F4C5F42554653495A45206D753F
:101F90007374206265206269676765722074686186
:101FA0006E204D454D5F414C49474E4D454E5400C6
:101FB00072656D5F6C656E203C206D61785F753178
:101FC000365F7400706275665F616C6C6F633A2097
:101FD0007062756620712D3E7061796C6F6164204E
:101FE00070726F7065726C7920616C69676E656480
:101FF00000000000706275665F616C6C6F633A2070
:10200000706275662D3E7061796C6F6164207072CC
:102010006F7065726C7920616C69676E6564000031
:10202000706275665F616C6C6F633A206572726F87
:102030006E656F75732074797065000070627566E7
:102040005F616C6C6F6365645F637573746F6D3A29
:10205000206261642070627566206C61796572002F
:10206000706275665F7265616C6C6F633A20702098
:10207000213D204E554C4C00706275665F72656163
:102080006C6C6F633A2073616E6520702D3E7479BD
:102090007065000067726F77203C206D61785F7516
:1020A00031365F7400000000706275665F726561B2
:1020B0006C6C6F633A207120213D204E554C4C00D2
:1020C0006D656D5F7472696D2072657475726E6591
:1020D000642071203D3D204E554C4C007020213D28
:1020E000204E554C4C000000696E6372656D656E44
:1020F000745F6D61676E6974756465203C3D207026
:102100002D3E6C656E000000626164207062756631
:102110002074797065000000706275665F66726594
:10212000653A2073616E6520747970650000000067
:10213000706275665F667265653A20702D3E7265E5
:1021400066203E203000000070632D3E637573747E
:102150006F6D5F667265655F66756E6374696F6EDD
:1021600020213D204E554C4C0000000070627566E9
:1021700020726566206F766572666C6F770000006E
:10218000286820213D204E554C4C29202626202809
:102190007420213D204E554C4C29202870726F67C9
:1021A00072616D6D65722076696F6C617465732004
:1021B0004150492900000000702D3E746F745F6C1F
:1021C000656E203D3D20702D3E6C656E20286F664B
:1021D000206C617374207062756620696E2063687C
:1021E00061696E2900000000702D3E6E65787420D4
:1021F0003D3D204E554C4C00706275665F636F70BC
:10220000793A20746172676574206E6F7420626918
:102210006720656E6F75676820746F20686F6C64E7
:1022200020736F75726365006F66667365745F74A3
:102230006F203C3D20705F746F2D3E6C656E00001A
:102240006F66667365745F66726F6D203C3D2070CB
:102250005F66726F6D2D3E6C656E0000705F746F0F
:1022600020213D204E554C4C0000000070627566E8
:102270005F636F7079282920646F6573206E6F74B7
:1022800020616C6C6F77207061636B657420717571
:102290006575657321000000706275665F636F701D
:1022A000795F7061727469616C3A20696E76616CF5
:1022B0006964206275660000706275665F636F70A6
:1022C000795F7061727469616C3A20696E76616CD5
:1022D000696420646174617074720000010A41EAEB
:1022E000002080B2704700F47F410902020A41EAEF
:1022F000006102F47F42114341EA10607047000020
:10230000704780B500F0A4FBDFF8C8090178491CCC
:102310000170C80744BFBDE8014000F005BA01BD27
:10232000F0B504460029207DDFF8AC59DFF8AC6930
:10233000DFF8AC7983B04BD0042818BF072847D109
:10234000616F002904BF218DB1F5066F40D0A07EDA
:10235000C00606D43B4640F20F120FF2841100F083
:10236000D8F9208B0190231DE08A00902246616AF3
:10237000E06C01F0B3F9204600F0B9FC2869A042F6
:1023800003D1C068286106E0084620B1C168A142B7
:10239000FAD1E168C1600020E06001202870207D52
:1023A000042808D10A2020756869E0606C6101F09A
:1023B000EEFC0020FEBDDFF82C090068A04202D12F
:1023C000FFF799F8F5E72146012001F027FCF0E737
:1023D00018B102283FD013D346E0E08A0028F2D09B
:1023E000A868A04203D1C068A86006E0084620B1F2
:1023F000C168A142FAD1E168C1600020E060E2E773
:102400007CB93B46C0220FF20C1100F082F9142077
:102410000078012805D03B46C1220FF2E00100F010
:1024200078F901200FF2F02151F82020126805E020
:10243000936FA34204BF00239367D268002AF7D1A9
:10244000401C0428F0D3214605F10C0000F073FC79
:1024500021460220B9E7214605F1100000F06BFC8F
:10246000012028702146B0E72046BDE8FE4038B57F
:10247000040009D1DFF868380FF29801DFF85C0832
:1024800040F24D1201F0BAFD207D032804D004284B
:102490000AD0072813D019E0204600F083FE05007B
:1024A00007D10520207505E0204600F07BFE0500E1
:1024B000F7D06DB9204600F0B0FF284632BD204667
:1024C00000F070FE0500F4D10920EBE7002032BDDA
:1024D00015F1010FF1D1A07E40F00800A076F5E7DC
:1024E0007063622D3E666C61677320262054465FE0
:1024F0005258434C4F534544000000007063622D16
:102500003E7374617465203D3D204C495354454EE3
:102510000000000070636220213D204E554C4C00AD
:10252000017D012903D0817E41F0100181760121D6
:10253000F6E62DE9F04F044604F10C0685B0307A3A
:102540000128884609D1DFF898370FF2C401DFF877
:102550008C074FF4F07201F051FD307ADFF8787794
:102560000A280BD1214607F1140000F0E4FB2146B4
:1025700005B0BDE8F04F012001F050BB316C039174
:102580000025B1690291D4F88CA0D6F804B0718905
:10259000A94678B9B9B1B868A04203D1C068B8609B
:1025A00006E0084620B1C168A142FAD13168C16095
:1025B000356008E08946214607F1100000F0BBFBBA
:1025C000012045463870306E08B100F0AAFAF06D6F
:1025D00008B100F0A6FA706E08B100F0A2FA4DB191
:1025E000B08902990190CDF80090231D03982246EE
:1025F00001F074F8214600F028F8BAF1000F03D07A
:102600006FF00C015846D04705B0BDE8F08F0000D0
:10261000646F6E27742063616C6C207463705F61FB
:10262000626F72742F7463705F6162616E646F6E4B
:1026300020666F72206C697374656E2D70636273AF
:1026400000000000012174E7FF68012001F0E6BAF4
:1026500038B50446638E218D626AE56AB3F5866FEC
:1026600012FA81F0C8BF4FF48663401BC31A01D42D
:10267000618532BD501B0128A8BF00250DDAAD1AB7
:10268000B5F5803F09D30FF614030FF658010FF28A
:10269000E4704FF4427201F0B1FC6585002032BD58
:1026A000F8B504460D46207D0FF2C8760FF2EC77A0
:1026B000012806D13B464FF448720FF6440100F062
:1026C00028F8208D2818208580B2B0F5066F05DC2B
:1026D00078B9207D072818BF092803D14FF4066078
:1026E000208506E03B4640F22D320FF63C0100F01B
:1026F00010F82046FFF7ACFFB0F5067F08DBA07EA0
:1027000040F00200A0762046BDE8F24000F085BE11
:10271000F1BD304601F072BCE8010020E401002068
:10272000EC010020F00100202DE9F04FDFF8A84572
:102730000FF2687A6068401C606083B06078401C6B
:10274000607027694FF0000B00E0FF68002F00F079
:102750003D81387D30B953464FF47C720FF2EC71F5
:1027600000F072F9387D012806D1534640F2F1326B
:102770000FF6040100F068F9387D0A2806D15346A7
:1027800040F2F2320FF61C0100F05EF96078797FBA
:102790008142DAD078774FF00008387D0228C146B0
:1027A00007F1400507F1940602D1A978062902DA5B
:1027B000A9780C2902DB4FF001084BE07278BAB11E
:1027C0000FF654103178101810F8010C8142BCBF7C
:1027D000491C3170317881423CDB384601F060F8A9
:1027E000C0BB30707078072834D2401C707031E064
:1027F000B7F93020002A5CBF521C3A86EA6A4AB315
:10280000B7F93020B5F900309A4223DB02280DD009
:10281000B7F93C00B7F93E200C2902EBE00028BFD5
:102820000C210FF6E402895688402880A7F83080F2
:102830002889A98B884288BF0846798E40084904B8
:10284000B0EB114F38BF080C6881788E288138466C
:1028500000F093FF387D062809D1B97EC90606D558
:1028600061683A6A891A292928BF08F10108397A6A
:10287000090727D5042818BF072823D161683A6AB9
:10288000286D891ADFF8D82512184FF4FA73B2FBB5
:10289000F3F28A4204D208F101084FF0010911E075
:1028A000B278DFF8C03503FB02004FF4FA72B0FBD8
:1028B000F2F0884206D2384600F0C2FF10B9B07874
:1028C000401CB070286B68B161683A6A891AB5F922
:1028D0000020062312FB03F2914203D300F021F9FA
:1028E00000202863387D032806D161683A6A891A76
:1028F000292928BF08F10108092806D16068396A2A
:10290000401AF12828BF08F101085FFA88F0002872
:1029100007F110063FD0D5F84C80384600F0E7F9B3
:10292000BBF1000F20690CD0874206D1534640F21C
:1029300089420FF2A06100F087F8F868CBF80C002C
:102940000AE0B84206D0534640F28D420FF2B06121
:1029500000F07AF8F8682061B9F1000F09D0388BDF
:1029600001903B1DF88A00903A46796AE86800F0C9
:10297000B5FE3946D6F80090FFF766FE0020B8F1A4
:10298000000F207021D06FF00C014846C04720781E
:1029900000281AD0D5E6BB46F07AFF68401CF072DA
:1029A000C0B2317B884210D30020F0722070B26F29
:1029B000100007D030685946904721780029E9D1A6
:1029C000002802D1584600F028FDBFE64FF0000B6A
:1029D00067690FF2B0660FF284690FF250650CE080
:1029E000B84205D0534640F2CF42314600F02CF8B1
:1029F000F86860613946FFF727FE1FB3387D0A2863
:102A000005D0534640F2BD42294600F01DF86068EB
:102A1000396A401AF12812D3384600F068F9606923
:102A2000BBF1000FDCD0874205D1534640F2CB42C8
:102A3000494600F009F8F868CBF80C00DAE7BB4625
:102A4000FF68DAE7BDE8F78F0FF2284001F0D6BA49
:102A500070B5A14C6078401C6070256922E06877F1
:102A6000A87EC10709D540F00200A876284600F0EC
:102A7000D4FCA87E00F0FC00A876A87E010705D54E
:102A800000F0F700A8762846FFF7F1FCEE68686FC3
:102A900038B100202070284600F00CF8207800287B
:102AA000DBD135462DB16078697F8142D7D1ED68A1
:102AB000F8E770BDF8B504460020676F7E7BD4F858
:102AC00080506067280005D0206900233A462146DF
:102AD000A84705E000233A462146002000F04AF8C6
:102AE0006FF00C0598B9B00619D5208DB0F5066FBA
:102AF0001CBF401C2085D4F8807038000FD020699E
:102B0000002300222146B847A84208D101E0A8428C
:102B100001D12846F2BD67676FF00400F2BD0020C6
:102B2000F2BD10B5002803E0046800F003F82000AF
:102B3000FAD110BD10B5040009D0606808B1FFF7E4
:102B40003CF82146BDE81040032001F067B810BDF5
:102B500038B50446032001F034F8050001D1002007
:102B600032BD1022214601F061FF6868FFF791F83D
:102B7000284632BD10B51400084607D02189FFF75A
:102B80008FFD2046FFF719F8002010BD002BFBD168
:102B9000BDE81040FFF7C4BC70B5082818BF09286D
:102BA000044609D00FF2F4230FF200510FF2C420B3
:102BB00040F2DC5201F022FA474A1369002100205A
:102BC0000AE01D7DA54206D155681E6AAD1B8D42E7
:102BD00024BF29461846DB68002BF2D120B1BDE89E
:102BE00070400021FFF7A5BC70BDF8B5054600F0A8
:102BF0007BF80600384C40D162690021002007E0D4
:102C00006368166A9B1B8B4224BF19461046D26824
:102C1000002AF5D108B1FFF715FD00F065F80600B0
:102C20002BD10920FFF7B8FF00F05EF8060024D191
:102C30000820FFF7B1FF00F057F806001DD1802DE6
:102C4000ACBF7F2129462369002200200DE05E7D74
:102C5000B14221BF6768D3F820C0A7EB0C079742A9
:102C600002D33A4618463146DB68002BEFD108B153
:102C7000FFF7E8FC00F038F806463EB398213046EE
:102C800001F010FF06F10A0006F16001C5724FF471
:102C9000866206F120030A804FF406655D811D817E
:102CA000FF2505704FF406755D8206251D84DD83C2
:102CB0004FF0FF351D8201251D8565681D60647814
:102CC000C4745A8568480862684808633046F2BD93
:102CD0000000000040AE0020DC010020742E00083F
:102CE0009C2E00084CAD0020012000F06ABF38B5D2
:102CF00000F11405297800291CBF0A29012919D0DF
:102D000000F16404206918B1FEF757FF002020612C
:102D1000E068FFF706FF0020E0604FF0FF30A88377
:102D20006068FFF7FEFEA068FFF7FBFE0020606012
:102D3000A060208031BD70B50C460168A14203D16E
:102D4000C968016006E0014621B1C868A042FAD115
:102D5000E068C8600020E0602046FFF7C8FF207DE3
:102D60000A280DD001282DD0A07EC10705D540F03E
:102D70000200A076204600F050FB207D012821D0E3
:102D8000A06E0FF2F0050FF2141638B1334640F280
:102D900053720FF22831284601F030F9E06E38B155
:102DA000334640F254720FF22C31284601F026F9D6
:102DB000206F38B1334640F256720FF23431284654
:102DC00001F01CF900202075E08270BD2849886957
:102DD0004A6810188861704710B50446084601F02B
:102DE00065FE40B1B0F92200010004D0283880B25D
:102DF000844288BF0446204610BD38B504460846C4
:102E000000E0284638B101682268C568914208BFD1
:102E1000FFF718FCF5E731BD70B504001CBF206852
:102E200000280D4619D0124E31692046FFF7E5FF04
:102E3000B1682046FFF7E1FF002D1CBF286800287D
:102E40000BD0F068002807E002682368C1689A4246
:102E500004BF2A6802600800F6D170BD00000000BF
:102E6000B84C0A00F8240100752B000800DD6D0045
:102E7000DC010020417373657274696F6E20222536
:102E80007322206661696C6564206174206C696ED0
:102E90006520256420696E2025730A00443A5C5041
:102EA000726F6A656374735C50726F6D65742D53D5
:102EB0005C4574683432375C4D6964646C65776175
:102EC0007265735C54686972645F50617274795C96
:102ED0004C7749505C7372635C636F72655C7463BA
:102EE000702E63006E65775F7263765F616E6E5FF2
:102EF000776E64203C3D2030786666666600000090
:102F0000646F6E27742063616C6C207463705F72F1
:102F1000656376656420666F72206C697374656E94
:102F20002D706362730000007463705F7265637676
:102F300065643A206C656E207772617070656420FC
:102F40007263765F776E640A000000007463705FDE
:102F5000736C6F77746D723A206163746976652063
:102F60007063622D3E737461746520213D20434C73
:102F70004F5345440A0000007463705F736C6F77B1
:102F8000746D723A20616374697665207063622D96
:102F90003E737461746520213D204C495354454E65
:102FA0000A0000007463705F736C6F77746D723A1F
:102FB00020616374697665207063622D3E7374616D
:102FC000746520213D2054494D452D574149540AEF
:102FD000000000007463705F736C6F77746D723AF9
:102FE000206D6964646C652074637020213D2074D9
:102FF00063705F6163746976655F7063627300001C
:103000007463705F736C6F77746D723A2066697267
:10301000737420706362203D3D207463705F616350
:10302000746976655F706362730000007463705F3B
:10303000736C6F77746D723A2054494D452D57412A
:103040004954207063622D3E7374617465203D3D68
:103050002054494D452D5741495400007463705F19
:10306000736C6F77746D723A206D6964646C65205F
:1030700074637020213D207463705F74775F7063A8
:10308000627300007463705F736C6F77746D723A73
:1030900020666972737420706362203D3D20746302
:1030A000705F74775F70636273000000696E7661B1
:1030B0006C6964207374617465000000756E7365DB
:1030C0006E74207365676D656E7473206C65616BDB
:1030D000696E6700756E61636B6564207365676D0B
:1030E000656E7473206C65616B696E67000000002B
:1030F0006F6F736571207365676D656E7473206C97
:1031000065616B696E67000001020304050607072D
:10311000070707070700000003060C183060780057
:103120002DE9F0410D4604461046401900F1140106
:103130009846002289B20120FEF75AFB07002ED0E4
:10314000788905F11401884204DA00F00FFB73223C
:1031500000F054FF7E68E08AFFF7C0F830802D064B
:10316000208BFFF7BBF87080C6F80480606AFFF719
:10317000BAF8B060A80E401D000340F0100080B205
:10318000FFF7ACF8B081608DFFF7A8F8F081002060
:1031900030827082618D606A10FA81F0E062384698
:1031A000BDE8F08138B50446A56EA5B100F034FA4B
:1031B000E86800F038FA072108420CD10120FFF737
:1031C0008DF8E9688A8910438881A07E40F020004C
:1031D000A076002032BD2046BDE83440012163E0E6
:1031E0002DE9F047089C8146E0074CBF04270027E3
:1031F0000E4692469846032000F0E3FC050003D1FA
:103200003046FEF7DAFC1AE0AC72002028606E60EF
:103210003089B84208D20FF294730FF274010FF2A2
:103220003470BA2200F0EAFE3089C01B28811421D4
:103230003046FEF7C0FC20B12846FFF77BFC00209B
:1032400023E068684068E860B9F81600FFF746F8C0
:10325000E9680880B9F81800FFF740F8E968488085
:103260004046FFF740F8E9684860781007EB907037
:103270008010401D4AEA003080B2FFF72FF8E9685D
:1032800088810020E96848822846BDE8F087000070
:10329000702D3E746F745F6C656E203E3D206F70C4
:1032A000746C656E000000002DE9F84F04460D4671
:1032B0000027032005420FF29C680FF2F06906D147
:1032C0004B4640F21B320FF2307100F077F804F1F8
:1032D00058067089092803DA4FF6FD71884201D338
:1032E000E80721D5A80746BF01274FF0040ABA46D0
:1032F000002251460020FEF77BFA5FEA000B13D054
:10330000BBF80A00504506D24B4640F241320FF25C
:10331000407100F053F800972A463368594620461A
:10332000FFF75EFF070006D1A07E40F08000A07688
:103330004FF0FF3040E0387B10F0030006D04B46E2
:1033400040F249320FF2447100F038F8388930B158
:103350004B4640F24A320FF24C7100F02FF83069C0
:1033600010B9376104E0084601680029FBD1076005
:103370000020B0810320054202D03068401C30603C
:10338000E80703D5A07E40F02000A0767868FEF71D
:1033900078FC71894018708180B260B17069002832
:1033A00004BF3069002806D14B4640F26D320FF25F
:1033B000207100F003F80020BDE8F28F404600F0D5
:1033C0001DBE70B5044684B0E06CFEF78CFF00F0C3
:1033D00061FA050006D1A07E40F00300A0766FF0F0
:1033E000010018E0201D01F061FB10B96FF0030629
:1033F00005E000F044FA607A00F047FA06462846F5
:10340000FEF7DBFBA07E002E14BF40F0030000F0AF
:10341000FC00A076304604B070BD2DE9F04F0446A4
:1034200083B0207D0FF22C590FF2805A012807D16A
:10343000534640F2ED320FF2C061484600F0DEFD27
:10344000A2480068A04200F0DC8004F14807B88A76
:103450003988884234BF01900191A07E3E6A80077E
:1034600009D526B100F036F900F0CEF803D2204697
:10347000BDE8FE4FA5E77D6A0DB100F0CDF8201D37
:1034800001F014FB5FEA000807D0002C1CBF206885
:10349000002807D118F1040002D16FF00300B1E059
:1034A00000682060002E14D000F014F900F0ACF891
:1034B00010D208000ED0B98A884204BF786A00286A
:1034C00008D104F194004178002902D10170012152
:1034D00041708FE000F0FEF800F096F8F9D300F0AC
:1034E000A1F8400707D5534640F246420FF230613B
:1034F000484600F083FD786A98B1A17E44221142CB
:103500000FD1386A28B102685AB90089628E904298
:1035100007D2388B28B1788B092802DAA022114211
:1035200068D0207D022806D01020FEF7D7FEF16873
:103530008A891043888142462146304600F076F859
:1035400020B1A17E41F08001A1765BE03068386255
:10355000207D022803D0A07E00F0FC00A07600F0C1
:10356000B9F8834600F05EF8318910F0030018BF07
:1035700001201BFA81F140187968091A48BF786068
:1035800000F050F810F00300318918BF012010FA44
:1035900081F040B300203060786A08B97E6220E094
:1035A00000F098F88346E86800F095F8BBEB00005F
:1035B00016D504F16C0B01E0DBF800B0DBF800007D
:1035C00040B1C06800F087F8009000F083F80099DF
:1035D000081AF1D4DBF800003060CBF8006005E099
:1035E0002E60354602E03046FFF7A4FA3E6A002E10
:1035F0007FF470AF386A00B9B883A07E00F07F0016
:10360000A0760020BDE8FE8F626C0199801A328995
:1036100010FA82F08142704700E0054628680028D1
:10362000FBD17047F0688089FEF758BEFEB50646AC
:103630000C467068C0890128154601D00020FEBDE7
:10364000606AFEF750FEF1688860608DFEF746FE06
:10365000F168C881606A628D10FA82F0E06201F15F
:103660001407B07AC00709D5211D4FF40670FFF783
:10367000B3FB40F00170FEF736FE3860B4F930005D
:10368000002844BF00202086606B28B910480068DD
:10369000606300F01FF8A0637068F16842684389B6
:1036A00041608A1A92B29B1A438103899A1A028155
:1036B00000220A82062101910295221D617A009161
:1036C0002146A37A01F0B9FAFEBD00004CAD0020FE
:1036D000E0010020F0684068FEF705BE2DE9FE43DA
:1036E0008046894614461D46002214210120FEF71B
:1036F0007FF8060038D07089142805D200F036F81B
:1037000040F24D5200F07AFC77680A98FEF7E6FD29
:1037100038800B98FEF7E2FD78804046FEF7E3FD27
:1037200078604846FEF7DFFDB86045F21400FEF70A
:10373000D5FDB88146F20800F881002038827882F1
:10374000284601F0B3F950B10290FF230620019002
:103750002A46002000902146304601F06EFA30469D
:10376000BDE8FE43FEF729BABDE8F7830FF23C231C
:103770000FF208210FF2DC10704700F134018A6B60
:103780000AB970471A461368002BFBD14B6B1360C4
:103790008A6B4A6300228A638A7BFF2A1CBF521C01
:1037A0008A7300220A6038E6F8B500F13404A56B8C
:1037B000EDB12968A16300F1680600E03668306861
:1037C00040B1C068FFF787FF0746E868FFF783FF4F
:1037D000381AF3D4306828603560286800B920862C
:1037E000A07BFF281CBF401CA07300202060F1BDFF
:1037F00038B500F15C05296909B300F11A04217894
:1038000049071CD4FFF7D0FFE08D2988884228BFE4
:10381000084600EBD070C003218B000CB0EB410FC9
:1038200038BF4800208601EB4101208E11FA80F05C
:10383000E085207840F0040020700020E08231BD57
:103840003EB50446E06C401EFEF74DFD00F022F848
:10385000050002D14FF0FF303EBD201D01F026F9DA
:1038600010B96FF0030405E000F009F8002000F043
:103870000CF804462846FEF7A0F920463EBD02900B
:10388000221D062001902146704700902846A37A09
:1038900001F0D3B90346002200212046FFF740BCC7
:1038A0002DE9F041054684B0EE6E06B9AE6E0EB954
:1038B00000204CE0FFF7B6FEC00704D53089441E57
:1038C000A441E40F00E00024F068436884F00102A2
:1038D00000212846FFF724FC5FEA000808BF4FF0EC
:1038E000FF3034D0D8F804704CB11120FEF7F6FC4C
:1038F000B9894CF2FF0211400843B88109E07068B1
:10390000328901898B1A9BB2012207F11401FEF75B
:103910008FFAFFF7DFFEE96C401C091A48BFE86424
:10392000281D01F0C3F810B96FF003050BE00290F9
:103930002A1D062001902946002000904046AB7ABF
:1039400001F07BF905464046FEF737F9284604B0FA
:10395000BDE8F081417373657274696F6E20222532
:103960007322206661696C6564206174206C696EE5
:103970006520256420696E2025730A0063686563ED
:103980006B2074686174206669727374207062754C
:10399000662063616E20686F6C6420737472756357
:1039A00074207463705F686472000000443A5C5075
:1039B000726F6A656374735C50726F6D65742D53BA
:1039C0005C4574683432375C4D6964646C6577615A
:1039D0007265735C54686972645F50617274795C7B
:1039E0004C7749505C7372635C636F72655C74639F
:1039F000705F6F75742E63007463705F656E7175B0
:103A00006575655F666C6167733A206E65656420F5
:103A1000656974686572205443505F53594E206F36
:103A200072205443505F46494E20696E20666C6197
:103A30006773202870726F6772616D6D6572207692
:103A4000696F6C6174657320415049290000000062
:103A50007463705F656E71756575655F666C6167CF
:103A6000733A20636865636B2074686174206669CB
:103A700072737420706275662063616E20686F6C6B
:103A800064206F70746C656E000000007365672DB4
:103A90003E746370686472206E6F7420616C696735
:103AA0006E6564007463705F656E71756575655FE2
:103AB000666C6167733A20696E76616C6964207325
:103AC00065676D656E74206C656E677468000000D4
:103AD0007463705F656E71756575655F666C61674F
:103AE000733A20696E76616C6964207175657565DD
:103AF000206C656E67746800646F6E277420636164
:103B00006C6C207463705F6F757470757420666F71
:103B100072206C697374656E2D70636273000000AF
:103B2000525354206E6F74206578706563746564B9
:103B3000206865726521000010B5816800220A6066
:103B400000234268D21C9208920005E00C681460C1
:103B50000A605B1C0488A2184488A342F6DB10BDEF
:103B600038B500240FF2D01555F82400FFF7E4FF14
:103B7000641C0D2CF8D331BD38B5044600F0D1FAE1
:103B80000546A06804689CB12168016014F0030038
:103B900009D00FF2FC030FF2D4010FF2A80040F29B
:103BA000491200F02BFA284600F0C8FA204632BD30
:103BB000284600F0C3FA002032BD00F01FFA0020B2
:103BC00002BD80B50D2808DB0FF2C4030FF20C1103
:103BD0000FF2700040F28712EFE70FF25C1151F81C
:103BE0002000BDE80240C7E738B504460D4615F091
:103BF000030009D00FF298030FF200110FF24400F6
:103C000040F29D1200F0FAF900F08BFAA1680A6800
:103C10002A600D60BDE8324000F090BA0D2809DB43
:103C20000FF26C030FF2F4010FF2180040F2DB12F6
:103C300000F0E4B921B10FF2001252F82000D3E7EE
:103C400070470000417373657274696F6E2022259E
:103C50007322206661696C6564206174206C696EF2
:103C60006520256420696E2025730A006D656D70DE
:103C70005F6D616C6C6F633A206D656D7020707262
:103C80006F7065726C7920616C69676E65640000A5
:103C9000443A5C50726F6A656374735C50726F6D06
:103CA00065742D535C4574683432375C4D696464C7
:103CB0006C6577617265735C54686972645F5061AA
:103CC0007274795C4C7749505C7372635C636F7299
:103CD000655C6D656D702E63000000006D656D7034
:103CE0005F6D616C6C6F633A2074797065203C2065
:103CF0004D454D505F4D4158000000006D656D70A1
:103D00005F667265653A206D656D2070726F7065D3
:103D1000726C7920616C69676E6564006D656D70A9
:103D20005F667265653A2074797065203C204D4568
:103D30004D505F4D415800003CC4000848C4000885
:103D400054C4000860C400086CC4000878C40008AB
:103D500084C4000890C400089CC40008A8C40008DB
:103D6000B4C40008C0C40008CCC4000880B5FEF785
:103D7000C8FA67480068002802BF66480068002843
:103D800002D0BDE8084011E06349086001BD624807
:103D9000016851B95E490968002902BF5D49096897
:103DA000002902D00121016000E0704700225B4938
:103DB000FA201EE010B50446606880472068584924
:103DC0002246BDE8104014E038B5554C0FF21425DA
:103DD00005F1080200F009F805F1100200F005F8FD
:103DE00001F002FA4F49486031BD21464FF47A7024
:103DF000FFE7F8B504460E4617460A20FFF7E1FE36
:103E000005000BD101B0BDE8F0400FF288130FF2AE
:103E100044110FF21810D42200F0F0B801F0E4F9C8
:103E2000404A1168002907BF002350605368C31A35
:103E300000202860AE601819EF60686029B14868FA
:103E4000844204D2001B486029601560F1BD084619
:103E500000E010466A684368D31A6B60026812B1CA
:103E60005668B342F5D21AB15168C91A516004E0DC
:103E70009C4202D24968091969602A600560F1BD57
:103E80002DE9F04780468946DFF89CA0254F386829
:103E900030B949464046BDE8F047002200F0E7B897
:103EA00001F0A2F97968401A39684968814208D35B
:103EB0000A1A06D04946404600F0D9F810F1010F21
:103EC00023D138680028E4D001F08EF97968441ACB
:103ED00039680029DBD048688442E1D37A688018C9
:103EE00078604868241A086838608D68CE680A20AF
:103EF000FFF794FE002DEBD0504600F0F6F8304668
:103F0000A847504600F0F6F8E2E7BDE8F087000069
:103F1000EC010020F001002034AE00206D3D0008CF
:103F2000B53D0008E4AD0020CCAD002041737365C1
:103F30007274696F6E2022257322206661696C6538
:103F400064206174206C696E6520256420696E2090
:103F500025730A007379735F74696D656F75743AC0
:103F60002074696D656F757420213D204E554C4C51
:103F70002C20706F6F6C204D454D505F5359535F2F
:103F800054494D454F555420697320656D707479BF
:103F900000000000443A5C50726F6A656374735CA1
:103FA00050726F6D65742D535C4574683432375CA4
:103FB0004D6964646C6577617265735C546869729D
:103FC000645F50617274795C4C7749505C737263C2
:103FD0005C636F72655C74696D656F7574732E6375
:103FE00000000000FA00000003230008E8030000BE
:103FF000B9660008E803000059A100080EB400B536
:1040000082B003A90091024600AB01210348784425
:104010000A3001F02FF906BC5DF810FB0B88000098
:104020001CB504460FF22810D0E90023CDE9002387
:10403000009100A8002102F0A4FA206000B951E02C
:10404000002016BD38B504460D4620684FF0FF32FB
:10405000294602F09BFA0028F7D131BD80B50068EF
:10406000002202F093FA08B14FF0FF3002BDFEB516
:1040700004460D46164602F0BAF9074656B12168C5
:10408000324600A802F0B0FA0098102808D04FF08D
:10409000FF30FEBD21684FF0FF3200A802F0A4FA05
:1040A0000198286002F0A3F9C01BFEBDFFE700687D
:1040B00000B10120704780B50FF29C0002F0C2F9F8
:1040C0001D49086001BD10B504460FF2800000686C
:1040D00082B0009000A802F0B5F9206000B901E0BC
:1040E000002016BD4FF0FF3016BD00684FF0FF31C5
:1040F00002F0ABB926E0F0B585B006460F4614468F
:104100001D4600A8142100F0CDFC0A98ADF8080067
:10411000009601970495214600A802F075F905B0B4
:10412000F0BD80B5044800684FF0FF3102F08DF912
:10413000012002BD0000000030AE0020004801E078
:1041400030AE0020006802F0A0B9000000000000BE
:10415000000000000400000000000000F8B5704CF2
:10416000216808001CBF6068884704F10C00FFF755
:10417000BCFF0FF2BC150FF2E0160FF2FC1705E0C2
:104180003B46692231462846FFF738FF04F10C0010
:10419000FFF7B0FF00A904F10800FFF771FE04F17A
:1041A0000C00FFF7A2FF00980028E9D00078022851
:1041B00004D016D3042811D00BD312E00098009A33
:1041C00081684068D268904700990920FFF726FD72
:1041D000DCE700F009F800990820F7E700F004F8A0
:1041E000D4E73B469B22CDE7009800998068496858
:1041F00008472DE9F04100F04FF820B900F055F8DC
:10420000B522FFF7FBFE0920FFF7DBFC07000ED00D
:10421000022038707C60BD60FE60394608F10800FD
:10422000FFF71CFF28B139460920FFF7F7FC4FF0D4
:10423000FF30BDE8F08191F82B2018231A4214BFFB
:10424000384A394AD5E72DE9F04100F025F820B980
:1042500000F02BF8EE22FFF7D1FE0820FFF7B1FCAB
:10426000070002D14FF0FF300BE0032038707C6074
:10427000002EBD60394608F1080004D0FFF7E2FEC9
:104280000020BDE8F081FFF7E9FE0028F8D03946AC
:104290000820FFF7C3FCE5E70446DFF884800D46FD
:1042A000164608F10800FFF701BF0FF2CC030FF22A
:1042B00014110FF27C00704770B582B004460D46B1
:1042C00002F0CDF9164E06213460756006F1080043
:1042D000FFF7A6FE0FF258040FF29C0538B12B46EB
:1042E00040F2D5120FF2EC012046FFF787FE06F1EF
:1042F0000C00FFF7E8FE38B12B4640F2D9120FF25E
:10430000F8012046FFF77AFE032000904FF4806307
:10431000002206490FF20410FFF7EDFE73BD000006
:10432000C0AD0020B9AD0008FD4A00085D4100089D
:10433000417373657274696F6E2022257322206643
:1043400061696C6564206174206C696E6520256408
:1043500020696E2025730A0074637069705F746849
:10436000726561643A20696E76616C6964206D657E
:104370007373616765000000443A5C50726F6A6550
:104380006374735C50726F6D65742D535C45746813
:104390003432375C4D6964646C6577617265735C57
:1043A00054686972645F50617274795C4C774950EB
:1043B0005C7372635C6170695C74637069702E63B6
:1043C00000000000496E76616C6964206D626F7850
:1043D000000000006661696C656420746F20637280
:1043E000656174652074637069705F74687265617B
:1043F00064206D626F7800006661696C656420748A
:104400006F20637265617465206C6F636B5F7463AA
:104410007069705F636F726500000000746370699B
:10442000705F74687265616400000000F8B5DFF8C1
:10443000B4530FF2C8360FF204470446286884428A
:1044400006D23B4640F25D120FF2D83100F043F83D
:104450006868844206D33B464FF4AF720FF22441A2
:1044600000F039F8207930B13B4640F25F120FF28C
:10447000304100F030F82088B0F5C86F06D93B46CF
:104480004FF4B1720FF2344100F025F8286821880A
:1044900009188C420ED00A7962B96A68914209D033
:1044A000AA688A4208BFAC600A882280221A09885A
:1044B00009184A8061880918A1420BD00A794AB9C3
:1044C000AA68A24208BFA96022880A80091A228825
:1044D00010184180F1BD3046FFF790BDC14810B5BE
:1044E00000F10F0189080023890001604B800B71E6
:1044F0004FF4C8620A8001F5C863436001241C714F
:104500001A805A80816000F5CC60FFF7DCFD58B15D
:10451000BDE810400FF224330FF2CC310FF2DC2053
:104520004FF4CC72FFF76ABD10BD2DE9F0410600D3
:1045300047D016F003000FF2C4240FF2003507D065
:104540002B464FF4D6720FF2BC312046FFF756FDD2
:10455000A44F3868864202D37868864207D32B4638
:1045600040F2AF120FF2C0312046FFF747FD386826
:10457000864202D37868864205D3FFF7D2FDBDE8B4
:10458000F041FFF7DBBD07F5CC684046FFF7ADFD16
:10459000083E307938B92B464FF4E0720FF2A03163
:1045A0002046FFF72BFD00203071B868864238BFE7
:1045B000BE603046FFF73AFF4046BDE8F041FFF7E6
:1045C00099BDBDE8F0812DE9F0478046C81C00F098
:1045D0000BF938BF0C2502D3B5F5C86F31D8814E21
:1045E0000FF2582A3068804502D37068804508D39E
:1045F00053464FF4FA720FF25C310FF20020FFF7CE
:10460000FDFC3068804502D37168884504D3FFF70C
:1046100088FDFFF793FD53E0A8F108073C1A38889E
:10462000001B08381FFA80F9A94508DA534640F202
:1046300006220FF238310FF2C410FFF7DFFCA94554
:1046400001DA00203DE04D453AD006F5CC6A5046EF
:10465000FFF74BFD30683988B3680A18291992F8BA
:1046600004C00831BCF1000F12D1158889B201EBEA
:10467000000C934208BFC6F808C000238CF8043031
:10468000ACF80050ACF802403980BCF800200FE0D4
:1046900005F11402914510D389B20A189A4238BF25
:1046A000B260002313713B881380548039801288D4
:1046B000B2F5C86F1CBF101841805046FFF71AFDB5
:1046C0004046BDE8F0872DE9F84398B1C01C00F0E2
:1046D0008BF80CD20C25434C04F5CC684046FFF710
:1046E00004FDA0682168421A92B22E4606E0B5F594
:1046F000C86FF0D90020BDE8F2831A88C6F5C863F8
:104700009A426AD253181F4697F804C0BCF1000FB2
:10471000F3D1B7F800C0ACEB020CACF1080CB44517
:10472000EBD306F114039C4516D3AB1808339BB2A8
:104730005D184FF0000E85F804E0B7F800E0A5F82A
:1047400000E06A803B8001223A712A88B2F5C86F86
:1047500004D05218538001E001223A7187420FF2CF
:104760009C050FF2D80915D101E0008840180279A4
:10477000002A1CBF63689842F7D16168A060884234
:1047800018BF002A06D04B4640F2CF220FF2FC1190
:1047900000F030F84046FFF7ADFC6068F1190831D1
:1047A000884206D24B464FF435720FF2FC1100F0EE
:1047B00021F817F003000DD04B4640F2D6220FF23D
:1047C000182100F017F84B464FF436720FF23821DB
:1047D00000F010F807F108008DE74046FFF78AFC6B
:1047E00088E70000309500204FF6FC7101EA0005D3
:1047F0000C2D70472846FFF701BC0000417373651C
:104800007274696F6E2022257322206661696C655F
:1048100064206174206C696E6520256420696E20B7
:1048200025730A00706C75675F686F6C65733A205A
:104830006D656D203E3D2072616D0000443A5C5014
:10484000726F6A656374735C50726F6D65742D531B
:104850005C4574683432375C4D6964646C657761BB
:104860007265735C54686972645F50617274795CDC
:104870004C7749505C7372635C636F72655C6D6505
:104880006D2E6300706C75675F686F6C65733A209E
:104890006D656D203C2072616D5F656E6400000087
:1048A000706C75675F686F6C65733A206D656D2D10
:1048B0003E75736564203D3D20300000706C756767
:1048C0005F686F6C65733A206D656D2D3E6E65781F
:1048D00074203C3D204D454D5F53495A455F414C46
:1048E00049474E45440000006661696C6564207468
:1048F0006F20637265617465206D656D5F6D7574A1
:10490000657800006D656D5F667265653A2073615C
:104910006E69747920636865636B20616C69676E8A
:104920006D656E74000000006D656D5F6672656593
:104930003A206C6567616C206D656D6F727900005F
:104940006D656D5F667265653A206D656D2D3E75AE
:10495000736564006D656D5F7472696D3A206C6596
:1049600067616C206D656D6F727900006D656D5FBC
:104970007472696D2063616E206F6E6C792073684C
:1049800072696E6B206D656D6F7279006D656D5F1C
:104990006D616C6C6F633A20216C667265652D3EAB
:1049A00075736564000000006D656D5F6D616C6C12
:1049B0006F633A20616C6C6F6361746564206D6530
:1049C0006D6F7279206E6F742061626F76652072F0
:1049D000616D5F656E642E006D656D5F6D616C6C01
:1049E0006F633A20616C6C6F6361746564206D6500
:1049F0006D6F72792070726F7065726C7920616C66
:104A000069676E65642E00006D656D5F6D616C6C2D
:104A10006F633A2073616E69747920636865636BB4
:104A200020616C69676E6D656E74000062B38B0700
:104A300008D0521E11F8013B00F8013B00F0248021
:104A40008B07F6D1830740F0208000BF103A07D3D0
:104A500030B4B1E83810103AA0E83810F9D230BCC0
:104A6000530724BFB1E80810A0E8081044BF51F86C
:104A7000043B40F8043BD20724BF31F8022B20F856
:104A8000022B44BF0B7803707047083A07D3B1E894
:104A90000810083A40F8043B40F804CBF7D253071B
:104AA000E4E70000002201F0EDBD000070B59E4972
:104AB00005680968A9B191F82B2002F00503052BC0
:104AC000F7D14B68002BF4D08C6804EA050623402C
:104AD0009E4204D09207ECD4CA689542E9D10846B8
:104AE00070BD9248006838B190F82B1001F00501B4
:104AF000052901D1416801B9002070BD2DE9F84FA9
:104B00000446884666683078010904295AD100F0C5
:104B10000F004FEA800A7088FDF7E0FB0546208908
:104B2000854203D229462046FCF790FF6089504514
:104B300024BF2089A84245D3BAF1140F42DB306963
:104B40007B4D686100F0F000F1682961E02808D130
:104B500098F82B00C0071CD5D8F80400C8B1474608
:104B600024E04FF001094746DFF8BCB197F82B006D
:104B7000C00708D5796831B16869884216D03946CE
:104B8000FCF7E8FD90B9B9F1000F09D0287D7F2826
:104B900001D100270AE0DBF800704FF0000900E0C7
:104BA0003F68474508BF3F68002FDFD1286941466D
:104BB000FCF7D0FD30B9287C00F0F000E02818BFE9
:104BC000002F03D12046FCF7F8FF09E0F0884FF6EC
:104BD0003F71084207D0204601F003FF040001D1D5
:104BE000002028E066682F60C5F80480AE60CAF136
:104BF0000001307800F00F008000A88109B2204643
:104C0000FCF7D9FF707A062806D0112809D1414651
:104C1000204602F0A0F907E041462046FBF7C6FA1D
:104C200002E02046FCF7C9FF002028606860A86009
:104C3000A88128616861BDE8F28F3EB5089D0C46E9
:104C400022B100291ABF096800292C1D079901917A
:104C5000029506990091214600F001F83EBD2DE92C
:104C6000F047044682B0E0890FF2D0090FF2001A33
:104C700001280D4690461E4607D0534640F2333277
:104C80000FF2E0014846FFF7B9F9B8F1000F34D050
:104C900014212046FCF78FFF10B16FF0010041E0B6
:104CA00060896768142807D2534640F261320FF2D8
:104CB00010114846FFF7A2F93E720B981D4E78720C
:104CC000D8F800003861452038700A98787020893B
:104CD000FDF704FB78800020F8803088FDF7FEFAAD
:104CE000B8803088401C3080002D06BF1248006814
:104CF0002868F8600020788104E06068006900900E
:104D00000DF100080C98418C41B12289914205D2E5
:104D100001464246204601F047FF03E04369424610
:104D200021469847BDE8F687D4AD0020D8AD0020D5
:104D3000A8AD00203CAE002088C800084173736510
:104D40007274696F6E2022257322206661696C651A
:104D500064206174206C696E6520256420696E2072
:104D600025730A00702D3E726566203D3D2031009E
:104D7000443A5C50726F6A656374735C50726F6D15
:104D800065742D535C4574683432375C4D696464D6
:104D90006C6577617265735C54686972645F5061B9
:104DA0007274795C4C7749505C7372635C636F72A8
:104DB000655C697076345C6970342E6300000000B5
:104DC000636865636B2074686174206669727374CC
:104DD00020706275662063616E20686F6C6420735A
:104DE00074727563742069705F68647200000000FB
:104DF0000068DFF8C813884200D0704700B587B05C
:104E000000200090DFF8B803016841F000710160F4
:104E1000016801F0007100F04FF841F0806101601D
:104E2000016801F0806100F047F841F00061016025
:104E300001A9006800F00060009000980420019033
:104E40000220029000200390032004900B20059084
:104E5000DFF8700302F064F94FF4806000F032F87C
:104E6000DFF8640302F05CF93E2000F02BF8DFF875
:104E70005C0302F055F98F2000F024F8DFF85003AE
:104E800002F04EF942F2030000F01CF8DFF8440390
:104E900002F046F94FF4205000F014F8DFF8380320
:104EA00002F03EF9002205213D2002F059FA3D2092
:104EB00002F073FA07B000BD009100990021009143
:104EC00001687047019001A9022002900020039020
:104ED000032004900B2005907047C048806C01F0BF
:104EE0002EBB70B58AB00446002000908021BB4DD7
:104EF000B248286004F12206002068604FF4804028
:104F0000A8604FF40060E8600120288200208DF83E
:104F1000080002A868614170E12181700021C17020
:104F200081800120A861E9612962284602F04AFADD
:104F300018B9707A40F00400707205F5C852042365
:104F40001C3205F1CC01284602F015FB042305F5BF
:104F5000A67205F14C01284602F043FB0620B07012
:104F6000012168690078F07068694078307168697B
:104F7000807870716869C078B07168690079F07183
:104F800068694079307240F2DC503080707A40F0CD
:104F90000A0070720FF254200068019001A801F01D
:104FA0008CFAA864142204A80FF2B421FFF74EFD76
:104FB000214604A801F028FA284602F09FFC00AA26
:104FC0001121284602F02BFC009840F003000090CD
:104FD0001121009A284602F05DFC00AA1221284601
:104FE00002F01DFC009840F0200000901221009A71
:104FF000284602F04FFC0AB070BD2DE9F84F774803
:10500000C56AAE684FF0000800270C4607E06168EB
:105010004A465144FFF70AFD24685F46C8444CB332
:105020002868002823D4B4F80A904FF0000A0CE056
:10503000A7F2F45081440AF2F450A0EB070A08F2F8
:10504000F450AE68A0EB07080027B81907EB090B6E
:1050500040F2F5518B45DAD340F2F451CA1B616836
:105060005144FFF7E3FCED6828680028E0D56FF0B5
:10507000070004E04146594802F0EDFA0020574984
:10508000096801F58051091D0A69920603D520229D
:105090000A6100220A60BDE8F28F2DE9F84F4F4EF9
:1050A0003046002402F049FB4FF00009A04608B149
:1050B00000204CE0F16B306C009089B269B30322A0
:1050C0000420FCF795FB5FEA000926D0356B4F46BC
:1050D000B7F80AA0C3460FE040F2F452121BFFF7E4
:1050E000A5FCED68A8680090A4F2F45082440BF28D
:1050F000F450A0EB040B002400997868611804EBCD
:105100000A0240F2F5539A425844E5D25246FFF75C
:105110008DFC3F68002F5444DAD1356B06E02868D7
:1051200040F00040286008F10108ED68B06B804550
:10513000F5D30020B063306800F580500830C168B6
:10514000090603D58021C160002101604846BDE801
:10515000F28F38B504462148806C4FF0FF3101F0E2
:10516000BFF90028F7D12046FFF797FF0500F2D0DE
:105170002269214690470028F5D02846FCF71DFDFE
:10518000F1E710B5040009D10FF29C030FF288017A
:105190000FF25C0040F27522FEF730FF04F11400BC
:1051A00073210176742141760D4901600D494160FA
:1051B0002046FFF796FE002010BD00000080024050
:1051C0003038024000100240002002400008024037
:1051D000000002400004024000180240403E00204F
:1051E000FFA40008FB4F000802F0A7BC000000006D
:1051F000417373657274696F6E2022257322206675
:1052000061696C6564206174206C696E6520256439
:1052100020696E2025730A006E6574696620213D41
:10522000204E554C4C000000443A5C50726F6A6549
:105230006374735C50726F6D65742D535C45746854
:105240003432375C4C5749505C5461726765745C0A
:1052500065746865726E657469662E63000000008F
:1052600078C8000853510008030000000000000047
:105270005E0100002DE9F04F80460FF21C60A5B0E2
:1052800017461D46D0E90023CDE9122300200491E2
:105290000D900DF1500A6FF0004900E0E719002071
:1052A000ADF8020012AB4FF0FF3239460DF10200AB
:1052B00002F05CFC0446012C04DA3878441EA44158
:1052C000E443E40FBDF8020025280CBFA4F1010B54
:1052D000A346BBF1010F0EDB3E4616F8011B0498F6
:1052E000C0470028049000F0D2820D98401CBBF10A
:1052F000010B0D90F1D1BDF80200252807D1002047
:105300000790089009900A900B900C9005E00028F7
:10531000C4D10D98BDE240F0010017F8011F20290B
:10532000F9D023290DD02B2904D02D2906D03029DE
:105330000AD00CE040F0020080B2EEE740F004003A
:10534000FAE740F00800F7E740F01000F4E72A29F8
:105350000ED12968296051F8042B2960002A0F9288
:1053600004D5514240F004000F9180B27F1C11E03F
:1053700000210F9109E00F99494505D001EB810308
:1053800002EB430130390F917F1C3A78A2F13001D2
:105390000A29F0D339782E2903D04FF0FF310E912E
:1053A0001DE017F8011F2A2907D1296829607F1CF1
:1053B00051F8042B29600E9211E000210E9109E0B2
:1053C0000E99494505D001EB810302EB43013039C9
:1053D0000E917F1C3A78A2F130010A29F0D3ADF882
:1053E00040000FF2BC40397802F0D0FB08B117F84A
:1053F000010B8DF842009DF84200682802BF397801
:105400006829622005D06C2804BF38786C2803D145
:1054100071208DF842007F1C14A8069017F8014BEC
:10542000B4F125002AD01C3800F0CB80001F0228E0
:1054300040F2C780133800F0EC80093800F0C180DA
:10544000801E00F05381401E00F02C81401E022877
:1054500040F2B780001F00F02581401F00F08280DD
:10546000401E00F0D680401E2CD0C01E0BD0801EE7
:1054700000F0CF80C01E00F0CC805AE125208DF8CE
:10548000500001205EE19DF842006C2828682860E9
:1054900014D050F8046B286005960E9C002C04D59F
:1054A000304602F07FFB044606E0224600213046EB
:1054B00002F094FB00B1841B089444E150F8042BE3
:1054C00028602FE1296829603C2451F8040B2960E9
:1054D0000021CDE9020114A80590DDE90201069E34
:1054E00011B908B90E9AB2B10206120FA0EB02125E
:1054F0003032D2B2631E3A2AA8BF2732000940EAEE
:10550000017009099A5508BF00281C4603D0059A66
:10551000A3199A42E8D3A0190590C4F13C010E9852
:105520000891814209DA401A0A904FF6EF71BDF8EE
:1055300040000840ADF8400005E1002840F103813B
:105540009DF8400000F01400102840F0FC800F98F7
:10555000079A801A0A9A801A441A012CC0F2F38022
:105560000A94F0E09DF8420062281AD0682806D01C
:105570006A280CD06C281CD0712808D019E0286843
:10558000286050F8041B28600D980880DBE028682C
:10559000286050F8042B28600D98C117C2E900015B
:1055A000D1E02868286050F8041B28600D98087026
:1055B000C9E02868286050F8041B28600D9808602E
:1055C000C1E02868C01D20F007022A60D2E900016E
:1055D00008322A60CDE90201002902D507982D2161
:1055E0000AE0BDF84000810702D507982B2103E0AF
:1055F000C00705D50798202100F80A10401C079025
:1056000014A8079908180590214602A800F090FBFD
:1056100099E09DF842006C280DD0712818BF6A28C7
:1056200009D12868C01D20F007022A60D2E90001D4
:1056300008322A6005E02968296051F8040B2960C6
:105640000021CDE902019DF84200682803D1DDE97F
:10565000020180B20BE0622803D1DDE90201C0B291
:1056600005E0742818BF7A2804D1DDE90201002181
:10567000CDE902019DF8400000072ED5DDE90201C9
:10568000002908BF002828D044F02000782824D121
:105690000798302100F80A10401C411C079100F8BF
:1056A0000A401AE09DF84200294600F0FDF8CDE9D5
:1056B0000201002902DA07982D210AE0BDF8400016
:1056C000810702D507982B2103E0C00705D507986D
:1056D000202100F80A10401C079014A80799081808
:1056E0000590214602A800F09FFA2CE09DF84200A8
:1056F0006C2809D0012007902868286050F8041B06
:1057000028608DF850101EE02868286001AA50F823
:10571000041B2860ADF804100020ADF806004FF01F
:10572000FF300E9002A9404600F0F5F800280AD597
:10573000ADE025208DF85000012007901CB18AF8BB
:105740000140022007900F980799401A0A99401AC1
:105750000899401A0B99401A0999401A0C99441A51
:105760009DF84000400710D420208DF8000000264E
:1057700009E0012300AA02A9404600F001FE00282A
:1057800040F08580761CA642F3DB079E0DF1500B9E
:105790000AE01BF8011B0498C0470028049076D04B
:1057A0000D98401C0D90761E002EF2D130208DF801
:1057B00000004FF0000B0A9E09E0012300AA02A995
:1057C000404600F0DDFD002861D10BF1010BB3452F
:1057D000F3DB089EDDF814B00AE01BF8011B049807
:1057E000C0470028049052D00D98401C0D90761EA2
:1057F000002EF2D130208DF800004FF0000B0B9EF0
:1058000009E0012300AA02A9404600F0B9FD0028E2
:105810003DD10BF1010BB345F3DB05980899099EC7
:1058200001EB000B09E01BF8011B0498C047049032
:1058300068B30D98401C0D90761E002EF3D13020D9
:105840008DF800004FF0000B0C9E08E0012300AA29
:1058500002A9404600F094FDC8B90BF1010BB34515
:10586000F4DB9DF8400040077FF519AD20208DF84E
:105870000000002600E0761CA642BFF610AD012312
:1058800000AA02A9404600F07BFD0028F3D04FF0AB
:10589000FF3025B0BDE8F08F0000000000000000E0
:1058A000686A6C747A4C0000622826D068281DD083
:1058B0006A2808D06C2827D0712804D0742823D0F7
:1058C0007A280CD020E00868C01D20F0070008608E
:1058D000D0E90023083008601946104670470A686E
:1058E0000A6052F8040B0A60002170470A680A60D7
:1058F00052F8040B0A6000B20BE00A680A6052F822
:10590000040B0A6040B204E00A680A6052F8040B13
:105910000A60C11770472DE9F44F0D4694B0D5F8D1
:1059200030B0BBF1000F804648BF6FF0004B02F073
:1059300081F9696B401801900FF67420D0E90023BB
:10594000CDE9022395F83800400702D40198412898
:1059500006D240200DF1100A01904FF0000909E035
:1059600002F06EF95FEA000AF7D14FF0FF3058E11C
:10597000ABEB040BBBF1010FC0F2CD801498018892
:1059800002AA0DF1010002F0B3F90028044600F16B
:10599000D5801498008810B9641E00F1CF80A3450B
:1059A000C0F2B980686901992218914280F0A18003
:1059B000296AC5F834904042401AA969401A696AB8
:1059C000401AE969401AA96AA0EB010995F8380064
:1059D000400710D420208DF80000002609E00123A4
:1059E00000AA2946404600F0CBFC002840F0A680E3
:1059F000761C4E45F3DB6E6957460BE017F8011B2A
:105A0000A868C0470028A86000F09880E86A401C99
:105A1000E862761E002EF1D130208DF800000027BC
:105A20002E6A09E0012300AA2946404600F0A8FC9E
:105A3000002840F083807F1CB742F3DBAE69EF683B
:105A40000AE017F8011BA868C0470028A86075D0B5
:105A5000E86A401CE862761E002EF2D130208DF8F4
:105A6000000000276E6A08E0012300AA294640468C
:105A700000F086FC002861D17F1CB742F4DBE868A7
:105A8000A969EE690F180AE017F8011BA868C0475A
:105A90000028A86052D0E86A401CE862761E002EFA
:105AA000F2D130208DF800000027AE6A08E0012313
:105AB00000AA2946404600F063FC00283ED17F1C26
:105AC000B742F4DB95F8380040070ED520208DF85A
:105AD0000000002607E0012300AA2946404600F006
