:020000040800F2
:10000000A89201205D520108714001087340010867
:1000100075400108774001087940010800000000A0
:1000200000000000000000000000000071F4000863
:100030007B4001080000000019F400083BD80008CC
:100040008D530108915301089553010899530108F4
:100050009D530108A1530108A5530108A9530108A4
:10006000AD530108B1530108B5530108B953010854
:10007000BD530108C1530108C5530108C953010804
:10008000CD530108D1530108D5530108D9530108B4
:10009000DD530108E1530108E5530108E953010864
:1000A000ED530108F1530108F5530108F953010814
:1000B000FD530108015401080554010809540108C1
:1000C0000D54010811540108155401081954010870
:1000D0001D54010821540108255401082954010820
:1000E00031EB00082D540108315401083554010842
:1000F0007D400108395401083D540108415401086C
:1001000045540108495401084D540108515401084F
:1001100055540108595401085D54010861540108FF
:1001200065540108695401086D54010871540108AF
:100130007554010887400108795401087D5401086D
:100140008154010885540108895401088D5401081F
:100150009154010895540108995401089D540108CF
:10016000A1540108A5540108A9540108AD5401087F
:10017000B1540108B5540108B95401080000000049
:10018000BD540108C1540108C5540108C9540108EF
:10019000CD540108D1540108D5540108D95401089F
:1001A0000000000000000000DD5401087CB50400E0
:1001B000DFF8B808B0F89200401CDFF8B018A1F8DA
:1001C00092006068DFF8A81808606089142815DAC2
:1001D000DFF89808B0F89A00401CDFF89018A1F8F2
:1001E0009A00DFF88808B0F89600401CDFF87C1809
:1001F000A1F89600200002F012F973BDDFF8740830
:100200000168DFF87008406902F024FB002806D17D
:10021000DFF86008007D10F0F000E02809D1DFF879
:100220004C08B0F8A000401CDFF84018A1F8A0006E
:10023000D7E7DFF83C080068808902F031FB80B224
:10024000000BC0B28000C0B2142805DB2189020077
:10025000D2B292B2914209D2DFF81008B0F89A00F7
:10026000401CDFF80818A1F89A00BAE7C0B2B0F154
:100270001401DFF8042811800021DFF80028116044
:1002800061890200D2B292B291420CD3DFF8E81732
:100290000988DFF8EC271180C0B2414209B2200082
:1002A00002F0B1F85CE02068002808D1DFF8343DA6
:1002B000B222DFF8D017DFF8300D02F003FB7FF039
:1002C0001301200002F09FF86089DFF8B41708805E
:1002D000DFF8A4070088DFF8A8170988451ADFF8B7
:1002E000A007B0F9000000B2414209B2200002F0BC
:1002F0008AF820684089ADB2A84209D2DFF86C07BD
:10030000B0F89A00401CDFF86417A1F89A0068E77B
:1003100020684068DFF8641708602DB2694209B2AE
:10032000206802F070F82089401B20816089002835
:1003300008D0DFF8B03CCF22DFF84C17DFF8A80C6C
:1003400002F0C0FA208921680989884208D0DFF8C4
:10035000943CD022DFF83417DFF88C0C02F0B2FAAC
:10036000DFF80C070068008802F09AFADFF800173F
:1003700009680880DFF8F8060068408802F090FA03
:10038000DFF8EC1609684880DFF8E406006840688A
:1003900002F08CFADFF8D81609684860DFF8AC1C68
:1003A0000860DFF8CC060068806802F07FFADFF8AA
:1003B000C01609688860DFF8981C0860DFF8B0068E
:1003C0000068C08902F06CFADFF8A4160968C881D9
:1003D000DFF89C060068808902F062FA10F03F00A6
:1003E000DFF8701C0870DFF86C0C007803210842FD
:1003F00001D0012000E0002021894018DFF8F81C1E
:1004000008800025DFF8F40C066801E03500F66886
:10041000002E6AD0307D002808D1DFF8C83BE222E8
:10042000DFF8341CDFF8C00B02F04CFA307D0A28EC
:1004300008D1DFF8B03BE322DFF8201CDFF8A80B7F
:1004400002F040FA307D012808D1DFF8983BE42221
:10045000DFF80C1CDFF8900B02F034FA308BDFF879
:100460001016096809888842D0D1F08ADFF8001692
:10047000096849888842C9D17068DFF8F8150969A8
:100480008842C3D13068DFF8EC1549698842BDD194
:10049000F068B04208D1DFF84C3BEC22DFF8601C7A
:1004A000DFF8440B02F00EFA002D09D0F068E86086
:1004B000DFF8480C0068F060DFF8400C066008E0E8
:1004C000DFF8A805B0F8A600401CDFF8A015A1F8D9
:1004D000A600F068B04208D1DFF8083BF422DFF84C
:1004E000241CDFF8040B02F0EDF9002E6BD1DFF8CD
:1004F000180C066800E0F668002E2CD0307D0A2823
:1005000008D0DFF8E03AFE22DFF8001CDFF8D80A56
:1005100002F0D8F9308BDFF858150968098888424D
:10052000E9D1F08ADFF84815096849888842E2D1A4
:100530007068DFF8401509698842DCD13068DFF85F
:10054000341549698842D6D1300000F044FA2000C1
:1005500001F065FF51E60025DFF8B40B006801E00B
:100560000500C068002811D0C18ADFF80425126890
:1005700052889142F4D10168DFF8F824526991421F
:1005800004D0002802D001680029E9D100281AD03F
:10059000002D09D0C168E960DFF8741B0968C160EB
:1005A000DFF86C1B086008E0DFF8C014B1F8A61093
:1005B000491CDFF8B824A2F8A61000F06FF920005B
:1005C00001F02DFF19E6002E00F015810020DFF864
:1005D000441B08602089DFF83C1B0881DFF8340BDE
:1005E0004460DFF88C040068DFF8281BC860002036
:1005F000DFF8241B08600020DFF8201B08700020B3
:10060000DFF81C1B0880DFF84C0A0078000703D5D0
:10061000607B50F001006073706F00281DD03000C7
:1006200002F04CFF10F10D0F07D0706F002814D0AE
:10063000DFF8C40A008800280FD0708D002802D18E
:10064000300003F0D9FFDFF82404B0F89600401C16
:10065000DFF81814A1F89600B6E0DFF8C80A0660C3
:10066000300000F015FA40B210F10D0F00F0AC8030
:10067000DFF8A80A0078000713D5D6F88C00002808
:1006800005D07FF00D013069D6F88C2090473100FD
:10069000DFF8680A03F02FF93100012004F0F9FBBC
:1006A00092E00020DFF8780A0088002814D0DFF8F4
:1006B000700A0288F06F002805D092B231003069CC
:1006C000F36F984700E0002040B210F10D0F7BD08F
:1006D0000020DFF84C1A0880300000F0BEF8002837
:1006E00072D1DFF8340A0068002839D0706F002812
:1006F00009D0DFF8F0384FF4D272DFF82C1ADFF8A7
:10070000E80802F0DFF8B07EC00608D5DFF8080A76
:10071000006801F084FE300002F0E7FA54E0D6F8F9
:100720008000002809D00023DFF8EC0902683100BE
:100730003069D6F88040A04707E00023DFF8D809E9
:1007400002683100002002F02BFF40B210F10D0FC3
:100750003AD040B2002803D0DFF8BC0900687067C7
:10076000DFF8B8090078800608D5706F00280FD030
:10077000706F407B50F02000716F48730020DFF8ED
:10078000A4190860300000F068F8002819D01BE0B8
:10079000308DB0F5066F02D0308D401C3085D6F814
:1007A0008000002807D00023002231003069D6F8ED
:1007B0008040A04700E0002040B210F10D0FDDD1D5
:1007C00002E0300003F058FF0020DFF858190860FD
:1007D0000020DFF844190860DFF838094068002875
:1007E0003AD0DFF83009406801F019FE0020DFF848
:1007F0002419486030E09E480068808902F050F873
:10080000400726D49948B0F8A000401C9749A1F8A9
:10081000A0009648B0F89600401C9449A1F89600B4
:1008200093480068008801909148006840880090D3
:10083000DFF8F838DFF8F828DFF810080068DFF88C
:10084000B818098810FA81F1DFF80408006804F08C
:10085000CDF8200001F0E3FDCFE410B50400DFF88F
:10086000BC080078C00617D5A07EC00609D4D4F80D
:100870008C00002805D07FF00E012069D4F88C2070
:1008800090472100DFF8740803F035F821000120BB
:1008900004F0FFFA012000E0002010BD30B583B065
:1008A0000400DFF8B0070078400700F19380DFF81C
:1008B000A4070078C00619D56D480068008801902B
:1008C0006B48006840880090DFF86038DFF86028E7
:1008D000DFF878070068DFF82018098810FA81F13E
:1008E000DFF86C07006804F081F873E0DFF8640754
:1008F000007880076ED5607D02F0E2FE0500002DD5
:1009000013D15A48B0F89C00401C5849A1F89C00EB
:10091000A069002806D05FF0FF3200212069A3699A
:10092000984701E07FF00F0054E05248406928608A
:10093000504800696860E08AE8824D480068008895
:10094000288303202875DFF804070068401C6862CC
:10095000686AE862280003F01FF86865E864686464
:10096000A865DFF8E8060068401E28652069286150
:10097000AC67207A10F00C002872DFF8800700685E
:10098000E860DFF87807056004F0BFFA0120DFF8BF
:10099000A4170870280001F0F5F935480068C089EF
:1009A000A5F85C00B5F85C00A5F85E00291D688E0E
:1009B00002F0FCFF68861221280003F033FD40B2EC
:1009C000002804D00021280002F00AF902E02800E3
:1009D00003F052FE37BD00B583B0DFF87816097812
:1009E000490742D4DFF86C160978890729D5DFF862
:1009F0005C160968426A891A00292BD4DFF84C1664
:100A00000968426A891A028D891A012922DA18486E
:100A10000068008801901648006840880090DFF860
:100A20000C37DFF80C27DFF824060068DFF8C8165B
:100A3000098810FA81F1DFF81806006803F0D6FF84
:100A400013E0DFF810160978C90703D5DFF8E816B8
:100A500009680162DFF8A0160988002905D0817EA7
:100A600051F00201817603F007FE07BDE466012024
:100A700050720120247001209072012054720120D4
:100A800092720120EC5101081453010864470108D7
:100A900030B583B0040000210020DFF8B8050078ED
:100AA000400747D5207D022807D1DFF8A40500685C
:100AB000E26C90421DD101211BE0DFF89005006837
:100AC000626A904201D1012113E0DFF880050068DD
:100AD000626A801A00280CD4DFF870050068626A28
:100AE000801A228D801A012803DAA07E50F00200BD
:100AF000A076C9B200291BD0207D002809D1DFF8DB
:100B0000E43440F2E722DFF83416DFF8DC0401F0C9
:100B1000D9FEDFF80806007850F00800DFF8FC1571
:100B20000870A07E10F0FE00A0767FF00D008BE232
:100B3000002089E2DFF81C05007880070BD5207DB6
:100B4000022808D0207D032805D0A07E50F00200A6
:100B5000A076002078E2A07EC00603D4DFF8D80596
:100B600000682062002084F89600200001F00AF955
:100B7000207D022814D0C0F06682042800F07F8116
:100B8000C0F0D980062800F0DC81C0F086810828FA
:100B900000F00982C0F07381092800F03E8252E221
:100BA000DFF8B004007810F01200122840F09980AD
:100BB000DFF89C040068616C491C884240F0918019
:100BC000DFF888040068401C6062606AE062DFF859
:100BD000800400686064DFF818090068C089A4F820
:100BE0005C00B4F85C00A4F85E00DFF86004006804
:100BF000401E206504202075211D608E02F0D6FE67
:100C00006086608E400041F21D11884202D3608EE2
:100C1000400001E041F21C10618E8900814203D244
:100C2000608E80B280000BE0608E400041F21D11AA
:100C3000884203D3608E80B2400001E041F21C1074
:100C4000A4F84800B4F86200002809D1DFF8943312
:100C500040F21A32DFF8E814DFF88C0301F032FEBC
:100C6000B4F86200401EA4F86200E56E002D0FD1BA
:100C7000A56E002D09D1DFF86C3340F22232DFF887
:100C8000C414DFF8640301F01DFE2868A06601E0CB
:100C90002868E066280002F060FCE06E002803D1BE
:100CA0005FF0FF30208604E000202086002084F8DA
:100CB0004200D4F88400002806D0002221002069D8
:100CC000D4F88430984700E0002040B210F10D0FB6
:100CD00002D17FF00C00B7E1A07E50F00200A076B8
:100CE00028E0DFF870030078C00623D5DFF800089D
:100CF000006800880190DFF8F807006840880090DD
:100D0000DFF82834DFF82824DFF840030068DFF834
:100D1000E813098810FA81F1DFF83403006803F062
:100D200065FE94F84200062804DA002020862000A0
:100D300003F0B6FE87E1DFF81C030078C00640F13F
:100D40009080C3480068616C401A401E002871D42E
:100D5000BF480068E16C401A01286BDA0420207556
:100D6000A06F00280BD0A06F8069002807D19D4B91
:100D700040F25132DFF8D0139B4801F0A3FDA06F81
:100D8000002802D17FF005000CE0A06F80690028E8
:100D900006D0002221002069A36F9B69984701E0DB
:100DA0007FF00F0040B2002809D040B210F10D0FC3
:100DB00002D0200001F099FF7FF00C0044E12000F8
:100DC00000F0C4F9DFF858030088002806D0DFF8E7
:100DD00050030088401EDFF848130880608E4000F2
:100DE00041F21D11884202D3608E400001E041F2C1
:100DF0001C10618E8900814203D2608E80B2800017
:100E00000BE0608E400041F21D11884203D3608EDA
:100E100080B2400001E041F21C10A4F84800BF4835
:100E2000007880062AD5A07E50F00200A076072028
:100E3000207523E0DFF8B806006800880190DFF82D
:100E4000B006006840880090B84BB94A7F480068F7
:100E5000A949098810FA81F17D48006803F0C6FDB0
:100E60000CE07C480078800708D578480068616A03
:100E7000491E884202D1200003F030FEE3E020004A
:100E800000F064F9A5480078800605D5A07E50F0F2
:100E90000200A07607202075D5E0200000F056F96A
:100EA0009E48007880063DD56A480078C00632D555
:100EB00067480068E16C88422DD1A06E00282AD1D5
:100EC000A07E50F00200A076200002F0EBFC8B48E0
:100ED0000068A04205D189480068C0688749086059
:100EE0000AE08648006800E0C068002804D0C168B5
:100EF000A142F9D1E168C1600020E06001208D4984
:100F000008700A20207580480068E0607E48046010
:100F100003F0FBFF14E0A07E50F00200A076082052
:100F200020750DE04B480078C00609D54848006898
:100F3000E16C884204D1A06E002801D10620207502
:100F400081E0200000F002F974480078800629D57D
:100F5000A07E50F00200A076200002F0A3FC6748BB
:100F60000068A04205D165480068C0686349086010
:100F70000AE06248006800E0C068002804D0C16848
:100F8000A142F9D1E168C1600020E0600120694917
:100F900008700A2020755C480068E0605A480460C8
:100FA00003F0B3FF4FE0200000F0D0F829480078AC
:100FB000C00631D526480068E16C88422CD1A06E6D
:100FC000002829D1200002F06DFC4C480068A042A6
:100FD00005D14A480068C068484908600EE04748A3
:100FE000006804E07C2C0108B83E0108C0680028B5
:100FF00004D0C168A142F9D1E168C1600020E0607D
:1010000001204C4908700A2020753F480068E060C4
:101010003D48046003F079FF15E0200000F096F8E9
:101020000C480078C0060DD509480068E16C88427C
:1010300008D1A06E002805D13848007850F0100083
:1010400036490870FFE700203EBD000058720120BD
:101050005C720120A2720120E03E0108A43901085F
:10106000083F010838B504000D00E068808901F0F0
:1010700017FCC00716D5280002F066FA002538E0F4
:10108000E868808901F00CFCC00707D5012001F059
:1010900007FCE16889890843E168888128002D6898
:1010A00002F05BFA002D0CD0DFF8640D0068218996
:1010B00010FA81F0E9684968401A2989401A002825
:1010C000DED5002D15D0DFF8480D0068218910FA13
:1010D00081F0E9684968401A01280ADBE86840683D
:1010E000DFF82C1D0968401A20812189606801F011
:1010F0009BF8256031BD00009872012048720120E4
:10110000D0390108FC3901084C7201205C37010814
:1011100044720120A070012060720120A37201209E
:101120009672012064720120944B010834700120F2
:10113000387001209F7201203C7201208447010811
:10114000DC4D0108A84F0108A4470108F8B50400C8
:101150000025207D042809DADFF8CC3C4FF48162B9
:10116000DFF8B01CDFF8C40C01F0ACFBDFF8C00CFA
:101170000078C00640F10682B4F85C00616D11FA97
:1011800080F0216DDFF8882C1268891A002919D4A3
:10119000216DDFF87C2C1268914206D1616DDFF879
:1011A000942C1268891A00290CD4616DDFF8842C04
:1011B0001268914233D1B4F85C10CD4A1268D289DA
:1011C00091422CD2CA490968C989A4F85C10B4F8C4
:1011D0005E10B4F85C20914203D2B4F85C10A4F81D
:1011E0005E10DFF82C1C09682165DFF8481C0968CF
:1011F0006165B4F85C1000290AD194F895100029B3
:101200000DD1002184F89410012184F8951006E096
:1012100094F89510002902D0002184F89510DFF889
:10122000141C0968626C891A012945DADFF8081C68
:101230000988002939D1616DB4F85C2011FA82F176
:10124000814232D1B4F9300000282ED4606CDFF82E
:10125000E41B0968884228D1012594F8430094F8DA
:101260004310491CC9B2884204D294F84300401C80
:1012700084F8430094F8430004280FDBB4F84800D6
:10128000B4F84810628E511889B288420DD2B4F871
:101290004800618E0818A4F8480006E094F843005E
:1012A000032802D1200003F04AFC002D40F00C81FD
:1012B000002084F8430007E1DFF8780B0068616CD8
:1012C000401A401E002800F1B880DFF8680B006863
:1012D000E16C401A012880F2B080A07E400707D55B
:1012E000A07E10F0FB00A076B4F84A00A4F84800F5
:1012F000002084F84200B4F93C00C010B4F93E105C
:101300004018A4F84000002084F84300DFF8240BC4
:1013100000686064207D042864DBB4F84800B4F8F9
:101320004A1088420FD2B4F84800B4F84810628ED0
:10133000511889B2884255D2B4F84800618E081815
:10134000A4F848004EE0B4F84800618E628E514324
:10135000B4F8482091FBF2F10818B4F8481080B2B4
:1013600081423FD2A4F848003CE0E56EE06E0068A0
:10137000E066686801F0CDF8B4F8621080B281428E
:1013800009D2DFF8A43A40F29E42DFF8B01ADFF843
:101390009C0A01F097FA686801F0BBF8B4F8621093
:1013A000081AA4F86200DFF8980A0088298908184A
:1013B000DFF88C1A0880280002F0CFF8B4F8620039
:1013C00000280FD0E06E00280CD1A06E002809D1B3
:1013D000DFF8543A40F2A742DFF8681ADFF84C0A07
:1013E00001F070FAE06E00281BD0E06EC068406823
:1013F00001F05CFA0500E06EC068808901F050FAE7
:101400000321084201D0012000E00020E16E09899B
:1014100015FA81F14018DFF81C1A0968401A0128F2
:10142000A3DBE06E002803D15FF0FF30208601E0EF
:10143000002020860020E07646E0200003F0DCF863
:1014400042E0A56EA06E0068A066A06E002802D1E2
:101450000020A4F86400686801F05BF8B4F862103A
:1014600080B2814209D2DFF8C03940F2D542DFF8BC
:10147000CC19DFF8B80901F025FA686801F049F8DD
:10148000B4F86210081AA4F86200DFF8B409008802
:1014900029890818DFF8A8190880280002F05DF8EB
:1014A000B4F8620000280FD0E06E00280CD1A06EC6
:1014B000002809D1DFF8703940F2DD42DFF88419E5
:1014C000DFF8680901F0FEF9A06E002824D0A06EB4
:1014D000C068406801F0EAF90500A06EC068808924
:1014E00001F0DEF90321084204D0012003E000BF2F
:1014F000507201200020DFF83C190968491BA26ED8
:101500001289891A081A002806D4DFF82809006809
:10151000E16C401A012894DBB4F86000DFF8201970
:1015200009880818A4F86000606B00282AD0A06B16
:10153000DFF800190968401A002823D5DFF80809E8
:101540000068616B401A00B2B4F93C10B0EBE100E6
:10155000A18F4118A18700B2002801D500B24042F6
:1015600000B2B4F93E10B0EBA100E18F4018E08763
:10157000B4F93C00C010B4F93E104018A4F8400083
:1015800000206063DFF8B0080088002800F0C28304
:10159000207D072880F2BE83606ADFF8741809682E
:1015A000401A401E002800F19480606ADFF860183D
:1015B0000968401ADFF880180988401A401C012881
:1015C00080F28780DFF884084568606ADFF8401899
:1015D0000968461ADFF874084068002809D1DFF866
:1015E000483840F23C52DFF86818DFF8400801F054
:1015F00069F947F6FF70864209DBDFF82C3840F2C4
:101600003D52DFF85018DFF8240801F05BF9DFF8ED
:101610003C0840684089B04230DADFF83008406862
:101620000089B04209DADFF8003840F23F52DFF8B3
:101630002818DFF8F80701F045F9DFF810084068CE
:101640000089801B05E06989761A2881002169815B
:101650002D686989B142F6DB714209B2280000F0B9
:10166000D2FE00281DD0DFF8C03740F24C52DFF820
:10167000EC17DFF8B80701F025F912E0714209B262
:10168000DFF8C807406800F0BEFE002809D0DFF888
:10169000983740F25152DFF8C417DFF8900701F095
:1016A00011F9DFF8A8070089616ADFF8642712687A
:1016B000891A401ADFF894170881606ADFF850171A
:1016C0000860DFF84C070068DFF88017C9684860D9
:1016D0000AE0DFF83C070068616A401A002803D579
:1016E000A07E50F00200A076DFF824070068616A4F
:1016F000401A002800F10A83DFF814070068616AC5
:10170000401A218D401A401C012880F2FF82606A35
:10171000DFF8FC160968884240F00082DFF82C07E9
:10172000C068808901F0BCF80321084201D0012083
:1017300000E00020DFF8141709894018DFF8F816D8
:101740000880208DDFF8F0160988884263D2DFF820
:10175000FC06C068808901F0A3F8C00715D5DFF842
:10176000EC06C068808901F09BF810F03E0001F0A3
:1017700097F8DFF8D816C96889894CF2FF02114042
:101780000843DFF8C816C9688881208DDFF8BC16C9
:101790000881DFF8B806C068808901F081F8800709
:1017A00006D5DFF8A8060089401EDFF8A0160881DC
:1017B000DFF898060189DFF89406406800F034FDF0
:1017C000DFF88806C068808901F06AF803210842C2
:1017D00001D0012000E00020DFF8701609894018D0
:1017E000DFF854160880DFF828060068DFF848168E
:1017F000098810FA81F0616A228D11FA82F188421B
:1018000009D0DFF8243640F27F52DFF85416DFF8B3
:101810001C0601F057F8206F002800F0B180DFF8B7
:101820002C06C068808901F03BF8C0070AD5206FFC
:10183000002800F0A580206F216F0968216701F062
:101840008CFEF4E7256F0CE00020DFF80016098914
:101850004018DFF8E41508802F002D68380001F0EB
:101860007CFE002D33D0DFF8A8050068DFF8C8152E
:10187000098810FA81F0E9684968401A2989401AF4
:10188000002824D4E868808901F00AF8C007E3D56D
:10189000DFF8B805C068808901F002F88007DBD462
:1018A000012000F0FDFFDFF8A415C968898908430D
:1018B000DFF89815C9688881DFF89005C0688089CD
:1018C00000F0EEFF03210842BED00120BDE7002D4D
:1018D00055D0DFF83C050068DFF85C15098810FA80
:1018E00081F0E9684968401A012848DBE8684068E7
:1018F000DFF81C150968401ADFF850150881DFF879
:101900004C05C068808900F0CBFF800706D5DFF862
:101910003C050089401EDFF834150881DFF82C05EE
:101920000189DFF82805406800F07EFCDFF81C051F
:10193000C068808900F0B4FF0321084201D0012073
:1019400000E00020DFF8041509894018DFF8E814EA
:101950000880DFF8BC040068DFF8DC14098810FA9E
:1019600081F0E9684968884209D0DFF8BC3440F268
:10197000AF52DFF8F014DFF8B40400F0A3FF2567DE
:10198000DFF88C040068DFF8B014098810FA81F0E1
:101990006062208DDFF8A0140988884209D2DFF840
:1019A000883440F2B952DFF8C014DFF8800400F048
:1019B00089FF208DDFF880140988401A20852000D7
:1019C00001F06BFADFF8840440680089002809D030
:1019D000DFF878044068DFF8941408600020DFF82E
:1019E0006C144860DFF86404C068808900F058FF18
:1019F000C00726D5DFF87804007850F02000DFF823
:101A0000701408701DE07068DFF860140860002032
:101A10007060F068808900F043FFC0070CD5DFF8E4
:101A20005004007850F02000DFF844140870207D46
:101A3000042801D10720207530682067300001F0AC
:101A40008CFD206F002858D0206FC0684068616A04
:101A5000884252D1266F206FC0684068DFF8B0130B
:101A60000860F068808900F01BFF0321084201D064
:101A7000012000E00020616A328910FA82F04018EB
:101A80006062F068808900F00BFF0321084201D0FA
:101A9000012000E00020218D328910FA82F081427D
:101AA00009D2DFF8843340F2DE52DFF8C813DFF8E2
:101AB0007C0300F007FFF068808900F0F1FE03214D
:101AC000084201D0012000E00020218D3289891ACE
:101AD000081A2085200001F0E0F9706800890028CC
:101AE00097D0DFF88803006800288CD07168DFF891
:101AF0007C03006800F02FFD89E7A07EC00708D5B1
:101B0000A07E10F0FE00A076A07E50F00200A0762D
:101B100003E0A07E50F00100A0760EE1200002F06C
:101B20006BFD206F002804D1C84801F025FD206717
:101B300003E10027256F01E02F002D68002D00F044
:101B4000FC80B3480068E9684968884215D1288953
:101B5000BE49098988420FD2BC4801F00DFD06003C
:101B6000002E08D0002F01D03E6000E0266729003B
:101B70003000FFF777FAE0E0DFE0002F12D1A44851
:101B80000068E9684968401A00283BD5AF4801F071
:101B9000F3FC0600002E04D0266729003000FFF772
:101BA00061FACAE09A480068F9684968401A401E1C
:101BB000002827D496480068E9684968401A401C04
:101BC00001281FDAA14801F0D7FC0600002E18D02A
:101BD000F8684068398910FA81F08D490968401A1F
:101BE000012809DB8A480068F9684968401A388189
:101BF0003989786800F018FB3E6029003000FFF753
:101C000031FA9AE02868002896D181480068E9688E
:101C10004968401A01288FDBE868808900F040FE9F
:101C2000C00700F18A80894801F0A6FC2860286876
:101C300000286AD0E8684068298910FA81F0744960
:101C40000968401A012809DB71480068E968496899
:101C5000401A28812989686800F0E6FA76480088E9
:101C60006B49096811FA80F0616A401A218D401AA7
:101C700001284ADB2868C068808900F011FEC0078F
:101C800012D52868C068808900F00AFE10F03E0076
:101C900000F006FE2968C96889894CF2FF021140EC
:101CA00008432968C9688881606A218D08185849E5
:101CB0000968401A296808812868018928684068ED
:101CC00000F0B2FA2868C068808900F0E9FD0321BD
:101CD000084201D0012000E000202968098940184D
:101CE000554908804A4800685349098810FA81F02C
:101CF000616A228D11FA82F1884206D04A4B40F285
:101D00007B625749494800F0DDFD16E0200002F0F3
:101D100073FC12E03E480068616A401A002808D44B
:101D20003B480068616A401A218D401A401C012816
:101D300003DBA07E50F00200A076F1BD4E480068A3
:101D4000002805D04D4800884D49098888420AD2AC
:101D50004C4800681430494909884A1C474B1A808E
:101D600089B2085C0DE04548008845490988401A59
:101D700042490988491C414A11803F490968C0B25B
:101D8000405C704738B504003F48008800283ED0CA
:101D900000203A490880FFE7384800883A49098816
:101DA000884234D2FFF7CAFFC0B2002803D002280D
:101DB00002D0F1D31EE02AE0FFF7C0FF042806D1CD
:101DC000314800882D490988891C884200DA1EE0C4
:101DD000FFF7B4FF0502FFF7B1FF0543ADB2B5F55C
:101DE000067F02DCADB2002D02D14FF40675FFE78D
:101DF0006586D1E7FFF7A2FFC0B2022807DB1F49C3
:101E00000988C0B2801E40181C490880C4E731BD53
:101E100058720120B04B01081548007850F01000AE
:101E200013490870704700007C2C0108B83E010877
:101E3000A27201205C72012098720120303F0108DB
:101E400096720120C44701083C720120A070012055
:101E5000FC5101080C5201081C520108BC4F01083A
:101E6000D83101087C300108E44701086072012084
:101E7000A3720120583F010854720120947201207E
:101E800092720120507201209072012010B503F06F
:101E9000C5FA0021DFF82C29117003F0C8FADFF829
:101EA0002809046800E0E468002C08D0206F0028AE
:101EB000F9D0206F01F048FB00202067FFE710BD3C
:101EC00080B5FFF7E3FF01BD10B503F0A7FADFF817
:101ED000F4180C780121DFF8EC28117003F0A7FA50
:101EE000E4B2002C0FD100220021DFF8E00803F05B
:101EF00038FB002807D003F091FA0021DFF8C4284E
:101F0000117003F094FA10BD2DE9F0410E00140099
:101F1000C0B2002806D002281DD01AD304281ED033
:101F20001BD31EE03627E4B2002C00F0E180022C27
:101F300000F01A81C0F01881032C40F026810C209B
:101F400002F073FF0500002D17D1FFF7BDFF002041
:101F5000CCE02227E7E70E27E5E70027E3E70027A5
:101F6000E1E7DFF86C384FF48B72DFF86818DFF8C0
:101F7000680800F0A7FC0020B8E02C73002028605F
:101F8000BFB278191030C01C800880006860686893
:101F90000421B0FBF1F202FB1102002A09D0DFF8A4
:101FA000303840F22912DFF83418DFF82C0800F03E
:101FB00089FC2E81B6B2BFB2F81C80088000D0F533
:101FC0001470864201D2300006E0BFB2F81C4FF612
:101FD000FC710840D0F51470688115F518706968B7
:101FE0006A895118884209D2DFF8E4374FF49872B1
:101FF000DFF8EC17DFF8E00700F064FCBFB2F81C74
:1020000080088000D0F51470002809D1DFF8C037AF
:102010004FF49972DFF8CC17DFF8BC0700F052FCE0
:102020000120E881A846B6B26889361A2DE04FF43F
:102030001470788117F11000786078680421B0FB83
:10204000F1F202FB1102002A09D0DFF884374FF4C5
:10205000A972DFF89417DFF8800700F033FC15F55C
:10206000187069686A895118884209D2DFF86037A8
:1020700040F25512DFF86817DFF85C0700F022FC29
:102080000120F8817889361AB846012E29DB0C2008
:1020900002F0CBFE0700002F06D1FFF715FF280046
:1020A00000F0BDF9002021E03C730020787300208F
:1020B0003860C8F800704FF6FF70864209DBDFF821
:1020C00010374FF4A672DFF82417DFF80C0700F082
:1020D000F9FB3E81300080B2B0F5147FA7D230000A
:1020E000A7E70120E881002068732800BDE8F0819F
:1020F00017F113004FF6FC710840B6B2F11C4FF611
:10210000FC721140081880B2B6B2F11C890889002F
:10211000884201D20020E9E780B203F0BEFC05004E
:10212000002D01D10020E1E7BFB278191030C01CAA
:102130008008800068602E812889688100202860DE
:102140002C7368680421B0FBF1F202FB1102002A33
:1021500009D0DFF87C3640F27712DFF89416DFF80A
:10216000780600F0AFFBBCE70B2002F05EFE050036
:10217000002D01D10020B9E7002068602E81288958
:102180006881002028602C73ABE7DFF844364FF4F9
:10219000C672DFF86016DFF8400600F093FB0020FF
:1021A000A4E738B5C0B2002806D0022812D00FD359
:1021B000042813D010D313E036240598A4B2E51CEC
:1021C000AD08AD0015FA81F5A84215D200202AE02D
:1021D0002224F2E70E24F0E70024EEE70024ECE7E7
:1021E000DFF8EC3540F2C512DFF80C16DFF8E80531
:1021F00000F068FB002016E000201860049800281A
:1022000006D0A4B2E41CA408A4002018586001E081
:1022100000205860022058731981188958811A7358
:102220000120D881180032BD70B504000D00002CCB
:1022300009D1DFF89C3540F2F312DFF8C015DFF862
:10224000980500F03FFB207B032812D0207B01285B
:102250000FD0207B00280CD0207B022809D0DFF88B
:10226000703540F2F712DFF89815DFF86C0500F0D2
:1022700029FB2089ADB2854250D2ADB220892E1AF9
:102280001FE060892D1A4FF6FF70864209DBDFF8E8
:10229000403540F20B22DFF86C15DFF83C0500F00A
:1022A00011FB2089301820812468002C09D1DFF827
:1022B000203540F20F22DFF85015DFF81C0500F042
:1022C00001FB6089ADB2A842DBD3207B00281AD184
:1022D0006089ADB2854216D0607B800713D46068F8
:1022E000001B291889B2200003F002FB0400002C17
:1022F00009D1DFF8DC3440F21D22DFF81015DFF8D9
:10230000D80400F0DFFA6581608920812068002808
:1023100002D0206800F083F80020206070BD70B506
:1023200004000D001600002C09D1DFF8A43440F29F
:102330003F22DFF8DC14DFF8A00400F0C3FA2DB26E
:10234000002D01D0002C01D1002042E02DB2002D43
:1023500012D52DB26A42608992B290420BD2DFF858
:10236000703440F24722DFF8AC14DFF86C0400F060
:10237000A9FA01202DE000E02A00207B616880B2EC
:10238000002802D080B203280BD160682DB2401B18
:102390006060606814F11002904213D26160012005
:1023A00017E080B2022802D080B201281FD12DB2DE
:1023B000002D0FD5608992B290420BD360682DB288
:1023C000401B60606089281860812089281820815E
:1023D000002070BD2DB2012D07DBF6B2002E04D017
:1023E00060682DB2401B6060ECE70120F1E7DFF888
:1023F000E03340F27722DFF82014DFF8DC0300F04E
:1024000061FA0120E5E780B5002209B2FFF787FFF6
:1024100002BD80B5012209B2FFF781FF02BDF8B508
:102420000400002C0DD1002C09D1DFF8A43340F2B8
:10243000D222DFF8DC13DFF8A00300F043FA00201B
:1024400066E0207B002812D0207B01280FD0207B63
:1024500002280CD0207B032809D0DFF8743340F227
:10246000DE22DFF8B813DFF8700300F02BFA002546
:1024700004E0200003F0C1F96D1C3400002C45D0AD
:1024800002F0CCFF0700E089002809D1DFF84033D3
:1024900040F2EB22DFF88813DFF83C0300F012FA79
:1024A000E089401EE081E689380002F0C0FFB6B244
:1024B000002E29D12668207B617B890711D5270052
:1024C0003869002809D1DFF8083340F2F922DFF833
:1024D0005413DFF8040300F0F5F920003969884748
:1024E000CAE780B2032804D121000C2002F0D1FCFD
:1024F000C2E780B2012802D080B20228B9D12100FF
:102500000B2002F0C6FCB7E70024B7E72800C0B2F2
:10251000F2BD002101E0491C00680028FBD1080041
:1025200080B2704710B50400002C13D002F076FF83
:10253000E189491CE18102F07AFFE089002809D194
:10254000DFF88C3240F23932DFF8DC12DFF8880233
:1025500000F0B8F910BD38B505000C00002D01D011
:10256000002C0AD1DFF8683240F24D32DFF8BC129D
:10257000DFF8640200F0A6F928E004E02889218948
:10258000081828812D6828680028F7D128896989CA
:10259000884209D0DFF8383240F25532DFF8901225
:1025A000DFF8340200F08EF92868002809D0DFF83F
:1025B000203240F25632DFF87C12DFF81C0200F0C5
:1025C00081F928892189081828812C6031BD2DE9DD
:1025D000F84304000D0000260027002C05D0002D34
:1025E00003D02089298988420CD2DFF8E43140F2F7
:1025F000BD32DFF84412DFF8E00100F063F97FF04C
:102600000F0081E06089B6B2801B6989BFB2C91B27
:10261000884203DB6889B0EB070802E06089B0EB11
:1026200006081FFA88F86868BFB239186068B6B241
:1026300016EB00094246484603F03AFB18EB060643
:1026400018EB07076089B6B2B04209D2DFF88031D3
:1026500040F2CD32DFF8E411DFF87C0100F032F90E
:102660006889BFB2B84209D2DFF8643140F2CE3295
:10267000DFF8CC11DFF8600100F024F96889BFB2FF
:10268000874201D300272D686089B6B2864210D1F7
:1026900000262468002C0CD1002D0AD04C4B4FF49E
:1026A0007672DFF8A0114C4800F00CF97FF00F00B3
:1026B0002AE0002D11D06889298988420DD1286827
:1026C00000280AD0424B40F2DE32DFF87C1142484B
:1026D00000F0F8F87FF0050016E0002C10D06089BB
:1026E000218988420CD12068002809D0384B40F25B
:1026F000E3325549384800F0E5F87FF0050003E083
:10270000002D7FF47FAF0020BDE8F2832DE9F04774
:1027100080460C0015000027B8F1000F08D12C4BA3
:1027200040F2FE3249492C4800F0CCF8002047E046
:10273000002C08D1264B40F2FF324549264800F0D4
:10274000C1F800203CE00026B8F1000F01D0002CB9
:1027500001D1002034E01FE0B8F80A00B0EB030913
:10276000ADB21FFA89F94D4500D2A9461FFA89F981
:10277000D8F804009BB21918B6B216EB040A4A4600
:10278000504603F095FA19EB070719EB0606B5EB6F
:1027900009050023D8F80080ADB2002D0ED0B8F1A5
:1027A000000F0BD09BB2002BD6D0B8F80A009BB21A
:1027B0008342D1D3B8F80A001B1AEBE7380080B285
:1027C000BDE8F0879D72012048720120C11E0008FB
:1027D000E42B01087C4A0108003D01083C36010851
:1027E000B8330108EC3301086C3601086C4F01085E
:1027F0009C380108984A010894420108EC4C0108F1
:10280000B44A0108804F0108044D0108D04A01086C
:10281000F0520108044701085C5101081C4D0108F1
:10282000344D0108B8420108944F0108A031010855
:102830009C3601086C510108CC3601084C4D01084A
:10284000EC4A01087C510108C838010824470108F6
:10285000DC42010810B40200C343002B01D0002861
:1028600001D101201AE091F82B309B0701D4002000
:1028700014E04B68984201D100200FE08B681A40A9
:102880004B688C6823409A4207D18A6890438968D4
:10289000C943884201D1012000E0002010BC7047EC
:1028A00080B2010A51EA002080B2704710F47F41E3
:1028B000090251EA0061020A12F47F42114351EA0F
:1028C000106070470EB400B582B003A900910246B3
:1028D00000AB0121034878440A3003F025FA06BC16
:1028E0005DF810FB89250100704780B500F096FD6A
:1028F000DFF8B00B0078401CDFF8A81B0870DFF889
:10290000A40B0078C00701D500F076FB01BD05E0FF
:10291000826F8A4201D100228267C0680028F7D105
:10292000704738B50400002C08D1DFF8BC36C0224F
:10293000DFF8B816DFF8740BFFF7C4FF207D01281D
:1029400008D0DFF8A436C122DFF8A416DFF85C0B4C
:10295000FFF7B8FF012508E02100DFF8540B50F81D
:1029600025000068FFF7D3FF6D1C042DF4D331BDA3
:102970001CB50400C9B2002962D0207D042802D011
:10298000207D07285CD1606F002803D1208DB0F531
:10299000066F55D0A07EC00609D4DFF84C3640F251
:1029A0000F12DFF85016DFF8040BFFF78BFF208BB8
:1029B0000190E08A0090231D2200616AE06C02F021
:1029C00015F8200000F06EFFDFF8440A0068A0420E
:1029D00007D1DFF83C0A0068C068DFF8341A0860E5
:1029E0000BE0DFF82C0A006800E0C068002804D083
:1029F000C168A142F9D1E168C1600020E060012016
:102A0000DFF8B01A0870207D04280BD10A20207549
:102A1000DFF8000A0068E060DFF8F809046002F0FF
:102A200074FA0BE0DFF8F0090068A04202D1FFF76A
:102A3000F3F903E02100012002F02BFA002029E045
:102A4000207D002803D0022832D024D33EE0E08A43
:102A500000281AD0DFF8500A0068A04207D1DFF83A
:102A6000480A0068C068DFF8401A08600BE0DFF829
:102A7000380A006800E0C068002804D0C168A1429C
:102A8000F9D1E168C1600020E0602100012002F07E
:102A900000FA002016BD2000FFF743FF2100DFF8F9
:102AA000180A00F028FF2100022002F0F2F9F0E7F6
:102AB0002100DFF85C0900F01EFF0120DFF8F419A7
:102AC00008702100012002F0E4F9E2E7200000F0A4
:102AD00001F8DFE738B50400002C09D1DFF808352C
:102AE00040F24D12DFF80415DFF8C009FFF7EAFEE7
:102AF000207D032804D0042814D007281CD025E00A
:102B0000200001F036F805006DB2002D01D105203E
:102B100020756DB2002D1BD1200001F0ADFD280005
:102B200040B232BD200001F024F805006DB2002D46
:102B300001D105202075ECE7200001F01AF805000E
:102B40006DB2002D01D109202075E2E70020E8E7F1
:102B50006DB215F1010FE2D1A07E50F00800A07611
:102B60000020DEE780B5017D012903D0817E51F090
:102B7000100181760121FFF7FBFE02BD70B5040054
:102B80000D001600207D012802D17FF00A0026E00A
:102B9000002D12D0A07E50F01000A076002E04D0A0
:102BA00001212000FFF7E4FE19E0606F002804D047
:102BB000606FFFF734FC00206067002E0ED0207D90
:102BC000C01E012801D9001F05D12900C9B220006B
:102BD000FFF7CEFE03E07FF00A0000E0002070BDAA
:102BE0002DE9F04F83B004008B46207D012809D1E8
:102BF000DFF8F4334FF4F072DFF8181ADFF8AC089E
:102C0000FFF760FE207D0A2809D12100DFF80408C3
:102C100000F071FE2100012002F03BF963E0002783
:102C20005FF00008D4F84C90D4F824A0D4F88C506D
:102C30002669207D00281ED1E08A002827D0DFF8F1
:102C400068080068A04207D1DFF85C080068C06827
:102C5000DFF8541808600BE0DFF84C08006800E06B
:102C6000C068002804D0C168A142F9D1E168C16000
:102C70000020E0600BE05F46B4F816802100DFF82A
:102C8000900700F038FE0120DFF828180870E06E89
:102C9000002802D0E06E00F057FCA06E002802D0A1
:102CA000A06E00F051FC206F002802D0206F00F0D1
:102CB0004BFC002F0BD0208B01901FFA88F8CDF829
:102CC0000080231D22005146484601F08FFE207DE2
:102CD0002100012002F0DDF82800002803D07FF059
:102CE0000C013000A847BDE8F78F80B50121FFF740
:102CF00077FF01BDF8B504000D0010000422002D7F
:102D000001D1DFF8B459002C01D0002D02D17FF0A1
:102D1000050053E0217D00290CD0DFF8CC324FF4C0
:102D20001172DFF89819DFF88407FFF7CBFD7FF009
:102D3000050043E080B2002807D100F01EF980B200
:102D4000002825D17FF0010038E0002100E0491C77
:102D500091421DDADFF8583753F821301B6800E044
:102D6000DB68002BF3D0DE8A80B28642F8D1002BDC
:102D70000BD01E68002E08D0002D06D02E68002E25
:102D800003D01E682F68BE42EAD17FF0070015E02D
:102D9000002D08D02968002905D0002D01D100217F
:102DA00000E029682160E082DFF8FC060068E0604E
:102DB000DFF8F406046002F0A8F80020F2BD80B548
:102DC0000800FFF792FF7FF00C0002BD70B506000F
:102DD00014000025307D00280BD0834B4FF42D725A
:102DE000DFF8581ADFF8C406FFF76CFD7FF00E001D
:102DF0004EE0307D012803D135007FF0080047E028
:102E0000022002F012F80500002D02D15FF0FF3021
:102E10003EE030692861F08AE88201202875707DE3
:102E20006875307A2872B07AA872707A68723068E1
:102E30002860F08A00281AD0DFF86C060068B042DB
:102E400007D1DFF864060068C068DFF85C16086028
:102E50000BE0DFF85406006800E0C068002804D0EA
:102E6000C168B142F9D1F168C1600020F060310061
:102E7000012002F00EF8DFF8200AA861DFF838061A
:102E80000068E860DFF83006056002F03EF80020D8
:102E9000002C00D02070280070BD38B50400606A96
:102EA000218D10FA81F0618EB1F5866F02DD4FF44D
:102EB000866100E0618EE26A821A511A002904D408
:102EC000218D6185E16A401A18E0606AE16A401A62
:102ED000012802DB002060850FE0E06A616A451A84
:102EE000B5F5803F08D3404B4FF44272DFF8AC1980
:102EF000DFF88807FFF7E6FC6585002032BD38B5AE
:102F000004000D00207D012808D1374B4FF4487292
:102F1000DFF88C19DFF86407FFF7D4FC208D281840
:102F20002085208DB0F5066F03DD4FF40660208507
:102F300015E0208D002812D1207D072802D0207DA9
:102F4000092803D14FF40660208508E0264B40F2A3
:102F50002D32DFF8401ADFF82407FFF7B3FC20001A
:102F6000FFF79BFFB0F5067F06DBA07E50F0020066
:102F7000A076200001F080FB31BD10B40020FFE7F7
:102F8000DFF8C41A09884A1CDFF8BC3A1A8089B2F3
:102F90004FF6FF72914204D14FF44041DFF8A82A66
:102FA0001180002100E0491CC9B2042916DADFF8BB
:102FB0000025C9B252F82120126800E0D268002A28
:102FC000F1D0D38ADFF8804A2488A342F6D1401C8E
:102FD00080B2B0F5804FD3DB002002E0DFF8680A52
:102FE000008810BC70470000A82D01080853010894
:102FF000944D0108404B0108F0B583B00020DFF884
:103000004C0A0068401CDFF8441A0860DFF8400AE8
:103010000078401CDFF8381A087036E0DFF8F0035B
:103020000068A04209D0DFF82C3A40F28D42DFF868
:10303000281ADFF84806FFF745FCE068DFF8D013F0
:103040000860F6B2002E09D0208B0190E08A009033
:10305000231D2200616AE06C01F0C8FC2669207D16
:103060002100E468012001F014FF0020DFF844147F
:1030700008703800002803D07FF00C013000B847FA
:10308000DFF830040078002805D00025DFF8800341
:10309000046800E0E468002C00F06E81207D0028C8
:1030A00009D1DFF8B0394FF47C72DFF8B019DFF8DE
:1030B000CC05FFF707FC207D012809D1DFF8943902
:1030C00040F2F132DFF89819DFF8B005FFF7FAFBAC
:1030D000207D0A2809D1DFF87C3940F2F232DFF88E
:1030E0008419DFF89805FFF7EDFB607FDFF86019C2
:1030F00009788842CED0DFF8580900786077002739
:103100000026207D022805D194F84200062801DB24
:103110007F1C7CE094F842000C2801DB7F1C76E0E9
:1031200094F89500002827D0DFF83C0994F8951012
:10313000081810F8010C94F89410C0B2814204D21F
:1031400094F89410491C84F8941094F89410C0B228
:1031500081425CD3200001F05DFD002857D10020A2
:1031600084F8940094F89500072850D294F89500BC
:10317000401C84F895004AE0B4F93000002802D4DD
:10318000208E401C2086E06E002840D0B4F930002C
:10319000B4F9401088423ADB207D022815D094F81B
:1031A00042000C2802D294F8420000E00C20B4F94E
:1031B0003C10C910B4F93E208918DFF8B028C0B21D
:1031C000805611FA00F0A4F8400000202086B4F8E0
:1031D0004800B4F85C10884202D2B4F8480001E01C
:1031E000B4F85C0080B24008A4F84A00B4F84A0081
:1031F000618E490089B2884203D2608E4000A4F8F3
:103200004A00608EA4F84800200001F049FC207DAF
:1032100006280AD1A07EC00607D5DFF8300800686E
:10322000216A401A292800D37F1C207A000736D54E
:10323000207D042802D0207D072830D1D4F89000CA
:10324000DFF82C1808184FF4FA71B0FBF1F0DFF832
:10325000FC170968226A891A884202D27F1C761CF0
:103260001DE0D4F8900094F89610DFF8082802FBCF
:1032700001004FF4FA71B0FBF1F0DFF8D0170968E4
:10328000226A891A88420AD2200001F08EFC40B2DC
:10329000002804D194F89600401C84F89600206F12
:1032A000002810D0DFF8A4070068216A401AB4F99A
:1032B0004010062211FB02F1884204D3206F00F077
:1032C00043F900202067207D032807D1DFF87C0721
:1032D0000068216A401A292800D37F1C207D092814
:1032E00007D1DFF868070068216A401AF12800D387
:1032F0007F1CFFB2002F18D0D4F88C70200000F093
:10330000D1FA002D3FF48AAE41480068844209D1C9
:10331000DFF8403740F28942DFF85C17DFF85C03E2
:10332000FFF7D0FAE068E8608BE62500E468E87E05
:10333000401CE876E87E297F8842FFF4ACAE00208E
:10334000E87600205B490870D5F88800002805D091
:1033500029002869D5F88820904700E000205549C9
:10336000097800297FF491AE40B200287FF493AE33
:10337000280001F081F98EE600252648046814E053
:1033800024480068A04208D0DFF8C83640F2CF4297
:10339000DFF8E816B948FFF795FAE0681D490860BC
:1033A0002100E468012001F074FD002C2FD0207D65
:1033B0000A2808D0DFF89C3640F2BD42DFF8C0167C
:1033C000AE48FFF77FFA0027DFF880060068216A21
:1033D000401AF12800D37F1CFFB2002F14D0200028
:1033E00000F060FA002DCBD00A480068844208D172
:1033F000DFF8603640F2CB42DFF888169F48FFF7CF
:1034000061FAE068E860CBE72500E468CDE7F7BD46
:10341000487201204C7201206472012038B5DFF837
:1034200030060078401CDFF82816087029E0DFF825
:10343000200600786077A07EC0070AD5A07E50F0F5
:103440000200A076200001F017F9A07E10F0FC0029
:10345000A076A07E000706D5A07E10F0F700A0762B
:103460002000FFF737FBE568606F00280DD00020D3
:1034700010490870200000F021F80E48007800285C
:1034800003D0DFF80406046800E02C00002C07D00D
:10349000607FDFF8BC1509788842C8D1E468F5E799
:1034A00031BD0000A072012040720120783D01086A
:1034B000DC5101089F72012044720120F8B504001C
:1034C000606F457B666F00206067D4F8800000283D
:1034D00007D00023320021002069D4F88070B8475B
:1034E00005E0002332002100002000F059F840B22E
:1034F00000281CD1A80625D5208DB0F5066F02D076
:10350000208D401C2085D4F88000002807D000239F
:10351000002221002069D4F88040A04700E000206C
:1035200040B210F10D0F0DD17FF00C000BE040B256
:1035300010F10D0F02D17FF00C0004E066677FF000
:10354000040000E00020F2BD10B503E0046800F0C4
:1035500004F820000028F9D110BD10B50400002C9B
:1035600009D06068002802D06068FEF758FF21008B
:10357000032001F08EFC10BD38B50400032001F0DB
:1035800054FC0500002D01D1002008E0102221008C
:10359000280002F08DFB6868FEF7C4FF280032BDEA
:1035A00010B508001400002C07D02189FFF7A7FCF4
:1035B0002000FEF734FF002010BD5BB2002BFAD1D3
:1035C000FFF7D0FAF8E738B5C0B2802801DB7F20DA
:1035D000FFE700230021DFF8B024126812E0547DD9
:1035E000C0B2A0420DD3DFF864442468156A641B9E
:1035F0009C4206D3DFF854040068116A431A110094
:10360000507DD268002AEAD1002902D00800FFF7D5
:103610006CFB31BD2034010838B50400E4B2082C3D
:103620000BD0E4B2092C08D0DFF8283440F2DC5289
:10363000DFF858141148FFF745F900220020DFF8A1
:103640004814096811E00B7DE4B2A3420CD1DFF805
:10365000FC331B680D6A5B1B934205D3DFF8EC0358
:1036600000680A6A821A0800C9680029EBD100289C
:1036700002D00021FFF7B4FA31BD0000783D010807
:1036800010B500220020DFF8081409680DE0DFF80B
:10369000BC331B680C6A1B1B934205D3DFF8AC03D9
:1036A00000680A6A821A0800C9680029EFD1002858
:1036B00001D0FFF71AFB10BD78530108A03D0108A7
:1036C00038B50400012001F0B0FB0500002D54D1F5
:1036D000FFF7D6FF012001F0A8FB0500002D40D127
:1036E0000920FFF799FF012001F09FFB0500002D45
:1036F0002AD10820FFF790FF012001F096FB05007A
:10370000002D14D12000C0B2FFF75DFF012001F0B1
:103710008CFB0500002D0AD0DFF87803D0F8B80044
:103720000088401EDFF86C13D1F8B8100880002D17
:103730000AD0DFF86003D0F8B8000088401EDFF838
:103740005413D1F8B8100880002D0AD0DFF84403D4
:10375000D0F8B8000088401EDFF83813D1F8B81050
:103760000880002D09D0DFF82C03D0F8B8000088BD
:10377000401EC849D1F8B8100880002D2ED09821DD
:103780000022280003F07CFB6C754FF48660A5F8DE
:1037900060004FF406606885688D28854020A87217
:1037A0004FF4067068860620A5F840000620E887DA
:1037B0005FF0FF3028860120A5F84800A348006884
:1037C0002862A348007868774FF48660A5F84A001D
:1037D000B148C5F88000B148C5F89000280032BD56
:1037E00080B54020FFF76CFF02BD002800D00161CA
:1037F000704738B504000D00002C0BD0207D012847
:1038000006D1944B40F2BB62A549A648FFF75AF88F
:10381000C4F8805031BD38B504000D00002C0AD02A
:10382000207D012806D18B4B40F2CC629E499D48F9
:10383000FFF748F8E56731BD0000000024430108A8
:1038400038B504000D00002C0BD0207D012806D1D6
:10385000804B4FF4DC6295499248FFF733F8C4F887
:103860008C5031BD002803D0027D012A00D1816136
:10387000704770B504000D001600207D012806D1A8
:10388000744B40F203728A498648FFF71BF8C4F86C
:103890008850267770BD0000BF2D00085C4B0108E2
:1038A000C83D010810B50400207D002822D0207DED
:1038B0000A281FD0207D01281CD0606F002804D06A
:1038C000606FFEF7ACFD00206067206FFFF73CFEE5
:1038D000002020675FF0FF302086A06EFFF734FEE7
:1038E000E06EFFF731FE0020A066A06EE0660020CB
:1038F000A4F8640010BD10B50C000168A14203D10A
:103900000168C968016009E0006800E0C06800283B
:1039100004D0C168A142F9D1E168C1600020E06033
:103920002000FFF7BFFF207D0A280CD0207D012852
:1039300009D0A07EC00706D5A07E50F00200A07678
:10394000200000F099FE207D01281DD0A06E0028E7
:1039500006D0404B40F2537256495248FEF7B2FF30
:10396000E06E002806D03B4B40F2547252494D485D
:10397000FEF7A8FF206F002806D0364B40F25672A3
:103980004E494848FEF79EFF002020750020E08247
:1039900010BD000048430108494800682B490968E8
:1039A00008184749086046480068704710B5040089
:1039B000080003F099FA002802D1200080B20CE040
:1039C000B0F9220000B2002805D02838A4B280B295
:1039D000844200D30400200080B210BD38B504003A
:1039E000080003E0C568FFF780F92800002805D02B
:1039F000016822689142F5D0C068F7E731BD38B55B
:103A000004000D00002C1ED0206800281BD01E488A
:103A100001682000FFF7E2FF2A4801682000FFF755
:103A2000DDFF002D0FD0286800280CD02648006844
:103A300007E0C168026823689A4201D12A680260DF
:103A400008000028F5D131BD480100203C7201205A
:103A5000A1720120A82D010878390108F438010865
:103A600020390108FC36010864530108CC510108D3
:103A7000B84C0A00F82401004C390108183E01082E
:103A80002C370108F03D010848720120BC510108A3
:103A90004C720120E4660120A135000800DD6D00B4
:103AA000403E0108783D0108683E0108903E01084B
:103AB00044470108AC4D0108784B0108C44D01088A
:103AC0004401002040720120447201202DE9F041A0
:103AD00004000D0010001E000022401910F1140116
:103AE00089B20120FEF710FA0700002F3ED0788936
:103AF000ADB215F11401884208DADFF8EC3A73220E
:103B0000DFF8E81ADFF8E80AFEF7DCFED7F80480F1
:103B1000E08AFEF7C5FEA8F80000208BFEF7C0FE85
:103B2000A8F80200C8F80460606AFEF7BFFEC8F893
:103B30000800ADB2042095FBF0F0401D000350F0EA
:103B4000100080B2FEF7ACFEA8F80C00608DFEF706
:103B5000A7FEA8F80E000020A8F810000020A8F882
:103B60001200606A618D10FA81F0E0623800BDE8F1
:103B7000F08138B50400A06E00281AD0A56E00E0D0
:103B80002D6828680028FBD1E8688089FEF788FE48
:103B9000072108420DD10120FEF782FEE9688989DC
:103BA0000843E9688881A07E50F02000A0760020BC
:103BB00003E00121200000F035FC32BD2DE9F04783
:103BC00081468A4616009846089CE00701D50420E5
:103BD00000E00020A10701D5002100E0002122071C
:103BE00001D5002200E0002208181718032001F078
:103BF0001CF90500002D04D15046FEF710FC0020F2
:103C000052E0AC7200202860C5F804A0BAF80800A1
:103C10003900C9B289B2884208D2DFF8CC39BA2259
:103C2000DFF8D019DFF8C809FEF74CFEBAF8080033
:103C3000FFB2C01B288114215046FEF7E4FB002888
:103C40000DD0DFF8A00DB0F8A400401CDFF8941DE3
:103C5000A1F8A4002800FFF780FC002024E0686899
:103C60004068E860B9F81600FEF71AFEE9680880B7
:103C7000B9F81800FEF714FEE96848804046FEF7E0
:103C800015FEE9684860FFB2042097FBF0F0401D84
:103C9000F6B256EA003080B2FEF702FEE96888818B
:103CA0000020E96848822800BDE8F08770B50C0064
:103CB0001D002300A4B292B2944220D20599890734
:103CC0000CD4049EB17E490619D40699002905D06A
:103CD000B16E002902D1F16E002910D092B2A4B2C7
:103CE00004F21B21890889008A4201D2130006E0F0
:103CF000A4B204F21B214FF6FC7212EA0103002267
:103D0000190089B2C0B2FEF7FFF80600002E01D1FB
:103D1000002013E03068002809D0DFF8CC384FF4D9
:103D20008872DFF8F01BDFF8C808FEF7CBFD70895A
:103D3000001B2880348130897081300070BD80B5CF
:103D4000027D042A0BD0027D072A08D0027D022AB8
:103D500005D0027D032A02D07FF00A0050E089B22C
:103D6000002901D100204BE0B0F8602089B28A42DE
:103D700006D2817E51F0800181765FF0FF303FE016
:103D8000B0F86210092905DAB0F862104FF6FD723A
:103D900091420FD3DFF84C1CB1F89C10491CDFF89E
:103DA000442CA2F89C10817E51F0800181765FF056
:103DB000FF3025E0B0F86210002910D0C16E002954
:103DC0000CD1806E002809D1DFF81C384FF4AB729B
:103DD000DFF8141CDFF81808FEF774FD0FE0C16E61
:103DE000002902D1806E002809D0DFF8FC3740F2AC
:103DF0005912DFF89C1CDFF8F807FEF763FD00207E
:103E000002BD2DE9FE4F88B0040000200690002678
:103E10005FF0000B0020079000255FF000090020F4
:103E20008DF80E0000208DF80F000020ADF80C007A
:103E30000020ADF810000020ADF81400B4F85E00CA
:103E4000022190FBF1F0618E814201DA678E04E07D
:103E5000B4F85E00022190FBF1F7BFB2002F00D151
:103E6000678E089800280CD1DFF87C374FF4C972B0
:103E7000DFF8201CDFF87807FEF724FD7FF00F0045
:103E800002E1BDF824102000FFF759FF40B20028DE
:103E900001D040B2F8E0B4F86280A06E002800F0D3
:103EA0004681A66E00E0366830680028FBD1B07A03
:103EB000C00701D5042000E00020B17A890701D5B0
:103EC000002100E00021B27A120701D5002200E0B3
:103ED0000022081812EB000ABFB230891FFA8AFAD2
:103EE0001AFA80F0874209DADFF8FC3640F2C7128E
:103EF000DFF8A41BDFF8F806FEF7E4FC3089381A77
:103F0000B0EB0A0AB4F86400ADF80C00BDF80C0080
:103F100000283DD0BDF80C001FFA8AFA824509D26C
:103F2000DFF8C43640F2D912DFF8701BDFF8C006A4
:103F3000FEF7C8FCB346BDF80C00BDF8241088425B
:103F400002D2BDF80C0001E0BDF824001FFA8AFA85
:103F5000824501DA50460AE0BDF80C00BDF8241095
:103F6000884202D2BDF80C0001E0BDF82400ADF893
:103F70001000BDF8100010EB0909BDF80C00BDF8E9
:103F80001010401AADF80C00BDF81000BAEB000A92
:103F9000BDF80C0000280FD0BDF824001FFA89F9E5
:103FA000814509D0DFF8403640F2E112DFF8601CAD
:103FB000DFF83C06FEF786FCBDF824001FFA89F9FD
:103FC000814580F0D7801FFA8AFABAF1000F00F01D
:103FD000D1803089002800F0CD801FFA8AFABDF820
:103FE00024001FFA89F9B0EB0900824502DAADF826
:103FF00012A005E0BDF82400B0EB0900ADF81200F6
:10400000B3469DF82800C00754D5012002909DF8C2
:1040100028000190009403AB524692B2BDF81210F2
:104020000420FFF743FE0690002830D1A07E50F018
:104030008000A076DFF8AC09B0F89C00401CDFF8E7
:10404000A419A1F89C000698002802D00698FEF753
:10405000E6F9002D02D02800FFF776FAB4F86200E6
:1040600000280FD0E06E00280CD1A06E002809D1E6
:10407000DFF8743540F20232DFF8881CDFF8700593
:10408000FEF720FC5FF0FF300BB0BDE8F08FBDF80D
:10409000122008981FFA89F919EB00010698D0F848
:1040A00004A0504601F004FE0698FEF732FA10EB29
:1040B000080837E0706800E0006801680029FBD15B
:1040C000017B012919D1416840894018089988422B
:1040D00013D11FFA89F9B9F1000F09D0DFF80835BB
:1040E0004FF40372DFF8201CDFF80405FEF7EAFB4B
:1040F000BDF81200ADF8140014E00122BDF8121052
:104100000420FDF701FF069000288FD008981FFAC1
:1041100089F919EB0000069948600698FEF7F9F94D
:1041200010EB0808BDF8120010EB090922E0B4F802
:104130006400002809D0DFF8B03440F22522DFF80F
:10414000CC1BDFF8AC04FEF7BDFB13E0079800289A
:1041500009D1DFF8943440F28522DFF8B41BDFF890
:104160009004FEF7AFFB0798C0F800B0CDF81CB084
:104170001AEB0909BDF824001FFA89F9814580F07E
:10418000A980BDF82400B0EB09009DF80E10B7EB34
:10419000010A80B21FFA8AFA504501D28246FFE72F
:1041A0009DF82800C0073CD5002D01D1012000E07A
:1041B0000020C0B202909DF828000190009403AB4B
:1041C0003A0092B29DF80E005AFA80F189B20020AE
:1041D000FFF76CFD834600283FF428AFBBF80A00C8
:1041E0001FFA8AFA504509D2DFF8FC3340F2412227
:1041F000DFF8201BDFF8F803FEF764FB1FFA8AFAEA
:10420000524608981FFA89F919EB0001DBF80400FF
:104210009DF80E3018180090009801F049FD0098A4
:1042200030E0BDF80C00002809D0DFF8BC3340F2C4
:104230004B22DFF8E41ADFF8B803FEF743FB012254
:10424000514689B20020FDF75FFE009000283FF440
:10425000EDAE08981FFA89F919EB00000099486043
:1042600000229DF80E1089B20020FDF74DFE834616
:10427000002803D10098FEF7D2F8D7E600995846F7
:10428000FEF769F95846FEF744F910EB08081FFAE3
:1042900088F8B8F10A0F05DA1FFA88F84FF6FD70B2
:1042A000804503D35846FEF7BAF8BFE69DF80F00E5
:1042B0000090A06D10FA89F3002259462000FFF704
:1042C0007DFC834600283FF4B1AE002D7FF43EAF65
:1042D0005D464BE7BDF81000002820D0776817E056
:1042E0003889BDF8101008183881386800280ED1B8
:1042F000BDF81020089978687B8913EB00094846BF
:1043000001F0D6FC7889BDF81010081878813F6854
:10431000002FE5D13089BDF8101008183081BDF8A4
:104320000C00A4F864000698002813D0002E07D1D2
:10433000AD4B40F2BB22DFF8E419AD48FEF7C2FAFC
:1043400006997068FEF707F93089069909890818F7
:1043500030812AE0BDF81400002826D0002E02D0BB
:104360007068002807D1A04B40F2C122DFF8B019D5
:104370009F48FEF7A7FA706805E00189BDF8142090
:1043800051180181006801680029F6D10189BDF842
:104390001420511801814189BDF814205118418120
:1043A0003089BDF8141008183081002E01D1A5669F
:1043B00000E03560A06DBDF8241010FA81F0A06512
:1043C000B4F86000BDF82410401AA4F86000A4F806
:1043D0006280B4F8620000280DD0E06E00280AD197
:1043E000A06E002807D1804B40F2ED22DFF81419AF
:1043F0007F48FEF767FABBF1000F11D0DBF80C0025
:1044000000280DD09DF82800800709D40820FEF769
:1044100047FADBF80C1089890843DBF80C10888117
:10442000002031E62DE9F04182B004000D000026A5
:104430005FF000080320054208D16B4B40F21B32AD
:10444000DFF8E018DFF8E008FEF73CFAB4F86200A5
:10445000092805DAB4F862004FF6FD71884211D3DD
:10446000E8070FD4DFF87C05B0F89C00401CDFF8AB
:104470007415A1F89C00A07E50F08000A0765FF03B
:10448000FF30AFE0A80700D50126F00701D50420D2
:1044900000E00020B10701D5002100E00021320733
:1044A00001D5002200E00022081812EB00080022CB
:1044B0005FFA88F8414689B20020FDF725FD070024
:1044C000002F0FD1A07E50F08000A076DFF81405F9
:1044D000B0F89C00401CDFF80C15A1F89C005FF0C0
:1044E000FF307FE078895FFA88F81FFA88F8404546
:1044F00008D23D4B40F24132DFF83018DFF828088F
:10450000FEF7E0F9F6B20096A36D2A00D2B23900A8
:104510002000FFF753FB0600002E0FD1A07E50F0C5
:104520008000A076DFF8BC04B0F89C00401CDFF8E7
:10453000B414A1F89C005FF0FF3053E0F068042150
:10454000B0FBF1F202FB1102002A08D0264B40F228
:104550004932DFF8DC17DFF8D007FEF7B3F930890E
:10456000002808D0204B40F24A32DFF8C817DFF8A5
:10457000B807FEF7A7F9A06E002801D1A66606E0ED
:10458000A06E00E0006801680029FBD106600020F1
:10459000A4F864000320054202D0A06D401CA06571
:1045A000E80703D5A07E50F02000A0767068FDF7E4
:1045B000B0FFB4F862104018A4F86200B4F86200CA
:1045C00000280ED0E06E00280BD1A06E002808D184
:1045D000054B40F26D32DFF86017DFF84C07FEF74D
:1045E00071F90020BDE8F681C82C01088C3701085C
:1045F000803F0108F44D010870B584B00400002527
:10460000E06CFEF753F903000022EDB2290089B2F5
:104610002000FFF75BFA0600002E06D1A07E50F0C6
:104620000300A0767FF0010024E0201D02F05CFC76
:10463000002802D17FF003050BE0029006200190D4
:10464000607A0090A37A221D2100300002F0DFFD85
:1046500005003000FDF7E3FE6DB2002D04D0A07E12
:1046600050F00300A07603E0A07E10F0FC00A076DE
:10467000280040B204B070BD2DE9F0470400207D51
:10468000012809D1DFF8B43640F2ED32DFF8B01678
:10469000DFF89406FEF716F9DFF8A8060068A042D6
:1046A00001D100206FE0B4F85C00B4F848108842F3
:1046B00002D2B4F85C6001E0B4F84860A56EA07E58
:1046C000800710D5002D0AD0E8684068FEF7EEF8A4
:1046D000616C401A298910FA81F0864203D22000C9
:1046E000FFF78AFF4FE0E76E002F04D000E03F683D
:1046F00038680028FBD1201D02F0F6FB8046B8F197
:10470000000F02D17FF003003DE0002C02D02068B2
:1047100000280DD1B8F1000F02D018F1040000E01C
:104720000020002802D17FF003002CE00068206008
:10473000002D2ED0E8684068FEF7B8F8616C401A8A
:10474000298910FA81F0864223D2002E21D0B4F8B4
:104750005C0086421DD1E06E00281AD194F89500C5
:10476000002805D1002084F89400012084F89500E9
:10477000A06E002802D10020A4F86400A07E10F0F2
:104780007F00A0760020BDE8F0872800FEF7E5FE58
:10479000A56E002DECD0E8684068FEF787F8616CE4
:1047A000401A298910FA81F08642E1D3E8688089AD
:1047B000FEF776F8400709D5DFF8803540F246422B
:1047C000DFF88415DFF86005FEF77CF8E06E00285E
:1047D00017D0A07E4421084213D1A06E002808D033
:1047E000A06E006800280CD1A06E0089618E8842FE
:1047F00007D2B4F86000002803D0B4F8620009289A
:1048000001DB012000E00020002803D1A07EA021D0
:104810000842ADD0207D022807D01020FEF740F8D6
:10482000E96889890843E9688881424621002800AF
:1048300000F072F840B2002805D0A17E51F080014E
:10484000A17640B29FE72868A066207D022803D0A9
:10485000A07E10F0FC00A076E8684068FEF726F81D
:104860008146E8688089FEF71BF80321084201D0E1
:10487000012000E00020298919FA81F14018E16C3B
:10488000091A002900D5E064E8688089FEF708F875
:104890000321084201D0012000E00020298910FAFC
:1048A00081F000283FF471AF00202860E06E0028FE
:1048B00002D1E5662F006BE7E8684068FDF7F6FF78
:1048C0008146F8684068FDF7F1FFB9EB0000002869
:1048D0001DD514F16C0901E0D9F80090D9F8000059
:1048E00000280ED0D9F80000C0684068FDF7DEFF50
:1048F0008246E8684068FDF7D9FFBAEB000000285F
:10490000EAD4D9F800002860C9F8005040E73D60BB
:104910003F683DE7D04F0108FEB504000D001600CA
:104920006068C089012801D0002059E0686AFDF75D
:10493000BDFFE1688860688DFDF7B2FFE168C8815E
:10494000686A698D10FA81F0E862E06810F1140776
:10495000A07AC0070BD5291D4FF40670FFF726F883
:1049600080B250F00170FDF7A1FF38603F1DB5F92E
:104970003000002801D500202886686B002808D167
:10498000DFF8C80300686863E0684068FDF78EFFE1
:10499000A863E06861684968401A61684989091A32
:1049A0006268518161680989081A61680881E06854
:1049B000616848600020E16808820A48B0F8900009
:1049C000401C0849A1F89000029606200190687AE0
:1049D0000090AB7A2A1D2900606802F018FC40B2F2
:1049E000FEBD0000E4660120B83001082DE9FE4359
:1049F0008046894614001D00002214210120FDF785
:104A000083FA0600002E40D07089142806D2CB4BC2
:104A100040F24D52CE49C448FDF754FF77680A98DA
:104A2000FDF73EFF38800B98FDF73AFF788040464F
:104A3000FDF73CFF78604846FDF738FFB86045F267
:104A40001400FDF72DFFB88146F20800F881002020
:104A5000388200207882BF48B0F89000401CBD49E1
:104A6000A1F89000280002F03FFA00280AD0029036
:104A7000062001900020009040232A0021003000F1
:104A800002F0C5FB3000FDF7CAFCBDE8F78300006B
:104A900054340108883401080C4E01080448010808
:104AA00080B5C16E002918D0C16E00E009680A689F
:104AB000002AFBD1826E0A60C16E81660021C16648
:104AC00090F84210FF2904D090F84210491C80F859
:104AD000421000214163FFF7CFFD01BDF8B504008E
:104AE000E06E00282AD0E56E2868E06614F16806BA
:104AF00000E03668306800280CD03068C068406834
:104B0000FDF7D4FE0700E8684068FDF7CFFE381ACD
:104B10000028EED43068286035602868002802D16B
:104B20000020A4F8640094F84200FF2804D094F810
:104B30004200401C84F8420000206063F1BD10B5C3
:104B40000400E06E00282FD0A07E40072CD4200067
:104B5000FFF7C4FFB4F84800B4F85C10884202D2F2
:104B6000B4F8480001E0B4F85C00022190FBF1F0D9
:104B7000A4F84A00B4F84A00618EB0EB410F04D2A9
:104B8000608E80B24000A4F84A00B4F84A00618EFA
:104B90000322514311FA80F0A4F84800A07E50F09F
:104BA0000400A0760020208610BD3EB50500E86C0C
:104BB000401EFDF77BFE0300002200212800FEF7C7
:104BC00085FF0400002C02D15FF0FF301FE0281D9C
:104BD00002F08AF9002802D17FF0030512E05D4956
:104BE000B1F89010491C5B4AA2F890100290062080
:104BF000019000200090AB7A2A1D2900200002F0CD
:104C000006FB05002000FDF70AFC280040B23EBD6F
:104C1000244801082DE9F04184B00400E56E002D20
:104C200000D1A56E002D01D1002068E0E8688089E0
:104C3000FDF736FEC00705D52889002802D15FF0B0
:104C4000010801E05FF000085FFA88F8B8F1000F92
:104C500001D0002200E00122E868436892B20021FE
:104C60002000FEF733FF0600002E02D15FF0FF3078
:104C700045E077685FFA88F8B8F1000F09D0112095
:104C8000FDF70EFEB9894CF2FF0211400843B881CE
:104C90000BE0706810F11401686800892A89831A92
:104CA0009BB201226868FDF731FDE8684068FDF7B6
:104CB000FDFD401CE16C091A002900D5E064201DAF
:104CC00002F012F9002802D17FF0030412E021491A
:104CD000B1F89010491C1F4AA2F8901002900620CB
:104CE000019000200090A37A221D2100300002F0E4
:104CF0008EFA04003000FDF792FB200040B204B0B1
:104D0000BDE8F08144480108283A0108BC37010891
:104D1000E44F0108442F01082C5201081032010809
:104D200048320108E4250108803F0108F4300108F9
:104D3000244E0108543A0108A83F0108C82C010874
:104D4000D03F0108647201203C4E01083C720120F2
:104D50008C370108E46601200021C2681160816877
:104D6000C91C8A089200002107E0C3681B68136011
:104D7000C3681A6083889A18491CC3889942F4DB77
:104D8000C18800684180704710B5002411E04C488C
:104D9000A4B250F82400FFF7DFFF4948A4B250F84E
:104DA000240000684749A4B211EB8401C1F8B400A3
:104DB000641CA4B20D2CEAD310BD70B5040000F041
:104DC0002DFB0500E0680668002E24D03068E168FD
:104DD00008600420B6FBF0F101FB1061002906D049
:104DE000394B40F2491239493948FDF76BFD2068CB
:104DF0008088401C216888802068C0882168898854
:104E0000884203D2206880882168C880280000F08A
:104E10000EFB300008E020680088401C21680880F4
:104E2000280000F004FB002070BD80B5C0B20D2842
:104E300008DB254B40F2871226492548FDF742FD45
:104E4000002005E01E49C0B251F82000FFF7B5FF71
:104E500002BD38B504000D000420B5FBF0F101FBE4
:104E60001051002906D0184B40F29D121A491848DB
:104E7000FDF728FD00F0D2FA21688988491E2268D2
:104E80009180E16809682960E1680D6000F0CFFA5F
:104E900031BD80B5C0B20D2807DB0B4B40F2DB12F1
:104EA0000E490B48FDF70EFD07E0002905D0044A26
:104EB000C0B252F82000FFF7CCFF01BD0000000097
:104EC00084330108E46601204C2B0108704201087C
:104ED000B03C0108C4460108E4460108604A0108E4
:104EE00080B5FDF702FD8A480068002803D1894893
:104EF0000068002805D000228749FA2000F039F820
:104F000002E000208549086001BD80B58348006843
:104F100000280FD17E480068002803D17D48006832
:104F2000002807D001207D49086000227A49FA2034
:104F300000F01FF801BD10B5040060688047220032
:104F40007749206800F015F810BD10B5012409E07C
:104F5000744810EBC4027249724850F8340000F0F3
:104F600008F8641C032CF3D302F098FC6E49086027
:104F700010BDF8B504000E0017000A20FFF755FF1A
:104F80000500002D08D1002D05D1684BD4226849B9
:104F90006848FDF797FC52E002F080FC664909681A
:104FA000002903D10021604A106002E05E490968CF
:104FB000411A00202860AE60EF60081968605E4802
:104FC0000068002802D15C48056038E05A48006853
:104FD000406884420CD2584800684068001B56491B
:104FE000096848605448006828605348056026E016
:104FF0005148006800E00068002820D069684268D5
:10500000891A69600168002904D0696802685268D9
:105010009142F0D20168002906D0016849686A68A7
:10502000891A0268516007E069688C4204D24249DB
:105030000968496809196960016829600560F1BD5E
:10504000F8B53D48006800282BD002F027FC36490F
:105050000968441A00253848016800291ED04868AC
:1050600084421BD30125304800684A6810182E4A34
:1050700010604868241A08682F4A10608E68CF684C
:105080000A20FFF706FF3000002807D02B4800F069
:10509000A3F93800B047294800F0A5F9EDB2002D7A
:1050A000D8D1F1BD80B524480068002802D15FF056
:1050B000FF300FE002F0F2FB1B490968401A1E495D
:1050C00009684968814201D2002003E01A49096851
:1050D0004968081A02BD38B504000D0001E0FFF769
:1050E000AFFF15480068002805D1002229002000E4
:1050F00000F089F80BE0FFF7D5FF0028EFD00200A1
:105100002900200000F07FF810F1010FE7D031BD39
:10511000487201204C720120E14E0008807201208B
:10512000374F0008544E01087C720120182A0108EC
:10513000842F010820400108787201207472012038
:105140001CB50400BD48D0E90023CDE9002300913F
:10515000002100A802F0E0FC2060B948B0F8F4009B
:10516000401CB749A1F8F400B548B0F8F600B449BE
:10517000B1F8F410884205D2B148B0F8F400B04953
:10518000A1F8F6002068002802D15FF0FF3000E0AF
:10519000002016BD10B50400206802F04DFD002867
:1051A00006D0A748B0F8F800401CA549A1F8F800BF
:1051B000206802F04FFDA248B0F8F400401EA0495C
:1051C000A1F8F40010BD38B504000D005FF0FF3207
:1051D0002900206802F0A7FC0028F7D131BD80B576
:1051E0000022006802F09FFC002801D1002008E0A6
:1051F0005FF0FF309249B1F8F810491C904AA2F8CC
:10520000F81040B202BDFEB504000D00160002F019
:1052100060FB0700002E10D03200216800A802F0C9
:10522000B2FC0098102805D10198286002F051FBCB
:10523000C01B0DE05FF0FF300AE05FF0FF32216835
:1052400000A802F0A0FC0198286002F042FBC01BFD
:10525000FEBD10B584B00C000022016800A802F069
:1052600092FC0098102803D101982060002001E0F2
:105270005FF0FF3004B010BD0068002801D10020AD
:1052800000E00120704700210160704738B504003C
:105290000D006C4800680090012100A802F0B5FBE9
:1052A00020602068002809D16548B0F8EC00401C57
:1052B0006349A1F8EC005FF0FF301CE0EDB2002D77
:1052C00003D10021206802F0B5FB5D48B0F8E8008A
:1052D000401C5B49A1F8E8005948B0F8EA00584979
:1052E000B1F8E810884205D25548B0F8E8005449B2
:1052F000A1F8EA00002032BD70B504000D0002F0F4
:10530000E8FA0600002D0CD02900206802F092FB7C
:10531000002803D102F0DDFA801B0CE05FF0FF30C3
:1053200009E05FF0FF31206802F084FB0028F8D12B
:1053300002F0CFFA801B70BD80B5006802F0B6FBAA
:1053400001BD80B53E49B1F8E810491E3C4AA2F8BB
:10535000E810006802F0D3FB01BD0068002801D10D
:10536000002000E00120704700210160704780B5F7
:10537000354802F0E0FA3549086001BD10B582B049
:10538000040033480068009000A802F0D4FA2060BE
:105390002068002809D12A48B0F8F200401C2849AA
:1053A000A1F8F2005FF0FF3015E02548B0F8EE00FC
:1053B000401C2349A1F8EE002148B0F8F000204934
:1053C000B1F8EE10884205D21D48B0F8EE001C4935
:1053D000A1F8F000002016BD80B55FF0FF31006835
:1053E00002F0AEFA01BD80B5006802F0E5FA01BD39
:1053F000F0B585B006000F0014001D0000A81421B0
:1054000002F036FC009601970A98ADF80800049562
:10541000210000A802F068FA05B0F0BD80B55FF089
:10542000FF310A48006802F08BFA012002BD80B506
:105430000648006802F0C0FA01BD00004C530108A4
:10544000E46601208053010888530108FC710120A3
:105450008453010880B578480068002804D0774854
:1054600000687549096888477548FFF7B5FF05E08A
:10547000744B692274497548FDF724FA7048FFF7A8
:10548000B2FF00A97248FFF726FE6D48FFF7A4FFA0
:1054900000980028ECD000980078022804D01FD390
:1054A000042817D00CD31BE000988168009840684E
:1054B000009AD268904700990920FFF7EAFCDDE7DF
:1054C0000098806800994968884700990820FFF78C
:1054D000E0FCD3E700988068009949688847CDE7E9
:1054E000584B9B2258495948FDF7ECF9C6E7F8B5E7
:1054F00004000D0016005648FFF7BEFE002805D137
:10550000504BB52253495148FDF7DCF90920FFF70C
:105510008CFC0700002F02D15FF0FF3012E0022068
:1055200038707C60BD60FE6039004948FFF757FE67
:10553000002806D039000920FFF7ABFC5FF0FF30F0
:1055400000E00020F2BD80B591F82B2018231A420C
:1055500003D0414AFFF7CBFF02E0404AFFF7C7FF05
:1055600002BDF8B504000D0016003948FFF784FEAF
:10557000002805D1334BEE2236493448FDF7A2F915
:105580000820FFF752FC0700002F02D15FF0FF3028
:105590000BE0032038707C60BD60F6B2002E05D0B1
:1055A00039002B48FFF70FFE0020F2BD39002848D4
:1055B000FFF715FE0028F7D039000820FFF769FC37
:1055C0005FF0FF30F1E738B504000D001C48FFF72D
:1055D00003FF2800A0471A48FFF705FF002032BD4F
:1055E00038B504000D0002F047FB1348046013486F
:1055F000056006211648FFF7A3FD002806D0114BD1
:1056000040F2D51216491148FDF75CF90C48FFF736
:10561000B5FE002806D00B4B40F2D91211490B48B9
:10562000FDF750F9032000904FF4806300220E49EB
:105630000E48FFF7DDFE31BD687201206C7201205B
:1056400074720120142D010864480108F83F010814
:10565000707201203C520108C1F40008776F000805
:105660006C43010890430108555400084C5201084E
:1056700010B50400DFF8E0050068844209D2DFF8C5
:10568000DC3540F25D12DFF8D815DFF8D805FDF7FC
:1056900019F9DFF8D4050068844209D3DFF8BC3576
:1056A0004FF4AF72DFF8C415DFF8B805FDF70AF95B
:1056B0002079002809D0DFF8A43540F25F12DFF826
:1056C000B015DFF8A005FDF7FDF82088B0F5C86F2C
:1056D00009D9DFF888354FF4B172DFF89815DFF893
:1056E0008405FDF7EFF8DFF87005006821880818D9
:1056F00084421BD00179002918D1DFF86C150968A4
:10570000884213D0DFF870150968814202D1DFF8B2
:1057100068150C6001882180DFF83C150968611A62
:10572000DFF834251268008880184180DFF82805EA
:10573000006861880818A04216D00179002913D1A9
:10574000DFF834150968A14202D1DFF82C15086092
:1057500021880180DFF800150968401ADFF8F81485
:10576000096822885118488010BD80B5DFF80C0503
:1057700080088000DFF8E0140860DFF8DC040068CF
:105780004FF4C86101800021418000210171DFF8E0
:10579000C804006810F5C860DFF8CC140860012068
:1057A000DFF8C414096808714FF4C860DFF8B81452
:1057B000096808804FF4C860DFF8AC1409684880B5
:1057C000DFF894040068DFF8B01408604FF4C86094
:1057D000DFF8AC14A1F8AA00DFF8A804FFF7CEFDAB
:1057E000002809D0DFF874344FF4CC72DFF8981435
:1057F000DFF87004FDF766F801BD10B50400002C59
:1058000075D014F00300002809D0DFF850344FF4AD
:10581000D672DFF87814DFF84C04FDF753F8DFF8A0
:1058200038040068844204D3DFF83C0400688442F2
:1058300009D3DFF8283440F2AF12DFF85414DFF850
:105840002404FDF73FF8DFF810040068844204D315
:10585000DFF814040068844213D3FFF7DFFD04006F
:10586000FFF7DCFDDFF81814B1F8B010491CDFF8C1
:105870001024A2F8B010FFF7DAFD2000FFF7D7FDE3
:1058800035E0DFF80004FFF7A7FD083C2079002889
:1058900009D1DFF8C8334FF4E072DFF8F813DFF80E
:1058A000C403FDF70FF800202071DFF8CC03006877
:1058B000844202D2DFF8C0030460FFF7AFFDDFF8D7
:1058C000C013B1F8AC102288891ADFF88C23126853
:1058D000A21A5118DFF8A823A2F8AC10FFF7A7FD11
:1058E0002000FFF7C5FEDFF89C03FFF77CFD10BD2D
:1058F0002DE9F04104000D00ADB2E81C4FF6FC713B
:1059000011EA0005ADB20C2D00D20C25ADB2B5F5F3
:10591000C86F01D90020BEE0DFF83C030068844274
:1059200004D3DFF844030068844209D3DFF82C3342
:105930004FF4FA72DFF86013DFF82803FCF7C2FFB8
:10594000C5480068844203D3C7480068844212D324
:10595000FFF764FD0500FFF761FDC949B1F8B0101C
:10596000491CC74AA2F8B010FFF761FD2800FFF7F5
:105970005EFD20008FE0B4F10807B7480068B7EB80
:10598000000838881FFA88F8B0EB0800B0F1080664
:10599000B6B2ADB2AE4206D2B04B40F20622BF491B
:1059A000B048FCF78FFFB6B2ADB2AE4201D20020D4
:1059B00071E0ADB2B6B2B54201D120006BE0B148A2
:1059C000FFF70AFDA448006839880A1810790028F2
:1059D0002DD1108815EB08010831A74B1B689342A5
:1059E00005D19D4A126889B28A18A34B1A609A4A57
:1059F000126889B28A18002313711080A2F80280FD
:105A000039801088B0F5C86F04D0934800681288B8
:105A100010184180FFF702FD9949B1F8AC10891BBD
:105A20006918974AA2F8AC10FFF701FD2FE0B6B253
:105A3000ADB215F11400864229D315EB080010F120
:105A400008018548006889B20A188B4800688242BC
:105A500001D2894802600020107138881080A2F8B5
:105A6000028039801088B0F5C86F04D07A48006889
:105A7000128810184180FFF7D1FC8149B1F8AC10B1
:105A8000891B69187E4AA2F8AC10FFF7D0FC7D484C
:105A9000FFF7A9FC2000BDE8F08138B50400A4B2EE
:105AA000002C01D10020D5E0A4B2E01C4FF6FC711F
:105AB00011EA0004A4B20C2C00D20C24A4B2B4F558
:105AC000C86F01D90020C5E06E48FFF785FC6A4821
:105AD000006861490968401A03E05F49096880B2BB
