:020000040800F2
:1000000040BA002019FB0008B1F00008B3F0000866
:10001000B5F00008B7F00008B9F0000800000000D3
:100020000000000000000000000000002DCA0008D1
:10003000BBF0000800000000D5C90008F3C40008A8
:10004000CDFC0008D1FC0008D5FC0008D9FC000854
:10005000DDFC0008E1FC000855FC0008E5FC000898
:10006000E9FC0008EDFC0008F1FC0008F5FC0008C4
:10007000F9FC0008FDFC000801FD000805FD000872
:1000800009FD00080DFD000811FD000815FD000820
:1000900019FD00081DFD000821FD000825FD0008D0
:1000A00029FD00082DFD000831FD000835FD000880
:1000B00039FD00083DFD000841FD000845FD000830
:1000C00049FD00084DFD000851FD000855FD0008E0
:1000D00059FD00085DFD000861FD000865FD000890
:1000E00009FB000869FD00086DFD000871FD0008AE
:1000F000BDF0000875FD000879FD00087DFD0008D1
:1001000081FD000885FD000889FD00088DFD0008BF
:1001100091FD000895FD000899FD00089DFD00086F
:10012000A1FD0008A5FD0008A9FD0008ADFD00081F
:10013000B1FD0008C7F00008B5FD0008B9FD0008D2
:10014000BDFD0008C1FD0008C5FD0008C9FD00088F
:10015000CDFD0008D1FD0008D5FD0008D9FD00083F
:10016000DDFD0008E1FD0008E5FD0008E9FD0008EF
:10017000EDFD0008F1FD0008F5FD0008000000009D
:10018000F9FD0008FDFD000801FE000805FE00085D
:1001900009FE00080DFE000811FE000815FE00080B
:1001A000000000000000000019FE00087CB50400FB
:1001B0006068DFF8E81708606089142803DA200017
:1001C00002F0C1F873BDDFF8D8070168DFF8D00787
:1001D000406902F0D3FA002806D1DFF8C407007D99
:1001E00010F0F000E02800D1E9E7DFF8B007006880
:1001F000808902F0E9FA80B2000BC0B28000C0B280
:10020000142805DB21890200D2B292B2914200D2B9
:10021000D5E7C0B2B0F11401DFF8882711800021C2
:10022000DFF88427116061890200D2B292B2914254
:100230000CD3DFF870170988DFF870271180C0B27F
:10024000414209B2200002F072F852E02068002812
:1002500008D1DFF8203DB222DFF85417DFF8180D7F
:1002600002F0C4FA7FF01301200002F060F8608908
:10027000DFF838170880DFF82C070088DFF82C1724
:100280000988451ADFF82407B0F9000000B241429E
:1002900009B2200002F04BF820684089ADB2A842B4
:1002A0008DD320684068DFF8001708602DB26942DE
:1002B00009B2206802F03BF82089401B2081608948
:1002C000002808D0DFF8AC3CCF22DFF8E816DFF8D2
:1002D000A80C02F08BFA208921680989884208D08D
:1002E000DFF8903CD022DFF8D016DFF88C0C02F05B
:1002F0007DFADFF8A8060068008802F065FADFF8EA
:100300009C1609680880DFF894060068408802F0AF
:100310005BFADFF8881609684880DFF88006006815
:10032000406802F057FADFF8741609684860DFF891
:10033000D81C0860DFF864060068806802F04AFA9A
:10034000DFF8581609688860DFF8C01C0860DFF81D
:100350004C060068C08902F037FADFF840160968D9
:10036000C881DFF838060068808902F02DFA10F0A5
:100370003F00DFF89C1C0870DFF8940C0078032124
:10038000084201D0012000E0002021894018DFF858
:10039000841C08800025DFF8800C066801E0350029
:1003A000F668002E60D0307D002808D1DFF8C43B0D
:1003B000E222DFF8681CDFF8C00B02F017FA307D8C
:1003C0000A2808D1DFF8AC3BE322DFF8541CDFF841
:1003D000A80B02F00BFA307D012808D1DFF8943B1E
:1003E000E422DFF8401CDFF8900B02F0FFF9308BBD
:1003F000DFF8A815096809888842D0D1F08ADFF8AB
:100400009C15096849888842C9D17068DFF8901541
:1004100009698842C3D13068DFF884154969884288
:10042000BDD1F068B04208D1DFF8483BEC22DFF8DC
:10043000F81BDFF8440B02F0D9F9002D08D0F06862
:10044000E860DFF8D40B0068F060DFF8CC0B0660E2
:10045000F068B04208D1DFF81C3BF422DFF8CC1B77
:10046000DFF8140B02F0C2F9002E61D1DFF8C00BE7
:10047000066800E0F668002E2CD0307D0A2808D0EF
:10048000DFF8F03AFE22DFF8AC1BDFF8EC0A02F0EE
:10049000ADF9308BDFF80415096809888842E9D185
:1004A000F08ADFF8F814096849888842E2D1706858
:1004B000DFF8EC1409698842DCD13068DFF8E01419
:1004C00049698842D6D1300000F01CFA200001F0C2
:1004D0003AFF77E60025DFF8600B006801E00500D1
:1004E000C068002811D0C18ADFF8B0241268528891
:1004F0009142F4D10168DFF8A8245269914204D0F6
:10050000002802D001680029E9D1002810D0002D70
:1005100008D0C168E960DFF8201B0968C160DFF816
:10052000181B086000F058F9200001F00CFF49E6A4
:10053000002E00F00C810020DFF8001B08602089ED
:10054000DFF8F81A0881DFF8F40A4460DFF84C0499
:100550000068DFF8E81AC8600020DFF8E41A0860D5
:100560000020DFF8E01A08700020DFF8DC1A0880AD
:10057000DFF89C0A0078000703D5607B50F001008B
:100580006073706F002814D0300002F0EFFD10F19E
:100590000D0F07D0706F00280BD0DFF8780A0088A5
:1005A000002806D0708D002802D1300003F0F8F941
:1005B000B6E0DFF8980A0660300000F0FFF940B2BC
:1005C00010F10D0F00F0AC80DFF8780A007800071A
:1005D00013D5D6F88C00002805D07FF00D013069C6
:1005E000D6F88C2090473100DFF82C0A02F043FF48
:1005F0003100012003F0BAFD92E00020DFF8480A44
:100600000088002814D0DFF8400A0288F06F002824
:1006100005D092B231003069F36F984700E00020B6
:1006200040B210F10D0F7BD00020DFF81C1A0880BB
:10063000300000F0B0F8002872D1DFF8040A00683A
:10064000002839D0706F002809D0DFF828394FF41E
:10065000D272DFF8FC19DFF8200902F0C7F8B07E8B
:10066000C00608D5DFF8D809006801F06CFE30003C
:1006700002F09DFA54E0D6F88000002809D000234B
:10068000DFF8BC09026831003069D6F88040A04725
:1006900007E00023DFF8A80902683100002002F01B
:1006A000D7FD40B210F10D0F3AD040B2002803D070
:1006B000DFF88C0900687067DFF888090078800629
:1006C00008D5706F00280FD0706F407B50F020006D
:1006D000716F48730020DFF874190860300000F073
:1006E0005AF8002819D01BE0308DB0F5066F02D003
:1006F000308D401C3085D6F88000002807D00023BC
:10070000002231003069D6F88040A04700E0002088
:1007100040B210F10D0FDDD102E0300003F080F99E
:100720000020DFF8281908600020DFF8141908609D
:10073000DFF80809406800282CD0DFF8000940687D
:1007400001F001FE0020DFF8F418486022E0934831
:100750000068808902F038F8400718D48F48006894
:10076000008801908D48006840880090DFF8E438E8
:10077000DFF8E428DFF890080068DFF898180988A7
:1007800010FA81F1DFF88408006803F0F5FA200020
:1007900001F0D9FD16E510B50400DFF8A8080078CF
:1007A000C00617D5A07EC00609D4D4F88C00002856
:1007B00005D07FF00E012069D4F88C2090472100ED
:1007C000DFF8540802F057FE2100012003F0CEFCB0
:1007D000012000E0002010BD30B583B00400DFF838
:1007E00030080078400700F18C80DFF8240800789A
:1007F000C00619D5694800680088019067480068FC
:1008000040880090DFF84C38DFF84C28DFF8F80714
:100810000068DFF80018098810FA81F1DFF8EC07AA
:10082000006803F0A9FA6CE0DFF8E40700788007BD
:1008300067D5607D02F098FD0500002D0CD1A06900
:10084000002806D05FF0FF3200212069A369984795
:1008500001E07FF00F0054E05148406928605048A3
:1008600000696860E08AE8824C4800680088288354
:1008700003202875DFF890070068401C6862686AEA
:10088000E862280002F048FE6865E8646864A865CC
:10089000DFF874070068401E286520692861AC678E
:1008A000207A10F00C002872DFF86C070068E8600E
:1008B000DFF86407056003F092FC0120DFF89C1765
:1008C0000870280001F0F2F934480068C089A5F8E2
:1008D0005C00B5F85C00A5F85E00291D688E02F08A
:1008E00029FE68861221280002F08FFF40B20028FE
:1008F00004D00021280002F0D5F802E0280003F01F
:100900008FF837BD00B583B0DFF8041709784907C1
:1009100042D4DFF8FC160978890729D5DFF8E816F4
:100920000968426A891A00292BD4DFF8DC160968A5
:10093000426A891A028D891A012922DA1748006849
:10094000008801901548006840880090DFF804375F
:10095000DFF80427DFF8B0060068DFF8B81609886A
:1009600010FA81F1DFF8A406006803F005FA13E03D
:10097000DFF89C160978C90703D5DFF8E416096883
:100980000162DFF890160988002905D0817E51F0B8
:100990000201817603F044F807BD0000E8A90020B9
:1009A0005CA8002028AA0020ECA900202AAA002088
:1009B000A8FA000848FC0008DCF3000830B583B052
:1009C000040000210020DFF848060078400747D5E2
:1009D000207D022807D1DFF834060068E26C9042DF
:1009E0001DD101211BE0DFF820060068626A9042F9
:1009F00001D1012113E0DFF810060068626A801A55
:100A000000280CD4DFF800060068626A801A228D84
:100A1000801A012803DAA07E50F00200A076C9B245
:100A200000291BD0207D002809D1DFF8483540F28D
:100A3000E722DFF83016DFF8400501F0D7FEDFF8D7
:100A40000406007850F00800DFF8F8150870A07E62
:100A500010F0FE00A0767FF00D0089E2002087E212
:100A6000DFF8AC05007880070BD5207D022808D080
:100A7000207D032805D0A07E50F00200A076002043
:100A800076E2A07EC00603D4DFF8D40500682062B9
:100A9000002084F89600200001F008F9207D02284B
:100AA00014D0C0F06482042800F08181C0F0D980A5
:100AB000062800F0DE81C0F08881082800F00B8253
:100AC000C0F07581092800F03C8250E2DFF8400553
:100AD000007810F01200122840F09980DFF82C0501
:100AE0000068616C491C884240F09180DFF818056D
:100AF0000068401C6062606AE062DFF81005006810
:100B00006064DFF814090068C089A4F85C00B4F8D8
:100B10005C00A4F85E00DFF8F0040068401E206569
:100B200004202075211D608E02F004FD6086608E19
:100B3000400041F21D11884202D3608E400001E066
:100B400041F21C10618E8900814203D2608E80B216
:100B500080000BE0608E400041F21D11884203D3FB
:100B6000608E80B2400001E041F21C10A4F8480001
:100B7000B4F86200002809D1DFF8F83340F21A32E5
:100B8000DFF8E414DFF8F00301F030FEB4F862009F
:100B9000401EA4F86200E56E002D0FD1A56E002D59
:100BA00009D1DFF8D03340F22232DFF8C014DFF889
:100BB000C80301F01BFE2868A06601E02868E06613
:100BC000280002F022FBE06E002803D15FF0FF3026
:100BD000208604E000202086002084F84200D4F81B
:100BE0008400002806D0002221002069D4F8843037
:100BF000984700E0002040B210F10D0F02D17FF0C5
:100C00000C00B5E1A07E50F00200A07628E0DFF8ED
:100C100000040078C00623D5DFF8FC0700680088D0
:100C20000190DFF8F407006840880090DFF8243472
:100C3000DFF82424DFF8D0030068DFF8D813098830
:100C400010FA81F1DFF8C403006803F095F894F816
:100C50004200062804DA00202086200003F0EEF887
:100C600085E1DFF8AC030078C00640F19280DFF840
:100C70009C030068616C401A401E002872D4DFF8A3
:100C80008C030068E16C401A01286BDA042020759F
:100C9000A06F00280BD0A06F8069002807D1B54B4A
:100CA00040F25132DFF8C813B34801F09FFDA06F46
:100CB000002802D17FF005000CE0A06F80690028B9
:100CC00006D0002221002069A36F9B69984701E0AC
:100CD0007FF00F0040B2002809D040B210F10D0F94
:100CE00002D0200001F063FF7FF00C0040E1200003
:100CF00000F0C0F9DFF850030088002806D0DFF8C4
:100D000048030088401EDFF840130880608E4000D2
:100D100041F21D11884202D3608E400001E041F291
:100D20001C10618E8900814203D2608E80B28000E7
:100D30000BE0608E400041F21D11884203D3608EAB
:100D400080B2400001E041F21C10A4F84800BD4808
:100D5000007880062AD5A07E50F00200A0760720F9
:100D6000207523E0DFF8B006006800880190DFF806
:100D7000A806006840880090B64BB74AA2480068B1
:100D8000A449098810FA81F1A048006802F0F4FF34
:100D90000CE09F480078800708D59B480068616A8E
:100DA000491E884202D1200003F066F8DFE02000EF
:100DB00000F060F9A3480078800605D5A07E50F0C9
:100DC0000200A07607202075D1E0200000F052F943
:100DD0009C48007880063DD58D480078C00632D505
:100DE0008A480068E16C88422DD1A06E00282AD183
:100DF000A07E50F00200A076200002F013FB86488F
:100E00000068A04205D184480068C0688249086033
:100E10000AE08148006800E0C068002804D0C1688A
:100E2000A142F9D1E168C1600020E06001208B4956
:100E300008700A2020757E480068E0607C480460E5
:100E400003F0CDF914E0A07E50F00200A076082057
:100E500020750DE06E480078C00609D56B48006823
:100E6000E16C884204D1A06E002801D106202075D3
:100E70007DE0200000F0FEF872480078800629D559
:100E8000A07E50F00200A076200002F0CBFA62486B
:100E90000068A04205D160480068C0685E490860EB
:100EA0000AE05D48006800E0C068002804D0C1681E
:100EB000A142F9D1E168C1600020E06001206749EA
:100EC00008700A2020755A480068E060584804609D
:100ED00003F085F94BE0200000F0CCF84C48007896
:100EE000C0062DD549480068E16C884228D1A06E23
:100EF000002825D1200002F095FA47480068A0425A
:100F000005D145480068C068434908600AE0424886
:100F1000006800E0C068002804D0C168A142F9D18F
:100F2000E168C1600020E06001204C4908700A209F
:100F300020753F480068E0603D48046003F04FF9C9
:100F400015E0200000F096F831480078C0060DD575
:100F50002E480068E16C884208D1A06E002805D1B7
:100F60003848007850F0100036490870FFE700203C
:100F70003EBD000020E10008F8EE000838B504008E
:100F80000D00E068808901F01FFCC00716D528001D
:100F900002F032F9002535E0E868808901F014FCA0
:100FA000C00707D5012001F00FFCE16889890843DB
:100FB000E168888128002D6802F027F9002D0BD008
:100FC00011480068218910FA81F0E9684968401ADF
:100FD0002989401A0028DFD5002D13D00A4800685F
:100FE000218910FA81F0E9684968401A012809DB73
:100FF000E868406804490968401A208121896068CE
:1010000001F0A6F8256031BDF0A90020F4A9002068
:1010100039AA002030AA0020E0A9002020EF000813
:1010200078EB000848EF0008A4EB0008D0EB0008BC
:10103000E4A900208CE90008DCA90020D8A8002041
:10104000F8A900203AAA00202EAA0020FCA900201E
:1010500078F600086CA8002070A8002036AA0020AE
:10106000D4A90020FCF3000830F80008BCF90008FF
:101070001CF40008F8B504000025207D042809DAD6
:10108000DFF8C83C4FF48162DFF8AC1CDFF8C00C1D
:1010900001F0ACFBDFF8BC0C0078C00640F1068222
:1010A000B4F85C00616D11FA80F0216DDFF8A82CB6
:1010B0001268891A002919D4216DDFF89C2C126856
:1010C000914206D1616DDFF8942C1268891A0029CB
:1010D0000CD4616DDFF8842C1268914233D1B4F8DE
:1010E0005C10CD4A1268D28991422CD2CA49096853
:1010F000C989A4F85C10B4F85E10B4F85C20914281
:1011000003D2B4F85C10A4F85E10DFF84C1C096838
:101110002165DFF8481C09686165B4F85C10002996
:101120000AD194F8951000290DD1002184F894106B
:10113000012184F8951006E094F89510002902D05A
:10114000002184F89510DFF8141C0968626C891A74
:10115000012945DADFF8081C0988002939D1616DB9
:10116000B4F85C2011FA82F1814232D1B4F9300036
:1011700000282ED4606CDFF8E41B0968884228D16F
:10118000012594F8430094F84310491CC9B28842E1
:1011900004D294F84300401C84F8430094F84300C0
:1011A00004280FDBB4F84800B4F84810628E5118D8
:1011B00089B288420DD2B4F84800618E0818A4F8AC
:1011C000480006E094F84300032802D1200002F012
:1011D00084FE002D40F00C81002084F8430007E1DC
:1011E000DFF8780B0068616C401A401E002800F19F
:1011F000B880DFF8680B0068E16C401A012880F2C3
:10120000B080A07E400707D5A07E10F0FB00A0763E
:10121000B4F84A00A4F84800002084F84200B4F969
:101220003C00C010B4F93E104018A4F84000002063
:1012300084F84300DFF8240B00686064207D0428F4
:1012400064DBB4F84800B4F84A1088420FD2B4F80E
:101250004800B4F84810628E511889B2884255D2BD
:10126000B4F84800618E0818A4F848004EE0B4F8BD
:101270004800618E628E5143B4F8482091FBF2F130
:101280000818B4F8481080B281423FD2A4F8480050
:101290003CE0E56EE06E0068E066686801F0CDF85D
:1012A000B4F8621080B2814209D2DFF8A03A40F26D
:1012B0009E42DFF8B01ADFF8980A01F097FA6868E2
:1012C00001F0BBF8B4F86210081AA4F86200DFF865
:1012D000980A008829890818DFF88C1A08802800E5
:1012E00001F093FFB4F8620000280FD0E06E0028F0
:1012F0000CD1A06E002809D1DFF8503A40F2A74285
:10130000DFF8681ADFF8480A01F070FAE06E00288A
:101310001BD0E06EC068406801F05CFA0500E06E2A
:10132000C068808901F050FA0321084201D00120F1
:1013300000E00020E16E098915FA81F14018DFF81C
:101340001C1A0968401A0128A3DBE06E002803D1AB
:101350005FF0FF30208601E0002020860020E0764C
:1013600046E0200002F01CFB42E0A56EA06E006883
:10137000A066A06E002802D10020A4F8640068686E
:1013800001F05BF8B4F8621080B2814209D2DFF854
:10139000BC3940F2D542DFF8CC19DFF8B40901F0CE
:1013A00025FA686801F049F8B4F86210081AA4F840
:1013B0006200DFF8B409008829890818DFF8A81945
:1013C0000880280001F021FFB4F8620000280FD047
:1013D000E06E00280CD1A06E002809D1DFF86C392E
:1013E00040F2DD42DFF88419DFF8640901F0FEF90C
:1013F000A06E002824D0A06EC068406801F0EAF911
:101400000500A06EC068808901F0DEF90321084262
:1014100004D0012003E000BFE8A900200020DFF88D
:101420003C190968491BA26E1289891A081A0028FA
:1014300006D4DFF828090068E16C401A012894DB23
:10144000B4F86000DFF8201909880818A4F86000D3
:10145000606B00282AD0A06BDFF800190968401AD9
:10146000002823D5DFF808090068616B401A00B234
:10147000B4F93C10B0EBE100A18F4118A18700B294
:10148000002801D500B2404200B2B4F93E10B0EBE2
:10149000A100E18F4018E087B4F93C00C010B4F916
:1014A0003E104018A4F8400000206063DFF8B00848
:1014B0000088002800F0C283207D072880F2BE83C8
:1014C000606ADFF894180968401A401E002800F18D
:1014D0009480606ADFF880180968401ADFF8801885
:1014E0000988401A401C012880F28780DFF88408B0
:1014F0004568606ADFF860180968461ADFF8740802
:101500004068002809D1DFF8443840F23C52DFF847
:101510006818DFF83C0801F069F947F6FF70864269
:1015200009DBDFF8283840F23D52DFF85018DFF8C9
:10153000200801F05BF9DFF83C0840684089B042C0
:1015400030DADFF8300840680089B04209DADFF8A5
:10155000FC3740F23F52DFF82818DFF8F40701F0BB
:1015600045F9DFF8100840680089801B05E06989AB
:10157000761A2881002169812D686989B142F6DBDC
:10158000714209B2280000F0D2FE00281DD0DFF819
:10159000BC3740F24C52DFF8EC17DFF8B40701F02B
:1015A00025F912E0714209B2DFF8C807406800F07F
:1015B000BEFE002809D0DFF8943740F25152DFF820
:1015C000C417DFF88C0701F011F9DFF8A8070089CC
:1015D000616ADFF884271268891A401ADFF89417C5
:1015E0000881606ADFF870170860DFF86C07006830
:1015F000DFF88017C96848600AE0DFF85C07006818
:10160000616A401A002803D5A07E50F00200A0763F
:10161000DFF844070068616A401A002800F10A8375
:10162000DFF834070068616A401A218D401A401CB7
:10163000012880F2FF82606ADFF81C17096888427F
:1016400040F00082DFF82C07C068808901F0BCF808
:101650000321084201D0012000E00020DFF8141728
:1016600009894018DFF8F8160880208DDFF8F01699
:101670000988884263D2DFF8FC06C068808901F0DF
:10168000A3F8C00715D5DFF8EC06C068808901F023
:101690009BF810F03E0001F097F8DFF8D816C96803
:1016A00089894CF2FF0211400843DFF8C816C96867
:1016B0008881208DDFF8BC160881DFF8B806C06885
:1016C000808901F081F8800706D5DFF8A806008937
:1016D000401EDFF8A0160881DFF898060189DFF8C0
:1016E0009406406800F034FDDFF88806C068808901
:1016F00001F06AF80321084201D0012000E0002037
:10170000DFF8701609894018DFF854160880DFF8F2
:1017100048060068DFF84816098810FA81F0616A07
:10172000228D11FA82F1884209D0DFF8203640F28A
:101730007F52DFF85416DFF8180601F057F8206FD3
:10174000002800F0B180DFF82C06C068808901F025
:101750003BF8C0070AD5206F002800F0A580206F55
:10176000216F0968216701F050FDF4E7256F0CE057
:101770000020DFF8001609894018DFF8E41508801A
:101780002F002D68380001F040FD002D33D0DFF828
:10179000C8050068DFF8C815098810FA81F0E96803
:1017A0004968401A2989401A002824D4E8688089A9
:1017B00001F00AF8C007E3D5DFF8B805C0688089F2
:1017C00001F002F88007DBD4012000F0FDFFDFF814
:1017D000A415C96889890843DFF89815C968888104
:1017E000DFF89005C068808900F0EEFF0321084211
:1017F000BED00120BDE7002D55D0DFF85C050068A4
:10180000DFF85C15098810FA81F0E9684968401A28
:10181000012848DBE8684068DFF83C150968401A91
:10182000DFF850150881DFF84C05C068808900F0AA
:10183000CBFF800706D5DFF83C050089401EDFF8A6
:1018400034150881DFF82C050189DFF82805406888
:1018500000F07EFCDFF81C05C068808900F0B4FF52
:101860000321084201D0012000E00020DFF8041528
:1018700009894018DFF8E8140880DFF8DC04006804
:10188000DFF8DC14098810FA81F0E96849688842B9
:1018900009D0DFF8B83440F2AF52DFF8F014DFF8C7
:1018A000B00400F0A3FF2567DFF8AC040068DFF8A0
:1018B000B014098810FA81F06062208DDFF8A0145E
:1018C0000988884209D2DFF8843440F2B952DFF83F
:1018D000C014DFF87C0400F089FF208DDFF880144D
:1018E0000988401A2085200001F066F9DFF8840499
:1018F00040680089002809D0DFF878044068DFF8E4
:10190000941408600020DFF86C144860DFF8640469
:10191000C068808900F058FFC00726D5DFF878043A
:10192000007850F02000DFF8701408701DE0706837
:10193000DFF86014086000207060F068808900F0B3
:1019400043FFC0070CD5DFF85004007850F02000AA
:10195000DFF844140870207D042801D10720207589
:1019600030682067300001F050FC206F002858D00C
:10197000206FC0684068616A884252D1266F206F2C
:10198000C0684068DFF8D0130860F068808900F014
:101990001BFF0321084201D0012000E00020616A02
:1019A000328910FA82F040186062F068808900F095
:1019B0000BFF0321084201D0012000E00020218D0F
:1019C000328910FA82F0814209D2DFF8803340F286
:1019D000DE52DFF8C813DFF8780300F007FFF06885
:1019E000808900F0F1FE0321084201D0012000E0CF
:1019F0000020218D3289891A081A2085200001F0E3
:101A0000DBF870680089002897D0DFF88803006849
:101A100000288CD07168DFF87C03006800F02FFD8F
:101A200089E7A07EC00708D5A07E10F0FE00A07652
:101A3000A07E50F00200A07603E0A07E50F00100EE
:101A4000A0760EE1200001F0ABFF206F002804D14A
:101A5000C84801F0E9FB206703E10027256F01E09A
:101A60002F002D68002D00F0FC80BB480068E9685D
:101A70004968884215D12889BE49098988420FD210
:101A8000BC4801F0D1FB0600002E08D0002F01D089
:101A90003E6000E0266729003000FFF76FFAE0E0C3
:101AA000DFE0002F12D1AC480068E9684968401AAD
:101AB00000283BD5AF4801F0B7FB0600002E04D04C
:101AC000266729003000FFF759FACAE0A2480068EB
:101AD000F9684968401A401E002827D49E480068CB
:101AE000E9684968401A401C01281FDAA14801F042
:101AF0009BFB0600002E18D0F8684068398910FA60
:101B000081F095490968401A012809DB924800686C
:101B1000F9684968401A38813989786800F018FBFB
:101B20003E6029003000FFF729FA9AE02868002873
:101B300096D189480068E9684968401A01288FDB16
:101B4000E868808900F040FEC00700F18A8089487B
:101B500001F06AFB2860286800286AD0E8684068BD
:101B6000298910FA81F07C490968401A012809DBAB
:101B700079480068E9684968401A288129896868B5
:101B800000F0E6FA764800887349096811FA80F097
:101B9000616A401A218D401A01284ADB2868C06812
:101BA000808900F011FEC00712D52868C0688089BE
:101BB00000F00AFE10F03E0000F006FE2968C96839
:101BC00089894CF2FF02114008432968C96888815D
:101BD000606A218D081860490968401A29680881DF
:101BE000286801892868406800F0B2FA2868C0684F
:101BF000808900F0E9FD0321084201D0012000E0C6
:101C00000020296809894018554908805248006811
:101C10005349098810FA81F0616A228D11FA82F124
:101C2000884206D0494B40F27B625749484800F051
:101C3000DDFD16E0200001F0B3FE12E0464800682A
:101C4000616A401A002808D443480068616A401A53
:101C5000218D401A401C012803DBA07E50F00200B9
:101C6000A076F1BD4E480068002805D04D48008898
:101C70004D49098888420AD24C48006814304949C5
:101C800009884A1C474B1A8089B2085C0DE0454818
:101C9000008845490988401A42490988491C414A37
:101CA00011803F490968C0B2405C704738B50400F4
:101CB0003F48008800283ED000203A490880FFE7CE
:101CC000384800883A490988884234D2FFF7CAFF69
:101CD000C0B2002803D0022802D0F1D31EE02AE0CF
:101CE000FFF7C0FF042806D1314800882D49098834
:101CF000891C884200DA1EE0FFF7B4FF0502FFF7F7
:101D0000B1FF0543ADB2B5F5067F02DCADB2002DE3
:101D100002D14FF40675FFE76586D1E7FFF7A2FF12
:101D2000C0B2022807DB1F490988C0B2801E4018D4
:101D30001C490880C4E731BD94F6000816480078B5
:101D400050F01000144908707047000020E10008AE
:101D5000F8EE000839AA0020F0A90020F4A900201C
:101D600030AA002070EF00082EAA00203CF40008E2
:101D7000D4A90020D8A80020B8FA0008C8FA0008A2
:101D8000D8FA0008D0F9000844E5000824E4000867
:101D90005CF40008F8A900203AAA002098EF000897
:101DA000ECA900202CAA00202AAA0020E8A90020E3
:101DB00028AA002010B502F0C3FB0021DFF82C296F
:101DC000117002F0C6FBDFF82809046800E0E4683F
:101DD000002C08D0206F0028F9D0206F01F00CFAF9
:101DE00000202067FFE710BD80B5FFF7E3FF01BDCE
:101DF00010B502F0A5FBDFF8F4180C780121DFF82C
:101E0000EC28117002F0A5FBE4B2002C0FD10022E7
:101E10000021DFF8E00802F032FC002807D002F0D1
:101E20008FFB0021DFF8C428117002F092FB10BD77
:101E30002DE9F0410E001400C0B2002806D002289F
:101E40001DD01AD304281ED01BD31EE03627E4B2BF
:101E5000002C00F0E180022C00F01A81C0F0188103
:101E6000032C40F026810C2002F051F90500002DD2
:101E700017D1FFF7BDFF0020CCE02227E7E70E27B0
:101E8000E5E70027E3E70027E1E7DFF86C384FF4E8
:101E90008B72DFF86818DFF8680800F0A7FC0020F4
:101EA000B8E02C7300202860BFB278191030C01C35
:101EB00080088000686068680421B0FBF1F202FBD2
:101EC0001102002A09D0DFF8303840F22912DFF879
:101ED0003418DFF82C0800F089FC2E81B6B2BFB2AE
:101EE000F81C80088000D0F51470864201D23000C2
:101EF00006E0BFB2F81C4FF6FC710840D0F5147034
:101F0000688115F5187069686A895118884209D284
:101F1000DFF8E4374FF49872DFF8EC17DFF8E007EA
:101F200000F064FCBFB2F81C80088000D0F514708B
:101F3000002809D1DFF8C0374FF49972DFF8CC17C9
:101F4000DFF8BC0700F052FC0120E881A846B6B2D9
:101F50006889361A2DE04FF41470788117F110005B
:101F6000786078680421B0FBF1F202FB1102002ACC
:101F700009D0DFF884374FF4A972DFF89417DFF83F
:101F8000800700F033FC15F5187069686A895118EC
:101F9000884209D2DFF8603740F25512DFF868173F
:101FA000DFF85C0700F022FC0120F8817889361AFE
:101FB000B846012E29DB0C2002F0A9F80700002FFB
:101FC00006D1FFF715FF280000F0BDF9002021E041
:101FD0003C730020787300203860C8F800704FF61A
:101FE000FF70864209DBDFF810374FF4A672DFF886
:101FF0002417DFF80C0700F0F9FB3E81300080B2B7
:10200000B0F5147FA7D23000A7E70120E8810020B7
:1020100068732800BDE8F08117F113004FF6FC71DA
:102020000840B6B2F11C4FF6FC721140081880B29D
:10203000B6B2F11C89088900884201D20020E9E784
:1020400080B202F050FD0500002D01D10020E1E733
:10205000BFB278191030C01C8008800068602E81E3
:1020600028896881002028602C7368680421B0FBEF
:10207000F1F202FB1102002A09D0DFF87C3640F2AF
:102080007712DFF89416DFF8780600F0AFFBBCE7B4
:102090000B2002F03CF80500002D01D10020B9E72B
:1020A000002068602E8128896881002028602C73B8
:1020B000ABE7DFF844364FF4C672DFF86016DFF89E
:1020C000400600F093FB0020A4E738B5C0B200281A
:1020D00006D0022812D00FD3042813D010D313E057
:1020E00036240598A4B2E51CAD08AD0015FA81F5BB
:1020F000A84215D200202AE02224F2E70E24F0E7BD
:102100000024EEE70024ECE7DFF8EC3540F2C512DE
:10211000DFF80C16DFF8E80500F068FB002016E099
:10212000002018600498002806D0A4B2E41CA4087B
:10213000A4002018586001E0002058600220587365
:102140001981188958811A730120D881180032BD6D
:1021500070B504000D00002C09D1DFF89C3540F269
:10216000F312DFF8C015DFF8980500F03FFB207B85
:10217000032812D0207B01280FD0207B00280CD010
:10218000207B022809D0DFF8703540F2F712DFF823
:102190009815DFF86C0500F029FB2089ADB2854267
:1021A00050D2ADB220892E1A1FE060892D1A4FF649
:1021B000FF70864209DBDFF8403540F20B22DFF882
:1021C0006C15DFF83C0500F011FB208930182081E8
:1021D0002468002C09D1DFF8203540F20F22DFF807
:1021E0005015DFF81C0500F001FB6089ADB2A84274
:1021F000DBD3207B00281AD16089ADB2854216D08E
:10220000607B800713D46068001B291889B2200006
:1022100002F0C1FB0400002C09D1DFF8DC3440F2ED
:102220001D22DFF81015DFF8D80400F0DFFA658111
:10223000608920812068002802D0206800F083F89F
:102240000020206070BD70B504000D001600002C49
:1022500009D1DFF8A43440F23F22DFF8DC14DFF8C4
:10226000A00400F0C3FA2DB2002D01D0002C01D142
:10227000002042E02DB2002D12D52DB26A426089B5
:1022800092B290420BD2DFF8703440F24722DFF86E
:10229000AC14DFF86C0400F0A9FA01202DE000E096
:1022A0002A00207B616880B2002802D080B2032817
:1022B0000BD160682DB2401B6060606814F11002A1
:1022C000904213D26160012017E080B2022802D050
:1022D00080B201281FD12DB2002D0FD5608992B296
:1022E00090420BD360682DB2401B60606089281853
:1022F0006081208928182081002070BD2DB2012D19
:1023000007DBF6B2002E04D060682DB2401B60607F
:10231000ECE70120F1E7DFF8E03340F27722DFF865
:102320002014DFF8DC0300F061FA0120E5E780B556
:10233000002209B2FFF787FF02BD80B5012209B272
:10234000FFF781FF02BDF8B50400002C0DD1002C71
:1023500009D1DFF8A43340F2D222DFF8DC13DFF832
:10236000A00300F043FA002066E0207B002812D092
:10237000207B01280FD0207B02280CD0207B032853
:1023800009D0DFF8743340F2DE22DFF8B813DFF84B
:10239000700300F02BFA002504E0200002F0A9FAF7
:1023A0006D1C3400002C45D002F0CAF80700E0890B
:1023B000002809D1DFF8403340F2EB22DFF8881320
:1023C000DFF83C0300F012FAE089401EE081E68964
:1023D000380002F0BEF8B6B2002E29D12668207B64
:1023E000617B890711D527003869002809D1DFF8FA
:1023F000083340F2F922DFF85413DFF8040300F049
:10240000F5F9200039698847CAE780B2032804D16A
:1024100021000C2001F0AAFEC2E780B2012802D000
:1024200080B20228B9D121000B2001F09FFEB7E74E
:102430000024B7E72800C0B2F2BD002101E0491C2A
:1024400000680028FBD1080080B2704710B5040076
:10245000002C13D002F074F8E189491CE18102F0EC
:1024600078F8E089002809D1DFF88C3240F239325F
:10247000DFF8DC12DFF8880200F0B8F910BD38B5DB
:1024800005000C00002D01D0002C0AD1DFF86832C5
:1024900040F24D32DFF8BC12DFF8640200F0A6F91A
:1024A00028E004E028892189081828812D682868F7
:1024B0000028F7D128896989884209D0DFF83832A5
:1024C00040F25532DFF89012DFF8340200F08EF956
:1024D0002868002809D0DFF8203240F25632DFF8B1
:1024E0007C12DFF81C0200F081F928892189081884
:1024F00028812C6031BD2DE9F84304000D00002631
:102500000027002C05D0002D03D02089298988427E
:102510000CD2DFF8E43140F2BD32DFF84412DFF8CC
:10252000E00100F063F97FF00F0081E06089B6B24E
:10253000801B6989BFB2C91B884203DB6889B0EB85
:10254000070802E06089B0EB06081FFA88F868689F
:10255000BFB239186068B6B216EB00094246484669
:1025600002F0A2FB18EB060618EB07076089B6B26B
:10257000B04209D2DFF8803140F2CD32DFF8E41109
:10258000DFF87C0100F032F96889BFB2B84209D2A5
:10259000DFF8643140F2CE32DFF8CC11DFF86001B1
:1025A00000F024F96889BFB2874201D300272D6863
:1025B0006089B6B2864210D100262468002C0CD166
:1025C000002D0AD04C4B4FF47672DFF8A0114C4826
:1025D00000F00CF97FF00F002AE0002D11D068897F
:1025E000298988420DD1286800280AD0424B40F240
:1025F000DE32DFF87C11424800F0F8F87FF0050089
:1026000016E0002C10D06089218988420CD1206806
:10261000002809D0384B40F2E3325549384800F0E1
:10262000E5F87FF0050003E0002D7FF47FAF002088
:10263000BDE8F2832DE9F04780460C001500002725
:10264000B8F1000F08D12C4B40F2FE3249492C481A
:1026500000F0CCF8002047E0002C08D1264B40F2D7
:10266000FF324549264800F0C1F800203CE0002632
:10267000B8F1000F01D0002C01D1002034E01FE0A0
:10268000B8F80A00B0EB0309ADB21FFA89F94D455D
:1026900000D2A9461FFA89F9D8F804009BB219188C
:1026A000B6B216EB040A4A46504602F0FDFA19EBA0
:1026B000070719EB0606B5EB09050023D8F80080DB
:1026C000ADB2002D0ED0B8F1000F0BD09BB2002B95
:1026D000D6D0B8F80A009BB28342D1D3B8F80A002A
:1026E0001B1AEBE7380080B2BDE8F08734AA00205F
:1026F000E0A90020E91D0008D4E0000898F50008D2
:1027000030EE00086CE8000880E60008B4E6000837
:102710009CE8000880F9000870EA0008B4F5000899
:10272000B4F1000870F70008D0F5000894F900082B
:1027300088F70008ECF5000830FC00089CF300085E
:1027400038FA0008A0F70008B8F70008D8F1000828
:10275000A8F900080CE50008CCE8000848FA0008D1
:10276000FCE80008D0F7000808F6000858FA00084E
:102770009CEA0008BCF30008FCF1000810B4020059
:10278000C343002B01D0002801D101201AE091F8A9
:102790002F309B0701D4002014E04B68984201D1F0
:1027A00000200FE08B681A404B688C6823409A42E7
:1027B00007D18A6890438968C943884201D10120C2
:1027C00000E0002010BC704780B2010A51EA0020EE
:1027D00080B2704710F47F41090251EA0061020A99
:1027E00012F47F42114351EA106070470EB400B5F5
:1027F00082B003A90091024600AB0121034878444E
:102800000A3002F08DFA06BC5DF810FB9DD0000086
:10281000704780B500F05AFCDFF838090078401C9A
:10282000DFF830190870DFF82C090078C00701D5EF
:1028300000F03AFA01BD05E0826F8A4201D1002220
:102840008267C0680028F7D1704738B50400002CB3
:1028500008D1DFF84434C022DFF84014DFF8FC0868
:10286000FFF7C4FF207D012808D0DFF82C34C122F7
:10287000DFF82C14DFF8E408FFF7B8FF012508E0C3
:102880002100DFF8DC0850F825000068FFF7D3FFCF
:102890006D1C042DF4D331BD1CB50400C9B2002950
:1028A00062D0207D042802D0207D07285CD1606F93
:1028B000002803D1208DB0F5066F55D0A07EC0064C
:1028C00009D4DFF8D43340F20F12DFF8D813DFF861
:1028D0008C08FFF78BFF208B0190E08A0090231D6E
:1028E0002200616AE06C01F047FA200000F09AFDD6
:1028F000DFF8CC070068A04207D1DFF8C407006802
:10290000C068DFF8BC1708600BE0DFF8B4070068A8
:1029100000E0C068002804D0C168A142F9D1E16894
:10292000C1600020E0600120DFF838180870207DC9
:1029300004280BD10A202075DFF888070068E060C2
:10294000DFF88007046001F04AFC0BE0DFF878074D
:102950000068A04202D1FFF7F1F903E02100012055
:1029600001F004FC002029E0207D002803D002288B
:1029700032D024D33EE0E08A00281AD0DFF8D8070E
:102980000068A04207D1DFF8D0070068C068DFF810
:10299000C81708600BE0DFF8C007006800E0C068F7
:1029A000002804D0C168A142F9D1E168C1600020CB
:1029B000E0602100012001F0D9FB002016BD2000BD
:1029C000FFF743FF2100DFF8A00700F054FD2100CE
:1029D000022001F0CBFBF0E72100DFF8E40600F075
:1029E0004AFD0120DFF87C1708702100012001F06A
:1029F000BDFBE2E7200000F001F8DFE738B5040096
:102A0000002C09D1DFF8903240F24D12DFF88C1221
:102A1000DFF84807FFF7EAFE207D032804D00428EA
:102A200014D007281CD025E0200000F05AFE050035
:102A30006DB2002D01D1052020756DB2002D1BD186
:102A4000200000F0EDFF280040B232BD200000F071
:102A500048FE05006DB2002D01D105202075ECE780
:102A6000200000F03EFE05006DB2002D01D10920CE
:102A70002075E2E70020E8E76DB215F1010FE2D121
:102A8000A07E50F00800A0760020DEE780B5017D32
:102A9000012903D0817E51F0100181760121FFF7D9
:102AA000FBFE02BD2DE9F04F83B004008B46207D74
:102AB000012809D1DFF8E0314FF4F072DFF8041893
:102AC000DFF89806FFF792FE207D0A2809D1210041
:102AD000DFF8F00500F0CFFC2100012001F046FBFB
:102AE00063E000275FF00008D4F84C90D4F824A0ED
:102AF000D4F88C502669207D00281ED1E08A002859
:102B000027D0DFF854060068A04207D1DFF8480656
:102B10000068C068DFF8401608600BE0DFF8380690
:102B2000006800E0C068002804D0C168A142F9D163
:102B3000E168C1600020E0600BE05F46B4F81680F9
:102B40002100DFF87C0500F096FC0120DFF8141668
:102B50000870E06E002802D0E06E00F04DFBA06E21
:102B6000002802D0A06E00F047FB206F002802D0A2
:102B7000206F00F041FB002F0BD0208B01901FFA3B
:102B800088F8CDF80080231D22005146484601F008
:102B9000F3F8207D2100012001F0E8FA2800002848
:102BA00003D07FF00C013000A847BDE8F78F80B557
:102BB0000121FFF777FF01BD38B50400606A218D60
:102BC00010FA81F0618EB1F5866F02DD4FF48661F7
:102BD00000E0618EE26A821A511A002904D4218D24
:102BE0006185E16A401A18E0606AE16A401A0128CA
:102BF00002DB002060850FE0E06A616A451AB5F5E6
:102C0000803F08D3244B4FF44272DFF80819DFF8F5
:102C10001C07FFF7EBFD6585002032BD38B50400C9
:102C20000D00207D012808D11B4B4FF44872DFF8BE
:102C3000FC18DFF8F806FFF7D9FD208D281820854D
:102C4000208DB0F5066F03DD4FF40660208515E09A
:102C5000208D002812D1207D072802D0207D092850
:102C600003D14FF40660208508E00B4B40F22D3273
:102C7000DFF8BC18DFF8B406FFF7B8FD2000FFF757
:102C80009BFFB0F5067F06DBA07E50F00200A07629
:102C9000200000F0C5FE31BD4CE200083CFC0008FD
:102CA000E8F7000824F60008F0B583B00020DFF84C
:102CB00020090068401CDFF818190860DFF81409C3
:102CC0000078401CDFF80C19087036E0DFF8F003DC
:102CD0000068A04209D0DFF8003940F28D42DFF8E9
:102CE000FC18DFF84806FFF781FDE068DFF8D01335
:102CF0000860F6B2002E09D0208B0190E08A009087
:102D0000231D2200616AE06C01F036F82669207DFF
:102D10002100E468012001F029FA0020DFF84414C2
:102D200008703800002803D07FF00C013000B8474D
:102D3000DFF830040078002805D00025DFF8800394
:102D4000046800E0E468002C00F06E81207D00281B
:102D500009D1DFF884384FF47C72DFF88418DFF88B
:102D6000CC05FFF743FD207D012809D1DFF8683845
:102D700040F2F132DFF86C18DFF8B005FFF736FDEE
:102D8000207D0A2809D1DFF8503840F2F232DFF80E
:102D90005818DFF89805FFF729FD607FDFF8341831
:102DA00009788842CED0DFF82C08007860770027B9
:102DB0000026207D022805D194F84200062801DB78
:102DC0007F1C7CE094F842000C2801DB7F1C76E03D
:102DD00094F89500002827D0DFF8100894F8951093
:102DE000081810F8010C94F89410C0B2814204D273
:102DF00094F89410491C84F8941094F89410C0B27C
:102E000081425CD3200001F0CAF8002857D100208D
:102E100084F8940094F89500072850D294F895000F
:102E2000401C84F895004AE0B4F93000002802D430
:102E3000208E401C2086E06E002840D0B4F930007F
:102E4000B4F9401088423ADB207D022815D094F86E
:102E500042000C2802D294F8420000E00C20B4F9A1
:102E60003C10C910B4F93E208918DFF88427C0B29D
:102E7000805611FA00F0A4F8400000202086B4F833
:102E80004800B4F85C10884202D2B4F8480001E06F
:102E9000B4F85C0080B24008A4F84A00B4F84A00D4
:102EA000618E490089B2884203D2608E4000A4F846
:102EB0004A00608EA4F84800200000F0BFFF207D8B
:102EC00006280AD1A07EC00607D5DFF804070068EF
:102ED000216A401A292800D37F1C207A000736D5A2
:102EE000207D042802D0207D072830D1D4F890001E
:102EF000DFF8001708184FF4FA71B0FBF1F0DFF8B3
:102F0000D0160968226A891A884202D27F1C761C70
:102F10001DE0D4F8900094F89610DFF8DC2602FB50
:102F200001004FF4FA71B0FBF1F0DFF8A416096864
:102F3000226A891A88420AD2200001F004F840B2BD
:102F4000002804D194F89600401C84F89600206F65
:102F5000002810D0DFF878060068216A401AB4F91A
:102F60004010062211FB02F1884204D3206F00F0CA
:102F700043F900202067207D032807D1DFF85006A1
:102F80000068216A401A292800D37F1C207D092867
:102F900007D1DFF83C060068216A401AF12800D307
:102FA0007F1CFFB2002F18D0D4F88C70200000F0E6
:102FB00039FA002D3FF48AAE41480068844209D1B5
:102FC000DFF8143640F28942DFF83016DFF85C0390
:102FD000FFF70CFCE068E8608BE62500E468E87E1B
:102FE000401CE876E87E297F8842FFF4ACAE0020E2
:102FF000E87600205B490870D5F88800002805D0E5
:1030000029002869D5F88820904700E0002055491C
:10301000097800297FF491AE40B200287FF493AE86
:10302000280000F0FDFC8EE600252648046814E028
:1030300024480068A04208D0DFF89C3540F2CF4217
:10304000DFF8BC15B948FFF7D1FBE0681D490860FF
:103050002100E468012001F089F8002C2FD0207DA8
:103060000A2808D0DFF8703540F2BD42DFF8941529
:10307000AE48FFF7BBFB0027DFF854050068216A64
:10308000401AF12800D37F1CFFB2002F14D020007B
:1030900000F0C8F9002DCBD00A480068844208D15E
:1030A000DFF8343540F2CB42DFF85C159F48FFF77C
:1030B0009DFBE068E860CBE72500E468CDE7F7BD5D
:1030C000E0A90020E4A90020FCA9002038B5DFF821
:1030D00004050078401CDFF8FC14087029E0DFF8D4
:1030E000F40400786077A07EC0070AD5A07E50F077
:1030F0000200A076200000F093FCA07E10F0FC00FF
:10310000A076A07E000706D5A07E10F0F700A0767E
:103110002000FFF773FCE568606F00280DD00020E9
:1031200010490870200000F021F80E4800780028AF
:1031300003D0DFF8D804046800E02C00002C07D08E
:10314000607FDFF8901409788842C8D1E468F5E719
:1031500031BD000037AA0020D8A9002058EE000891
:1031600098FA000836AA0020DCA90020F8B504006F
:10317000606F457B666F00206067D4F88000002890
:1031800007D00023320021002069D4F88070B847AE
:1031900005E0002332002100002000F059F840B281
:1031A00000281CD1A80625D5208DB0F5066F02D0C9
:1031B000208D401C2085D4F88000002807D00023F3
:1031C000002221002069D4F88040A04700E00020C0
:1031D00040B210F10D0F0DD17FF00C000BE040B2AA
:1031E00010F10D0F02D17FF00C0004E066677FF054
:1031F000040000E00020F2BD10B503E0046800F018
:1032000004F820000028F9D110BD10B50400002CEE
:1032100009D06068002802D06068FFF794F82100A8
:10322000032000F0A3FF10BD38B50400032000F018
:103230006EFF0500002D01D1002008E010222100C2
:10324000280001F031FD6868FFF700F9280032BD61
:1032500010B508001400002C07D02189FFF7DEFC10
:103260002000FFF770F8002010BD5BB2002BFAD1F0
:10327000FFF70CFCF8E738B5C0B2802801DB7F20EF
:10328000FFE700230021DFF88423126812E0547D59
:10329000C0B2A0420DD3DFF838432468156A641B1E
:1032A0009C4206D3DFF828030068116A431A110014
:1032B000507DD268002AEAD1002902D00800FFF729
:1032C00076FC31BDE8E6000838B50400E4B2082C0D
:1032D0000BD0E4B2092C08D0DFF8FC3240F2DC520B
:1032E000DFF82C131148FFF781FA00220020DFF8E5
:1032F0001C13096811E00B7DE4B2A3420CD1DFF886
:10330000D0321B680D6A5B1B934205D3DFF8C00205
:1033100000680A6A821A0800C9680029EBD10028EF
:1033200002D00021FFF7BEFB31BD000058EE0008BF
:1033300010B500220020DFF8DC1209680DE0DFF88C
:1033400090321B680C6A1B1B934205D3DFF8800286
:1033500000680A6A821A0800C9680029EFD10028AB
:1033600001D0FFF724FC10BD38B50500012000F0A6
:10337000CEFE0400002C21D1FFF7DAFF012000F07F
:10338000C6FE0400002C19D10920FFF79DFF012083
:1033900000F0BDFE0400002C10D10820FFF794FFC0
:1033A000012000F0B4FE0400002C07D12800C0B2B8
:1033B000FFF761FF012000F0AAFE0400002C2ED0D0
:1033C00098210022200002F057FD65754FF48660B9
:1033D000A4F860004FF406606085608D2085FF20B2
:1033E000A0724FF4067060860620A4F84000062004
:1033F000E0875FF0FF3020860120A4F84800744881
:10340000006820627348007860774FF48660A4F803
:103410004A008148C4F880008048C4F89000200029
:1034200032BD000010B50400207D002822D0207D90
:103430000A281FD0207D01281CD0606F002804D0EE
:10344000606FFEF780FF00206067206FFFF7D4FEFB
:10345000002020675FF0FF302086A06EFFF7CCFED3
:10346000E06EFFF7C9FE0020A066A06EE0660020B7
:10347000A4F8640010BD10B50C000168A14203D18E
:103480000168C968016009E0006800E0C0680028C0
:1034900004D0C168A142F9D1E168C1600020E060B8
:1034A0002000FFF7BFFF207D0A280CD0207D0128D7
:1034B00009D0A07EC00706D5A07E50F00200A076FD
:1034C000200000F0ADFA207D01281DD0A06E00285C
:1034D00006D0414B40F2537252495148FFF786F9EA
:1034E000E06E002806D03C4B40F254724E494C48E6
:1034F000FFF77CF9206F002806D0374B40F2567258
:103500004A494748FFF772F9002020750020E08201
:1035100010BD000040F60008454800682C490968C5
:1035200008184349086042480068704780EE000868
:1035300020F2000810B50400080002F0D1FC0028B9
:1035400002D1200080B20CE0B0F9260000B20028C1
:1035500005D02838A4B280B2844200D304002000F1
:1035600080B210BD38B50400080003E0C568FFF75D
:103570001EFB2800002805D0016822689142F5D082
:10358000C068F7E731BD38B504000D00002C1ED02F
:10359000206800281BD01D4801682000FFF7E2FFCB
:1035A000244801682000FFF7DDFF002D0FD02868B8
:1035B00000280CD02048006807E0C1680268236832
:1035C0009A4201D12A68026008000028F5D131BD75
:1035D000D4A9002038AA00204CE200084CEB0008D7
:1035E000C8EA0008F4EA00082CE90008A4FC000876
:1035F00088FA0008B84C0A00F824010020EB000803
:10360000D0EE00085CE90008A8EE0008E0A9002060
:1036100078FA0008E4A900205132000800DD6D00AE
:1036200058EE000800F800085CF6000818F80008DA
:1036300044010020D8A90020DCA900202DE9F04198
:1036400004000D0010001E000022401910F11401AA
:1036500089B20120FEF7ECFB0700002F3ED07889ED
:10366000ADB215F11401884208DADFF82C33732269
:10367000DFF82813DFF83C06FFF7B8F8D7F8048026
:10368000E08AFFF7A1F8A8F80000208BFFF79CF86C
:10369000A8F80200C8F80460606AFFF79BF8C8F851
:1036A0000800ADB2042095FBF0F0401D000350F07F
:1036B000100080B2FFF788F8A8F80C00608DFFF7C3
:1036C00083F8A8F80E000020A8F810000020A8F841
:1036D0001200606A618D10FA81F0E0623800BDE886
:1036E000F08138B50400A06E00281AD0A56E00E065
:1036F0002D6828680028FBD1E8688089FFF764F806
:10370000072108420DD10120FFF75EF8E968898999
:103710000843E9688881A07E50F02000A076002050
:1037200003E00121200000F070F832BD2DE9F047E0
:1037300081468A4616009846089CE00701D5042079
:1037400000E00020A10701D5002100E000212207B0
:1037500001D5002200E0002208181718032000F00D
:10376000D6FC0500002D04D15046FEF7ECFD0020EC
:1037700049E0AC7200202860C5F804A0BAF808003F
:103780003900C9B289B2884208D2DFF80C32BA22B5
:10379000DFF82415DFF81C05FFF728F8BAF8080051
:1037A000FFB2C01B288114215046FEF7C0FD00283F
:1037B00004D02800FFF729FD002024E06868406855
:1037C000E860B9F81600FEF7FFFFE9680880B9F86D
:1037D0001800FEF7F9FFE96848804046FEF7FAFF57
:1037E000E9684860FFB2042097FBF0F0401DF6B294
:1037F00056EA003080B2FEF7E7FFE96888810020D2
:10380000E96848822800BDE8F0872DE9F04182B0E0
:1038100004000D0000265FF000080320054208D1D7
:103820005D4B40F21B32DFF8E415DFF88804FEF749
:10383000DDFFB4F86200092805DAB4F862004FF63B
:10384000FD71884208D3E80706D4A07E50F08000BE
:10385000A0765FF0FF309CE0A80700D50126F007B6
:1038600001D5042000E00020B10701D5002100E0CF
:103870000021320701D5002200E00022081812EBD7
:10388000000800225FFA88F8414689B20020FEF75E
:10389000CFFA0700002F06D1A07E50F08000A0765E
:1038A0005FF0FF3075E078895FFA88F81FFA88F8D2
:1038B000404508D2384B40F24132DFF85415DFF86A
:1038C000F403FEF793FFF6B20096A36D2A00D2B27E
:1038D00039002000FFF72AFF0600002E06D1A07E47
:1038E00050F08000A0765FF0FF3052E0F0680421D5
:1038F000B0FBF1F202FB1102002A08D0264B40F285
:103900004932DFF81015DFF8AC03FEF76FFF30899E
:10391000002808D0204B40F24A32DFF8FC14DFF8D0
:103920009403FEF763FFA06E002801D1A66606E0AF
:10393000A06E00E0006801680029FBD1066000204D
:10394000A4F864000320054202D0A06D401CA065CD
:10395000E80703D5A07E50F02000A0767068FEF73F
:103960006CFDB4F862104018A4F86200B4F862006C
:1039700000280DD0E06E00280AD1A06E002807D1E3
:10398000054B40F26D32DFF89414CA48FEF72EFF63
:103990000020BDE8F68100006CE10008BCE90008E9
:1039A00070B584B004000025E06CFEF713FF03003F
:1039B0000022EDB2290089B22000FFF73FFE060089
:1039C000002E06D1A07E50F00300A0767FF001000B
:1039D00024E0201D02F084FA002802D17FF00305C4
:1039E0000BE0029006200190607A0090A37A221DDD
:1039F0002100300002F0B2FB05003000FEF7A3FC0E
:103A00006DB2002D04D0A07E50F00300A07603E03C
:103A1000A07E10F0FC00A076280040B204B070BD7B
:103A20002DE9F0470400207D012808D1DFF8F033AC
:103A300040F2ED32DFF8EC139E48FEF7D7FEDFF8D8
:103A4000E8030068A04201D100206FE0B4F85C00F8
:103A5000B4F84810884202D2B4F85C6001E0B4F8CF
:103A60004860A56EA07E800710D5002D0AD0E868BA
:103A70004068FEF7AFFE616C401A298910FA81F0A8
:103A8000864203D22000FFF78BFF4FE0E76E002F46
:103A900004D000E03F6838680028FBD1201D02F008
:103AA0001FFA8046B8F1000F02D17FF003003DE01D
:103AB000002C02D0206800280DD1B8F1000F02D0F0
:103AC00018F1040000E00020002802D17FF003007C
:103AD0002CE000682060002D2ED0E8684068FEF7DA
:103AE00079FE616C401A298910FA81F0864223D24E
:103AF000002E21D0B4F85C0086421DD1E06E002873
:103B00001AD194F89500002805D1002084F894007B
:103B1000012084F89500A06E002802D10020A4F8AE
:103B20006400A07E10F07F00A0760020BDE8F08742
:103B30002800FFF76AFBA56E002DECD0E86840680E
:103B4000FEF748FE616C401A298910FA81F086421E
:103B5000E1D3E8688089FEF737FE400706D5B04B11
:103B600040F24642B1495348FEF740FEE06E00285D
:103B700017D0A07E4421084213D1A06E002808D09F
:103B8000A06E006800280CD1A06E0089618E88426A
:103B900007D2B4F86000002803D0B4F86200092806
:103BA00001DB012000E00020002803D1A07EA0213D
:103BB0000842B0D0207D022807D01020FEF704FE76
:103BC000E96889890843E96888814246210028001C
:103BD00000F074F840B2002805D0A17E51F08001B9
:103BE000A17640B2A2E72868A066207D022803D013
:103BF000A07E10F0FC00A076E8684068FEF7EAFDC1
:103C00008146E8688089FEF7DFFD0321084201D084
:103C1000012000E00020298919FA81F14018E16CA7
:103C2000091A002900D5E064E8688089FEF7CCFD18
:103C30000321084201D0012000E00020298910FA68
:103C400081F000283FF474AF00202860E06E002867
:103C500002D1E5662F006EE7E8684068FEF7BAFD1E
:103C60008146F8684068FEF7B5FDB9EB0000002812
:103C70001DD514F16C0901E0D9F80090D9F80000C5
:103C800000280ED0D9F80000C0684068FEF7A2FDF9
:103C90008246E8684068FEF79DFDBAEB0000002808
:103CA000EAD4D9F800002860C9F8005043E73D6025
:103CB0003F6840E7C0EF000848F80008FEB5040080
:103CC0000D0016006068C089012801D0002051E075
:103CD000686AFEF77FFDE1688860688DFEF774FD15
:103CE000E168C881686A698D10FA81F0E862E0686D
:103CF00010F11407A07AC0070BD5291D4FF40670E8
:103D0000FFF718FC80B250F00170FEF763FD3860D9
:103D10003F1DB5F93000002801D500202886686BCA
:103D2000002807D1424800686863E0684068FEF7F1
:103D300051FDA863E06861684968401A6168498973
:103D4000091A6268518161680989081A61680881E5
:103D5000E068616848600020E168088202960620F9
:103D60000190687A0090AB7A2A1D2900606802F001
:103D7000F5F940B2FEBD00002DE9FE4380468946BC
:103D800014001D00002214210120FEF751F8060046
:103D9000002E39D07089142806D2214B40F24D52A2
:103DA00024492548FEF722FD77680A98FEF70CFDA6
:103DB00038800B98FEF708FD78804046FEF70AFD34
:103DC00078604846FEF706FDB86045F21400FEF73D
:103DD000FBFCB88146F20800F88100203882002000
:103DE0007882280002F07CF800280AD00290062091
:103DF000019000200090FF232A002100300002F0F3
:103E0000ADF93000FEF79FFABDE8F783B4DD000896
:103E100060E4000860F80008FCEB0008E8EF000828
:103E20006CE1000810F00008FCA9002078F80008F8
:103E3000D4A90020BCE90008C0EF000880B5C16E1D
:103E4000002918D0C16E00E009680A68002AFBD179
:103E5000826E0A60C16E81660021C16690F84210D0
:103E6000FF2904D090F84210491C80F8421000212C
:103E70004163FFF7D5FD01BDF8B50400E06E0028F1
:103E80002AD0E56E2868E06614F1680600E036681E
:103E9000306800280CD03068C0684068FEF79AFC93
:103EA0000700E8684068FEF795FC381A0028EED451
:103EB0003068286035602868002802D10020A4F806
:103EC000640094F84200FF2804D094F84200401C9B
:103ED00084F8420000206063F1BD10B50400E06E7C
:103EE00000282FD0A07E40072CD42000FFF7C4FF6D
:103EF000B4F84800B4F85C10884202D2B4F8480024
:103F000001E0B4F85C00022190FBF1F0A4F84A0053
:103F1000B4F84A00618EB0EB410F04D2608E80B2DB
:103F20004000A4F84A00B4F84A00618E03225143CD
:103F300011FA80F0A4F84800A07E50F00400A076AA
:103F40000020208610BD3EB50400E06C401EFEF748
:103F500041FC0300002200212000FFF76FFB050059
:103F6000002D02D15FF0FF3018E0201D01F0B8FFF6
:103F7000002802D17FF003040BE00290062001909C
:103F800000200090A37A221D2100280002F0E6F80C
:103F900004002800FEF7D7F9200040B23EBD2DE90D
:103FA000F04184B00400E56E002D00D1A56E002D17
:103FB00001D1002061E0E8688089FEF705FCC007B8
:103FC00005D52889002802D15FF0010801E05FF0E3
:103FD00000085FFA88F8B8F1000F01D0002200E075
:103FE0000122E868436892B200212000FFF726FB17
:103FF0000600002E02D15FF0FF303EE077685FFAE6
:1040000088F8B8F1000F09D01120FEF7DDFBB9895F
:104010004CF2FF0211400843B8810BE0706810F1C8
:104020001401686800892A89831A9BB20122686892
:10403000FEF700FBE8684068FEF7CCFB401CE16C33
:10404000091A002900D5E064201D01F049FF00286D
:1040500002D17FF003040BE00290062001900020C3
:104060000090A37A221D2100300002F077F80400AE
:104070003000FEF768F9200040B204B0BDE8F081DE
:104080000021826811604168C91C8A0892000021E1
:1040900007E083681B68136083681A6003889A18B6
:1040A000491C43889942F4DB704710B5002406E0B0
:1040B0003948A4B250F82400FFF7E2FF641CA4B210
:1040C0000D2CF5D310BD70B5040000F039FA0600D0
:1040D000A0680568002D15D02868A1680860042034
:1040E000B5FBF0F101FB1051002906D02B4B40F23B
:1040F00049122B492B48FEF779FB300000F029FAD2
:10410000280003E0300000F024FA002070BD80B5E4
:10411000C0B20D2808DB214B40F28712224921480A
:10412000FEF764FB002005E01B49C0B251F82000F7
:10413000FFF7C9FF02BD38B504000D000420B5FB30
:10414000F0F101FB1051002906D0144B40F29D12F2
:1041500016491448FEF74AFB00F0F2F9A168096815
:104160002960A1680D6000F0F4F931BD80B5C0B2DE
:104170000D2807DB094B40F2DB120D490948FEF719
:1041800035FB07E0002905D0034AC0B252F82000F1
:10419000FFF7D1FF01BD00004CE600083CE000083D
:1041A00090F10008E0ED00085CF300087CF30008E3
:1041B0007CF5000880B5FEF72CFB8A4800680028D3
:1041C00003D189480068002805D000228749FA20D9
:1041D00000F039F802E000208549086001BD80B593
:1041E0008348006800280FD17E480068002803D16A
:1041F0007D480068002807D001207D490860002222
:104200007A49FA2000F01FF801BD10B5040060687B
:10421000804722007749206800F015F810BD10B5DE
:10422000012409E0744810EBC4027249724850F846
:10423000340000F008F8641C032CF3D302F0AEFA4B
:104240006E49086010BDF8B504000E0017000A2082
:10425000FFF75DFF0500002D08D1002D05D1684B4B
:10426000D42268496848FEF7C1FA52E002F096FA93
:1042700066490968002903D10021604A106002E004
:104280005E490968411A00202860AE60EF60081995
:1042900068605E480068002802D15C48056038E02C
:1042A0005A480068406884420CD258480068406808
:1042B000001B564909684860544800682860534804
:1042C000056026E05148006800E00068002820D022
:1042D00069684268891A69600168002904D06968C0
:1042E000026852689142F0D20168002906D0016844
:1042F00049686A68891A0268516007E069688C42F7
:1043000004D242490968496809196960016829604D
:104310000560F1BDF8B53D48006800282BD002F0DB
:104320003DFA36490968441A0025384801680029D1
:104330001ED0486884421BD30125304800684A6873
:1043400010182E4A10604868241A08682F4A106016
:104350008E68CF680A20FFF709FF3000002807D0D9
:104360002B4800F0CBF83800B047294800F0CDF8D2
:10437000EDB2002DD8D1F1BD80B5244800680028E9
:1043800002D15FF0FF300FE002F008FA1B49096824
:10439000401A1E4909684968814201D2002003E0A1
:1043A0001A4909684968081A02BD38B504000D00A9
:1043B00001E0FFF7AFFF15480068002805D1002293
:1043C0002900200000F054F80BE0FFF7D5FF00288B
:1043D000EFD002002900200000F04AF810F1010F90
:1043E000E7D031BDE0A90020E4A90020B5410008D4
:1043F00018AA00200B42000890F8000814AA002018
:10440000A0DF0008A4E3000860F0000810AA002064
:104410000CAA00201CB504005148D0E90023CDE9C6
:1044200000230091002100A802F09CFB206020687E
:10443000002802D15FF0FF3000E0002016BD38B543
:1044400004000D005FF0FF322900206802F091FBAC
:104450000028F7D131BD80B50022006802F089FB49
:10446000002801D1002001E05FF0FF3040B202BD22
:10447000FEB504000D00160002F063FA0700002EDE
:1044800010D03200216800A802F0A3FB0098102889
:1044900005D10198286002F054FAC01B0DE05FF0CE
:1044A000FF300AE05FF0FF32216800A802F091FBC4
:1044B0000198286002F045FAC01BFEBD0068002884
:1044C00001D1002000E00120704780B5254802F0AE
:1044D00065FA2549086001BD10B582B00400234883
:1044E0000068009000A802F059FA206020680028B7
:1044F00002D15FF0FF3000E0002016BD80B55FF014
:10450000FF31006802F04FFA01BD80B5006802F08B
:1045100086FA01BDF0B585B006000F0014001D003D
:1045200000A8142102F0AEFB009601970A98ADF89E
:1045300008000495210000A802F00EFA05B0F0BDB5
:1045400080B55FF0FF310848006802F02CFA0120C6
:1045500002BD80B50448006802F061FA01BD0000A8
:104560008CFC0008C8FC000894A90020C4FC0008CA
:1045700080B572480068002804D0714800686F490F
:10458000096888476F48FFF7B9FF05E06E4B69225D
:104590006E496F48FEF72AF96A48FFF7B6FF00A98F
:1045A0006C48FFF702FF6748FFF7A8FF0098002854
:1045B000ECD000980078022804D01FD3042817D02C
:1045C0000CD31BE00098816800984068009AD2687C
:1045D000904700990920FFF7C9FDDDE70098806842
:1045E00000994968884700990820FFF7BFFDD3E785
:1045F00000988068009949688847CDE7524B9B2214
:1046000052495348FEF7F2F8C6E7F8B504000D002A
:1046100016005048FFF752FF002805D14A4BB5223B
:104620004D494B48FEF7E2F80920FFF770FD0700FF
:10463000002F02D15FF0FF3012E0022038707C6062
:10464000BD60FE6039004348FFF705FF002806D033
:1046500039000920FFF78AFD5FF0FF3000E00020FD
:10466000F2BD80B591F82F2018231A4203D03B4A9F
:10467000FFF7CBFF02E03A4AFFF7C7FF02BDF8B5EC
:1046800004000D0016003348FFF718FF002805D17D
:104690002D4BEE2230492E48FEF7A8F80820FFF7F0
:1046A00036FD0700002F02D15FF0FF300BE0032042
:1046B00038707C60BD60F6B2002E05D03900254808
:1046C000FFF7BDFE0020F2BD39002248FFF7C3FE10
:1046D0000028F7D039000820FFF748FD5FF0FF30D1
:1046E000F1E738B504000D0002F0D0FA1348046079
:1046F0001348056006211748FFF78CFE002806D0F6
:10470000114B40F2D51217491148FEF76FF80D48CA
:10471000FFF7E2FE002806D00B4B40F2D9121249F7
:104720000B48FEF763F8032000904FF480630022EB
:104730000E490F48FFF7EEFE31BD000000AA002031
:1047400004AA00200CAA0020B8E100087CF40008AC
:1047500038F0000808AA0020E8FA0008A1C80008FC
:104760005D5F000844F2000868F200087145000827
:10477000F8FA000810B50400DFF8D8040068844295
:1047800009D2DFF8D43440F25D12DFF8D014DFF83C
:10479000D004FEF72BF8DFF8CC040068844209D37C
:1047A000DFF8B4344FF4AF72DFF8BC14DFF8B004B4
:1047B000FEF71CF82079002809D0DFF89C3440F27D
:1047C0005F12DFF8A814DFF89804FEF70FF82088CE
:1047D000B0F5C86F09D9DFF880344FF4B172DFF853
:1047E0009014DFF87C04FEF701F8DFF86804006835
:1047F0002188081884421BD00179002918D1DFF8DC
:1048000064140968884213D0DFF86814096881428B
:1048100002D1DFF860140C6001882180DFF83414C5
:104820000968611ADFF82C2412680088801841801A
:10483000DFF82004006861880818A04216D00179CA
:10484000002913D1DFF82C140968A14202D1DFF846
:104850002414086021880180DFF8F8130968401AE1
:10486000DFF8F013096822885118488010BD80B520
:10487000DFF8040480088000DFF8D8130860DFF850
:10488000D40300684FF4C8610180002141800021F9
:104890000171DFF8C003006810F5C860DFF8C413C9
:1048A00008600120DFF8BC13096808714FF4C86084
:1048B000DFF8B013096808804FF4C860DFF8A4136C
:1048C00009684880DFF88C030068DFF8A8130860E7
:1048D000DFF8A803FFF700FE002809D0DFF87833DF
:1048E0004FF4CC72DFF89813DFF87403FDF77EFF06
:1048F00001BD10B50400002C4CD014F003000028BA
:1049000009D0DFF854334FF4D672DFF87813DFF8AC
:104910005003FDF76BFFDFF83C030068844204D3CB
:10492000DFF840030068844209D3DFF82C3340F2FB
:10493000AF12DFF85413DFF82803FDF757FFC5481F
:104940000068844204D3DFF81C030068844204D367
:10495000FFF7F6FDFFF7FDFD1CE0DFF82003FFF792
:10496000CDFD083C2079002806D1BB4B4FF4E07206
:10497000C649BB48FDF73AFF00202071BD480068DA
:10498000844201D2BB4804602000FFF7F3FEBB481D
:10499000FFF7BBFD10BD2DE9F04104000D00ADB2E5
:1049A000E81C4FF6FC7111EA0005ADB20C2D00D2E7
:1049B0000C25ADB2B5F5C86F01D9002091E0A5482E
:1049C0000068844203D3A7480068844206D3A24B00
:1049D0004FF4FA72AE49A248FDF708FF9D480068FF
:1049E000844203D39F480068844205D3FFF7A8FDA3
:1049F000FFF7AFFD200074E0B4F1080695480068A9
:104A0000371A3088BFB2C01BB0F108081FFA88F807
:104A1000ADB2A84506D2904B40F206229D4990487F
:104A2000FDF7E4FE1FFA88F8ADB2A84501D20020D8
:104A300057E0ADB21FFA88F8454501D1200050E09B
:104A40008E48FFF75BFD8348006831880A181079AB
:104A500000281FD11088E9190831864B1B68934242
:104A600005D17C4A126889B28A18824B1A60794A49
:104A7000126889B28A180023137110805780318020
:104A80001088B0F5C86F28D07248006812881018D6
:104A9000418022E01FFA88F8ADB215F1140080457C
:104AA0001BD3E81910F108016A48006889B20A1896
:104AB00070480068824201D26E4802600020107186
:104AC00030881080578031801088B0F5C86F04D0CE
:104AD000604800681288101841806848FFF715FD8B
:104AE0002000BDE8F08138B50400A4B2002C01D14B
:104AF0000020ADE0A4B2E01C4FF6FC7111EA000406
:104B0000A4B20C2C00D20C24A4B2B4F5C86F01D905
:104B100000209DE05948FFF7F1FC564800684D49D8
:104B20000968401A03E04B49096880B2405A80B2D4
:104B3000A4B2D4F5C861884280F0868045490968EE
:104B400080B2451829790029EDD1298880B2091A47
:104B50000839A4B2A142E6D3298880B2091A0839DB
:104B6000A4B214F11402914217D321180831394A22
:104B7000126889B28A18002313712B881380508021
:104B80002980012028711088B0F5C86F07D03148FE
:104B9000006812881018418001E001202871354812
:104BA0000068854221D13348006803E0294909683B
:104BB000008840180179002903D02A4909688842F1
:104BC000F4D12C4908602B480068264909688842BE
:104BD0000BD0284800680079002806D01E4B40F210
:104BE000CF222D491E48FDF701FE2448FFF78DFC1A
:104BF0001C48006815FA84F10831884206D2164B29
:104C00004FF4357225491648FDF7F0FD15F10800FF
:104C10000421B0FBF1F202FB1102002A06D00E4B78
:104C200040F2D6221E490E48FDF7E0FD15F00300C4
:104C3000002806D0084B4FF436721A490848FDF791
:104C4000D5FD15F1080003E00C48FFF75EFC0020DD
:104C500032BD00003CA9002004E2000810F7000863
:104C6000B8ED000840A900200CF5000828F5000860
:104C700044EA000844A90020F392002048A900203B
:104C800044F5000848F1000828F700086CF900080E
:104C900040F700083CF3000860F500080CE8000845
:104CA0003CE800086CF1000862B38B0708D0521E84
:104CB00011F8013B00F8013B00F024808B07F6D18E
:104CC000830740F0208000BF103A07D330B4B1E82A
:104CD0003810103AA0E83810F9D230BC530724BF7E
:104CE000B1E80810A0E8081044BF51F8043B40F8B0
:104CF000043BD20724BF31F8022B20F8022B44BF1B
:104D00000B7803707047083A07D3B1E80810083AE7
:104D100040F8043B40F804CBF7D25307E4E7000027
:104D20002DE9F04F80460FF21C60A5B017461D46D6
:104D3000D0E90023CDE91223002004910D900DF15C
:104D4000500A6FF0004900E0E7190020ADF80200BA
:104D500012AB4FF0FF3239460DF1020001F0BAFFFD
:104D60000446012C04DA3878441EA441E443E40FDD
:104D7000BDF8020025280CBFA4F1010BA346BBF12E
:104D8000010F0EDB3E4616F8011B0498C0470028B1
:104D9000049000F0D2820D98401CBBF1010B0D90E5
:104DA000F1D1BDF80200252807D100200790089016
:104DB00009900A900B900C9005E00028C4D10D9842
:104DC000BDE240F0010017F8011F2029F9D0232986
:104DD0000DD02B2904D02D2906D030290AD00CE083
:104DE00040F0020080B2EEE740F00400FAE740F045
:104DF0000800F7E740F01000F4E72A290ED12968EF
:104E0000296051F8042B2960002A0F9204D55142E1
:104E100040F004000F9180B27F1C11E000210F913F
:104E200009E00F99494505D001EB810302EB4301ED
:104E300030390F917F1C3A78A2F130010A29F0D362
:104E400039782E2903D04FF0FF310E911DE017F86D
:104E5000011F2A2907D1296829607F1C51F8042BDA
:104E600029600E9211E000210E9109E00E9949454A
:104E700005D001EB810302EB430130390E917F1C19
:104E80003A78A2F130010A29F0D3ADF840000FF2D0
:104E9000BC40397801F02EFF08B117F8010B8DF8EE
:104EA00042009DF84200682802BF397868296220D4
:104EB00005D06C2804BF38786C2803D171208DF898
:104EC00042007F1C14A8069017F8014BB4F125008E
:104ED0002AD01C3800F0CB80001F022840F2C78087
:104EE000133800F0EC80093800F0C180801E00F01B
:104EF0005381401E00F02C81401E022840F2B780F2
:104F0000001F00F02581401F00F08280401E00F04D
:104F1000D680401E2CD0C01E0BD0801E00F0CF804B
:104F2000C01E00F0CC805AE125208DF850000120F1
:104F30005EE19DF842006C282868286014D050F883
:104F4000046B286005960E9C002C04D5304601F0B9
:104F5000DDFE044606E022460021304601F0F2FE66
:104F600000B1841B089444E150F8042B28602FE121
:104F7000296829603C2451F8040B29600021CDE9FF
:104F8000020114A80590DDE90201069E11B908B9D5
:104F90000E9AB2B10206120FA0EB02123032D2B258
:104FA000631E3A2AA8BF2732000940EA01700909A6
:104FB0009A5508BF00281C4603D0059AA3199A42A7
:104FC000E8D3A0190590C4F13C010E9808918142E4
:104FD00009DA401A0A904FF6EF71BDF84000084018
:104FE000ADF8400005E1002840F103819DF8400044
:104FF00000F01400102840F0FC800F98079A801AE7
:105000000A9A801A441A012CC0F2F3800A94F0E044
:105010009DF8420062281AD0682806D06A280CD071
:105020006C281CD0712808D019E02868286050F836
:10503000041B28600D980880DBE02868286050F881
:10504000042B28600D98C117C2E90001D1E028683F
:10505000286050F8041B28600D980870C9E0286883
:10506000286050F8041B28600D980860C1E028688B
:10507000C01D20F007022A60D2E9000108322A6030
:10508000CDE90201002902D507982D210AE0BDF8DB
:105090004000810702D507982B2103E0C00705D502
:1050A0000798202100F80A10401C079014A80799BF
:1050B00008180590214602A800F090FB99E09DF8A1
:1050C00042006C280DD0712818BF6A2809D12868C1
:1050D000C01D20F007022A60D2E9000108322A60D0
:1050E00005E02968296051F8040B29600021CDE909
:1050F00002019DF84200682803D1DDE9020180B277
:105100000BE0622803D1DDE90201C0B205E074289A
:1051100018BF7A2804D1DDE902010021CDE902019E
:105120009DF8400000072ED5DDE90201002908BFE7
:10513000002828D044F02000782824D10798302176
:1051400000F80A10401C411C079100F80A401AE0C0
:105150009DF84200294600F0FDF8CDE90201002942
:1051600002DA07982D210AE0BDF84000810702D538
:1051700007982B2103E0C00705D50798202100F8E8
:105180000A10401C079014A807990818059021469A
:1051900002A800F09FFA2CE09DF842006C2809D08C
:1051A000012007902868286050F8041B28608DF8BB
:1051B00050101EE02868286001AA50F8041B2860DF
:1051C000ADF804100020ADF806004FF0FF300E904F
:1051D00002A9404600F0F5F800280AD5ADE02520E8
:1051E0008DF85000012007901CB18AF80140022080
:1051F00007900F980799401A0A99401A0899401A7F
:105200000B99401A0999401A0C99441A9DF84000CC
:10521000400710D420208DF80000002609E001236B
:1052200000AA02A9404600F001FE002840F0858057
:10523000761CA642F3DB079E0DF1500B0AE01BF82B
:10524000011B0498C0470028049076D00D98401C9C
:105250000D90761E002EF2D130208DF800004FF018
:10526000000B0A9E09E0012300AA02A9404600F0B3
:10527000DDFD002861D10BF1010BB345F3DB089E86
:10528000DDF814B00AE01BF8011B0498C0470028A1
:10529000049052D00D98401C0D90761E002EF2D135
:1052A00030208DF800004FF0000B0B9E09E0012329
:1052B00000AA02A9404600F0B9FD00283DD10BF13B
:1052C000010BB345F3DB05980899099E01EB000B30
:1052D00009E01BF8011B0498C047049068B30D98BF
:1052E000401C0D90761E002EF3D130208DF800006A
:1052F0004FF0000B0C9E08E0012300AA02A94046D3
:1053000000F094FDC8B90BF1010BB345F4DB9DF837
:10531000400040077FF519AD20208DF800000026E1
:1053200000E0761CA642BFF610AD012300AA02A938
:10533000404600F07BFD0028F3D04FF0FF3025B051
:10534000BDE8F08F0000000000000000686A6C7487
:105350007A4C0000622826D068281DD06A2808D020
:105360006C2827D0712804D0742823D07A280CD038
:1053700020E00868C01D20F007000860D0E9002385
:10538000083008601946104670470A680A6052F8EB
:10539000040B0A60002170470A680A6052F8040B87
:1053A0000A6000B20BE00A680A6052F8040B0A6057
:1053B00040B204E00A680A6052F8040B0A60C117A0
:1053C00070472DE9F44F0D4694B0D5F830B0BBF1DD
:1053D000000F804648BF6FF0004B01F0DFFC696BA7
:1053E000401801900FF67420D0E90023CDE9022384
:1053F00095F83800400702D40198412806D2402091
:105400000DF1100A01904FF0000909E001F0CCFC09
:105410005FEA000AF7D14FF0FF3058E1ABEB040B25
:10542000BBF1010FC0F2CD801498018802AA0DF1E2
:10543000010001F011FD0028044600F1D580149808
:10544000008810B9641E00F1CF80A345C0F2B98076
:10545000686901992218914280F0A180296AC5F8F3
:1054600034904042401AA969401A696A401AE969B1
:10547000401AA96AA0EB010995F83800400710D43A
:1054800020208DF80000002609E0012300AA29460B
:10549000404600F0CBFC002840F0A680761C4E452C
:1054A000F3DB6E6957460BE017F8011BA868C0478D
:1054B0000028A86000F09880E86A401CE862761E28
:1054C000002EF1D130208DF8000000272E6A09E06F
:1054D000012300AA2946404600F0A8FC002840F01D
:1054E00083807F1CB742F3DBAE69EF680AE017F8F0
:1054F000011BA868C0470028A86075D0E86A401C56
:10550000E862761E002EF2D130208DF800000027D0
:105510006E6A08E0012300AA2946404600F086FC96
:10552000002861D17F1CB742F4DBE868A969EE6905
:105530000F180AE017F8011BA868C0470028A860E8
:1055400052D0E86A401CE862761E002EF2D130206C
:105550008DF800000027AE6A08E0012300AA294662
:10556000404600F063FC00283ED17F1CB742F4DBCC
:1055700095F8380040070ED520208DF80000002651
:1055800007E0012300AA2946404600F04FFC58BB23
:10559000761C4E45F5DB4FF00009C5F81490224605
:1055A00068690DF101015044FFF77EFB686920181E
:1055B00068611498801C1490801E008800287FF475
:1055C0002DAF686B6969401A296A401AA969401AA7
:1055D000696A401AE969401AA96A471A95F83800B9
:1055E000400710D400240CE04FF0FF3968E0A868B1
:1055F0002021C0470028A860F6D0E86A401CE86275
:10560000641CBC42F3DB6B6952462946404600F0FD
:105610000DFC0028E8D12C6A002609E0A86830219A
:10562000C0470028A860DFD0E86A401CE862761C0A
:10563000A642F3DBAB69EA682946404600F0F6FB78
:105640000028D1D16C6A002609E0A8683021C04743
:105650000028A860C8D0E86A401CE862761CA64210
:10566000F3DBE868A969EB690A182946404600F0AF
:10567000DDFB0028B8D1AC6A002609E0A86830211B
:10568000C0470028A860AFD0E86A401CE862761CDA
:10569000A642F3DB95F8380040070DD5002409E059
:1056A000A8682021C0470028A8609DD0E86A401C57
:1056B000E862641CBC42F3DBC5F81490C5F8349072
:1056C00004A882451CBF504601F0D4FB484615B0E3
:1056D000BDE8F08F2DE9FA4E05460A462F696F2A7C
:1056E00008BF082405D041F02000782814BF0A2400
:1056F00010243C26D5E90001642A18BF692A814696
:105700008A4605D1002903DAD9F100096AEB4A0A71
:10571000BAF1000F08BFB9F1000F0CD1286B50B9D6
:10572000082C36D195F83800000732D530203B26BA
:1057300087F83B002DE0E31748465146224601F02A
:10574000D9FBA4FB0023A9EB02023032D2B2A6F1AE
:10575000010B3A2A5E4603DB9DF80030513B9A1854
:1057600081465FEA010A0BF8072008BFB9F1000F74
:1057700003D0E868F1198842DDD3082C09D195F8E7
:105780003800000705D5F05D302802D0761E3020A5
:10579000F055C6F13C00A861F119E960296B884217
:1057A00008DA081A28624FF6EF71288F0840288718
:1057B000BDE8F38E00290ED595F8381001F01401DC
:1057C000102908D1696B6A69891A2A6A891A0E1A1E
:1057D000012EA8BF2E62BDE8F38E00002DE9F24F26
:1057E00004468EB0D4E90001CDE9020104AF9DF872
:1057F000380040F0200BBBF1610F0AD0206B00286D
:1058000048BF062004D408BFBBF1670F01D10120B7
:1058100020636168C1F30A5040F2FF7290421CD1CC
:10582000080304BF2068002809D10320A0619DF867
:10583000380061381A2836D30FF2346108E00320AB
:10584000A0619DF8380061381A2829D30FF2186139
:10585000E0680322FFF728FABEE1012816DA2046A5
:1058600001F0BFFB012811DB00250020BBF1610F17
:1058700020D1E168302201F8012B4A1CE2609DF83A
:105880003820612A0CBF782258220FE0626840F26B
:10589000FE3161F31E52451A62604FF0FF30E5E7BA
:1058A0000FF2C051D4E70FF2C451D1E70A70616919
:1058B000891C616110B90026002584E1BBF1610FEC
:1058C00040F09780206BD4E900AB00284CBF212624
:1058D000461CDDE902010022002301F0A3FB36B2E1
:1058E0003ABF8BF00040CDE902A0CDE902AB06F152
:1058F00001082D1F8DF810200DF1110700E0C71DC4
:10590000B8F1010F33DBDDE902010022002301F0D1
:10591000A1FB2CD21C2102A801F0B4FBDDE902019D
:1059200001F03CFCA8F10708B8F1010F814609DB42
:1059300001F060FC02460B46DDE9020101F072FC59
:10594000CDE90201F81D072105E009F00F0200F87A
:10595000012D4FEA2919B9F1010F01DB491EF4D5D8
:10596000491E5CBF002200F8012DF9D5C7E70DF1F3
:105970001100391AB142B8BF0E4636B230000DF1EF
:1059800011072FD4884206DA04A94118497808295A
:10599000A8BF0F2100DA002104AA821800E0761EB9
:1059A00012F80139401E8B42F9D00F2904D104A905
:1059B00041184A78521C4A70002802D504AF761C60
:1059C0002D1D36B2701E0DD4C1190A783032D2B2F4
:1059D0003A2A03DB9DF838303A3B9A18401E01F80A
:1059E0000129F2D5206B002840F1ED80701E206364
:1059F000E9E0DDE902010022002301F013FB3CBFD6
:105A000081F00041CDE902012DB247F29750684381
:105A10004B49DFF8309190FBF1F52DB2C5F1070A43
:105A2000BAF1010F90461CDBDDE902675FEACA703C
:105A300007D542464B463046394601F0B3FC064690
:105A40000F464046494642464B464FEA6A0A01F035
:105A5000A9FCBAF1000F80468946E7D1CDE902677B
:105A600024E0CAF1000A0026374F14E05FEACA704A
:105A700007D542464B463046394601F093FC064670
:105A80000F464046494642464B4601F08BFC4FEAE2
:105A90006A0A80468946BAF1000FE7D1DDE90201C2
:105AA00032463B4601F050FDCDE90201BBF1660FE5
:105AB000216BDFF898900CBF05F10A00062046180C
:105AC000142EA8BF132630208DF810000DF11107F9
:105AD000012E3DDBDDE9020101F076FB07F1080153
